{
  "abi": [
    {
      "inputs": [
        {
          "internalType": "address",
          "name": "_keeper",
          "type": "address"
        },
        {
          "internalType": "address",
          "name": "_strategist",
          "type": "address"
        },
        {
          "internalType": "address",
          "name": "_unirouter",
          "type": "address"
        },
        {
          "internalType": "address",
          "name": "_vault",
          "type": "address"
        }
      ],
      "stateMutability": "nonpayable",
      "type": "constructor"
    },
    {
      "anonymous": false,
      "inputs": [
        {
          "indexed": true,
          "internalType": "address",
          "name": "previousOwner",
          "type": "address"
        },
        {
          "indexed": true,
          "internalType": "address",
          "name": "newOwner",
          "type": "address"
        }
      ],
      "name": "OwnershipTransferred",
      "type": "event"
    },
    {
      "anonymous": false,
      "inputs": [
        {
          "indexed": false,
          "internalType": "address",
          "name": "account",
          "type": "address"
        }
      ],
      "name": "Paused",
      "type": "event"
    },
    {
      "anonymous": false,
      "inputs": [
        {
          "indexed": false,
          "internalType": "address",
          "name": "account",
          "type": "address"
        }
      ],
      "name": "Unpaused",
      "type": "event"
    },
    {
      "inputs": [],
      "name": "beefyFeeRecipient",
      "outputs": [
        {
          "internalType": "address",
          "name": "",
          "type": "address"
        }
      ],
      "stateMutability": "view",
      "type": "function"
    },
    {
      "inputs": [],
      "name": "beforeDeposit",
      "outputs": [],
      "stateMutability": "nonpayable",
      "type": "function"
    },
    {
      "inputs": [],
      "name": "keeper",
      "outputs": [
        {
          "internalType": "address",
          "name": "",
          "type": "address"
        }
      ],
      "stateMutability": "view",
      "type": "function"
    },
    {
      "inputs": [],
      "name": "owner",
      "outputs": [
        {
          "internalType": "address",
          "name": "",
          "type": "address"
        }
      ],
      "stateMutability": "view",
      "type": "function"
    },
    {
      "inputs": [],
      "name": "paused",
      "outputs": [
        {
          "internalType": "bool",
          "name": "",
          "type": "bool"
        }
      ],
      "stateMutability": "view",
      "type": "function"
    },
    {
      "inputs": [],
      "name": "renounceOwnership",
      "outputs": [],
      "stateMutability": "nonpayable",
      "type": "function"
    },
    {
      "inputs": [
        {
          "internalType": "address",
          "name": "_keeper",
          "type": "address"
        }
      ],
      "name": "setKeeper",
      "outputs": [],
      "stateMutability": "nonpayable",
      "type": "function"
    },
    {
      "inputs": [
        {
          "internalType": "address",
          "name": "_strategist",
          "type": "address"
        }
      ],
      "name": "setStrategist",
      "outputs": [],
      "stateMutability": "nonpayable",
      "type": "function"
    },
    {
      "inputs": [
        {
          "internalType": "address",
          "name": "_unirouter",
          "type": "address"
        }
      ],
      "name": "setUnirouter",
      "outputs": [],
      "stateMutability": "nonpayable",
      "type": "function"
    },
    {
      "inputs": [
        {
          "internalType": "address",
          "name": "_vault",
          "type": "address"
        }
      ],
      "name": "setVault",
      "outputs": [],
      "stateMutability": "nonpayable",
      "type": "function"
    },
    {
      "inputs": [],
      "name": "strategist",
      "outputs": [
        {
          "internalType": "address",
          "name": "",
          "type": "address"
        }
      ],
      "stateMutability": "view",
      "type": "function"
    },
    {
      "inputs": [
        {
          "internalType": "address",
          "name": "newOwner",
          "type": "address"
        }
      ],
      "name": "transferOwnership",
      "outputs": [],
      "stateMutability": "nonpayable",
      "type": "function"
    },
    {
      "inputs": [],
      "name": "unirouter",
      "outputs": [
        {
          "internalType": "address",
          "name": "",
          "type": "address"
        }
      ],
      "stateMutability": "view",
      "type": "function"
    },
    {
      "inputs": [],
      "name": "vault",
      "outputs": [
        {
          "internalType": "address",
          "name": "",
          "type": "address"
        }
      ],
      "stateMutability": "view",
      "type": "function"
    }
  ],
  "bytecode": "608060405234801561001057600080fd5b506040516107a93803806107a983398101604081905261002f91610104565b60006100396100e3565b600080546001600160a01b0319166001600160a01b0383169081178255604051929350917f8be0079c531659141344cd1fd0a4f28419497f9722a3daafe3b4186f6b6457e0908290a3506000805460ff60a01b19169055600180546001600160a01b039586166001600160a01b031991821617909155600280549486169482169490941790935560038054928516928416929092179091556004805491909316911617905561015b565b3390565b80516001600160a01b03811681146100fe57600080fd5b92915050565b60008060008060808587031215610119578384fd5b61012386866100e7565b935061013286602087016100e7565b925061014186604087016100e7565b915061015086606087016100e7565b905092959194509250565b61063f8061016a6000396000f3fe608060405234801561001057600080fd5b50600436106100ea5760003560e01c80638da5cb5b1161008c578063c7b9d53011610066578063c7b9d5301461017a578063d92f3d731461018d578063f2fde38b146101a0578063fbfa77cf146101b3576100ea565b80638da5cb5b146101625780638e1454591461016a578063aced166114610172576100ea565b80635c975abb116100c85780635c975abb1461011f5780636817031b14610134578063715018a614610147578063748747e61461014f576100ea565b80631fe4a686146100ef578063257ae0de1461010d578063573fef0a14610115575b600080fd5b6100f76101bb565b6040516101049190610528565b60405180910390f35b6100f76101ca565b61011d6101d9565b005b6101276101db565b604051610104919061053c565b61011d6101423660046104fa565b6101eb565b61011d610255565b61011d61015d3660046104fa565b6102de565b6100f761034d565b6100f761035c565b6100f761036b565b61011d6101883660046104fa565b61037a565b61011d61019b3660046104fa565b6103c6565b61011d6101ae3660046104fa565b610427565b6100f76104e7565b6002546001600160a01b031681565b6003546001600160a01b031681565b565b600054600160a01b900460ff1690565b6101f36104f6565b6001600160a01b031661020461034d565b6001600160a01b0316146102335760405162461bcd60e51b815260040161022a906105b2565b60405180910390fd5b600480546001600160a01b0319166001600160a01b0392909216919091179055565b61025d6104f6565b6001600160a01b031661026e61034d565b6001600160a01b0316146102945760405162461bcd60e51b815260040161022a906105b2565b600080546040516001600160a01b03909116907f8be0079c531659141344cd1fd0a4f28419497f9722a3daafe3b4186f6b6457e0908390a3600080546001600160a01b0319169055565b6102e661034d565b6001600160a01b0316336001600160a01b0316148061030f57506001546001600160a01b031633145b61032b5760405162461bcd60e51b815260040161022a906105e7565b600180546001600160a01b0319166001600160a01b0392909216919091179055565b6000546001600160a01b031690565b6005546001600160a01b031681565b6001546001600160a01b031681565b6002546001600160a01b031633146103a45760405162461bcd60e51b815260040161022a90610547565b600280546001600160a01b0319166001600160a01b0392909216919091179055565b6103ce6104f6565b6001600160a01b03166103df61034d565b6001600160a01b0316146104055760405162461bcd60e51b815260040161022a906105b2565b600380546001600160a01b0319166001600160a01b0392909216919091179055565b61042f6104f6565b6001600160a01b031661044061034d565b6001600160a01b0316146104665760405162461bcd60e51b815260040161022a906105b2565b6001600160a01b03811661048c5760405162461bcd60e51b815260040161022a9061056c565b600080546040516001600160a01b03808516939216917f8be0079c531659141344cd1fd0a4f28419497f9722a3daafe3b4186f6b6457e091a3600080546001600160a01b0319166001600160a01b0392909216919091179055565b6004546001600160a01b031681565b3390565b60006020828403121561050b578081fd5b81356001600160a01b0381168114610521578182fd5b9392505050565b6001600160a01b0391909116815260200190565b901515815260200190565b6020808252600b908201526a085cdd1c985d1959da5cdd60aa1b604082015260600190565b60208082526026908201527f4f776e61626c653a206e6577206f776e657220697320746865207a65726f206160408201526564647265737360d01b606082015260800190565b6020808252818101527f4f776e61626c653a2063616c6c6572206973206e6f7420746865206f776e6572604082015260600190565b60208082526008908201526710b6b0b730b3b2b960c11b60408201526060019056fea26469706673582212201b64a157dd3963d0d8fc5d702ae5338fd5b50c174ed06eff99b2f524f6d2072a64736f6c634300060c0033",
  "bytecodeSha1": "a3f70f3ffce629151c574de52c9746e14365e192",
  "compiler": {
    "evm_version": "istanbul",
    "optimizer": {
      "enabled": true,
      "runs": 200
    },
    "version": "0.6.12+commit.27d51765"
  },
  "contractName": "StratManager",
  "language": "Solidity",
  "natspec": {
    "kind": "dev",
    "methods": {
      "beforeDeposit()": {
        "details": "Function to synchronize balances before new user deposit. Can be overridden in the strategy."
      },
      "constructor": {
        "details": "Initializes the base strategy.",
        "params": {
          "_keeper": "address to use as alternative owner.",
          "_strategist": "address where strategist fees go.",
          "_unirouter": "router to use for swaps",
          "_vault": "address of parent vault."
        }
      },
      "owner()": {
        "details": "Returns the address of the current owner."
      },
      "paused()": {
        "details": "Returns true if the contract is paused, and false otherwise."
      },
      "renounceOwnership()": {
        "details": "Leaves the contract without owner. It will not be possible to call `onlyOwner` functions anymore. Can only be called by the current owner. NOTE: Renouncing ownership will leave the contract without an owner, thereby removing any functionality that is only available to the owner."
      },
      "setKeeper(address)": {
        "details": "Updates address of the strat keeper.",
        "params": {
          "_keeper": "new keeper address."
        }
      },
      "setStrategist(address)": {
        "details": "Updates address where strategist fee earnings will go.",
        "params": {
          "_strategist": "new strategist address."
        }
      },
      "setUnirouter(address)": {
        "details": "Updates router that will be used for swaps.",
        "params": {
          "_unirouter": "new unirouter address."
        }
      },
      "setVault(address)": {
        "details": "Updates parent vault.",
        "params": {
          "_vault": "new vault address."
        }
      },
      "transferOwnership(address)": {
        "details": "Transfers ownership of the contract to a new account (`newOwner`). Can only be called by the current owner."
      }
    },
    "stateVariables": {
      "keeper": {
        "details": "Beefy Contracts: {keeper} - Address to manage a few lower risk features of the strat {strategist} - Address of the strategy author/deployer where strategist fee will go. {vault} - Address of the vault that controls the strategy's funds. {unirouter} - Address of exchange to execute swaps."
      }
    },
    "version": 1
  },
  "opcodes": "PUSH1 0x80 PUSH1 0x40 MSTORE CALLVALUE DUP1 ISZERO PUSH2 0x10 JUMPI PUSH1 0x0 DUP1 REVERT JUMPDEST POP PUSH1 0x4 CALLDATASIZE LT PUSH2 0xEA JUMPI PUSH1 0x0 CALLDATALOAD PUSH1 0xE0 SHR DUP1 PUSH4 0x8DA5CB5B GT PUSH2 0x8C JUMPI DUP1 PUSH4 0xC7B9D530 GT PUSH2 0x66 JUMPI DUP1 PUSH4 0xC7B9D530 EQ PUSH2 0x17A JUMPI DUP1 PUSH4 0xD92F3D73 EQ PUSH2 0x18D JUMPI DUP1 PUSH4 0xF2FDE38B EQ PUSH2 0x1A0 JUMPI DUP1 PUSH4 0xFBFA77CF EQ PUSH2 0x1B3 JUMPI PUSH2 0xEA JUMP JUMPDEST DUP1 PUSH4 0x8DA5CB5B EQ PUSH2 0x162 JUMPI DUP1 PUSH4 0x8E145459 EQ PUSH2 0x16A JUMPI DUP1 PUSH4 0xACED1661 EQ PUSH2 0x172 JUMPI PUSH2 0xEA JUMP JUMPDEST DUP1 PUSH4 0x5C975ABB GT PUSH2 0xC8 JUMPI DUP1 PUSH4 0x5C975ABB EQ PUSH2 0x11F JUMPI DUP1 PUSH4 0x6817031B EQ PUSH2 0x134 JUMPI DUP1 PUSH4 0x715018A6 EQ PUSH2 0x147 JUMPI DUP1 PUSH4 0x748747E6 EQ PUSH2 0x14F JUMPI PUSH2 0xEA JUMP JUMPDEST DUP1 PUSH4 0x1FE4A686 EQ PUSH2 0xEF JUMPI DUP1 PUSH4 0x257AE0DE EQ PUSH2 0x10D JUMPI DUP1 PUSH4 0x573FEF0A EQ PUSH2 0x115 JUMPI JUMPDEST PUSH1 0x0 DUP1 REVERT JUMPDEST PUSH2 0xF7 PUSH2 0x1BB JUMP JUMPDEST PUSH1 0x40 MLOAD PUSH2 0x104 SWAP2 SWAP1 PUSH2 0x528 JUMP JUMPDEST PUSH1 0x40 MLOAD DUP1 SWAP2 SUB SWAP1 RETURN JUMPDEST PUSH2 0xF7 PUSH2 0x1CA JUMP JUMPDEST PUSH2 0x11D PUSH2 0x1D9 JUMP JUMPDEST STOP JUMPDEST PUSH2 0x127 PUSH2 0x1DB JUMP JUMPDEST PUSH1 0x40 MLOAD PUSH2 0x104 SWAP2 SWAP1 PUSH2 0x53C JUMP JUMPDEST PUSH2 0x11D PUSH2 0x142 CALLDATASIZE PUSH1 0x4 PUSH2 0x4FA JUMP JUMPDEST PUSH2 0x1EB JUMP JUMPDEST PUSH2 0x11D PUSH2 0x255 JUMP JUMPDEST PUSH2 0x11D PUSH2 0x15D CALLDATASIZE PUSH1 0x4 PUSH2 0x4FA JUMP JUMPDEST PUSH2 0x2DE JUMP JUMPDEST PUSH2 0xF7 PUSH2 0x34D JUMP JUMPDEST PUSH2 0xF7 PUSH2 0x35C JUMP JUMPDEST PUSH2 0xF7 PUSH2 0x36B JUMP JUMPDEST PUSH2 0x11D PUSH2 0x188 CALLDATASIZE PUSH1 0x4 PUSH2 0x4FA JUMP JUMPDEST PUSH2 0x37A JUMP JUMPDEST PUSH2 0x11D PUSH2 0x19B CALLDATASIZE PUSH1 0x4 PUSH2 0x4FA JUMP JUMPDEST PUSH2 0x3C6 JUMP JUMPDEST PUSH2 0x11D PUSH2 0x1AE CALLDATASIZE PUSH1 0x4 PUSH2 0x4FA JUMP JUMPDEST PUSH2 0x427 JUMP JUMPDEST PUSH2 0xF7 PUSH2 0x4E7 JUMP JUMPDEST PUSH1 0x2 SLOAD PUSH1 0x1 PUSH1 0x1 PUSH1 0xA0 SHL SUB AND DUP2 JUMP JUMPDEST PUSH1 0x3 SLOAD PUSH1 0x1 PUSH1 0x1 PUSH1 0xA0 SHL SUB AND DUP2 JUMP JUMPDEST JUMP JUMPDEST PUSH1 0x0 SLOAD PUSH1 0x1 PUSH1 0xA0 SHL SWAP1 DIV PUSH1 0xFF AND SWAP1 JUMP JUMPDEST PUSH2 0x1F3 PUSH2 0x4F6 JUMP JUMPDEST PUSH1 0x1 PUSH1 0x1 PUSH1 0xA0 SHL SUB AND PUSH2 0x204 PUSH2 0x34D JUMP JUMPDEST PUSH1 0x1 PUSH1 0x1 PUSH1 0xA0 SHL SUB AND EQ PUSH2 0x233 JUMPI PUSH1 0x40 MLOAD PUSH3 0x461BCD PUSH1 0xE5 SHL DUP2 MSTORE PUSH1 0x4 ADD PUSH2 0x22A SWAP1 PUSH2 0x5B2 JUMP JUMPDEST PUSH1 0x40 MLOAD DUP1 SWAP2 SUB SWAP1 REVERT JUMPDEST PUSH1 0x4 DUP1 SLOAD PUSH1 0x1 PUSH1 0x1 PUSH1 0xA0 SHL SUB NOT AND PUSH1 0x1 PUSH1 0x1 PUSH1 0xA0 SHL SUB SWAP3 SWAP1 SWAP3 AND SWAP2 SWAP1 SWAP2 OR SWAP1 SSTORE JUMP JUMPDEST PUSH2 0x25D PUSH2 0x4F6 JUMP JUMPDEST PUSH1 0x1 PUSH1 0x1 PUSH1 0xA0 SHL SUB AND PUSH2 0x26E PUSH2 0x34D JUMP JUMPDEST PUSH1 0x1 PUSH1 0x1 PUSH1 0xA0 SHL SUB AND EQ PUSH2 0x294 JUMPI PUSH1 0x40 MLOAD PUSH3 0x461BCD PUSH1 0xE5 SHL DUP2 MSTORE PUSH1 0x4 ADD PUSH2 0x22A SWAP1 PUSH2 0x5B2 JUMP JUMPDEST PUSH1 0x0 DUP1 SLOAD PUSH1 0x40 MLOAD PUSH1 0x1 PUSH1 0x1 PUSH1 0xA0 SHL SUB SWAP1 SWAP2 AND SWAP1 PUSH32 0x8BE0079C531659141344CD1FD0A4F28419497F9722A3DAAFE3B4186F6B6457E0 SWAP1 DUP4 SWAP1 LOG3 PUSH1 0x0 DUP1 SLOAD PUSH1 0x1 PUSH1 0x1 PUSH1 0xA0 SHL SUB NOT AND SWAP1 SSTORE JUMP JUMPDEST PUSH2 0x2E6 PUSH2 0x34D JUMP JUMPDEST PUSH1 0x1 PUSH1 0x1 PUSH1 0xA0 SHL SUB AND CALLER PUSH1 0x1 PUSH1 0x1 PUSH1 0xA0 SHL SUB AND EQ DUP1 PUSH2 0x30F JUMPI POP PUSH1 0x1 SLOAD PUSH1 0x1 PUSH1 0x1 PUSH1 0xA0 SHL SUB AND CALLER EQ JUMPDEST PUSH2 0x32B JUMPI PUSH1 0x40 MLOAD PUSH3 0x461BCD PUSH1 0xE5 SHL DUP2 MSTORE PUSH1 0x4 ADD PUSH2 0x22A SWAP1 PUSH2 0x5E7 JUMP JUMPDEST PUSH1 0x1 DUP1 SLOAD PUSH1 0x1 PUSH1 0x1 PUSH1 0xA0 SHL SUB NOT AND PUSH1 0x1 PUSH1 0x1 PUSH1 0xA0 SHL SUB SWAP3 SWAP1 SWAP3 AND SWAP2 SWAP1 SWAP2 OR SWAP1 SSTORE JUMP JUMPDEST PUSH1 0x0 SLOAD PUSH1 0x1 PUSH1 0x1 PUSH1 0xA0 SHL SUB AND SWAP1 JUMP JUMPDEST PUSH1 0x5 SLOAD PUSH1 0x1 PUSH1 0x1 PUSH1 0xA0 SHL SUB AND DUP2 JUMP JUMPDEST PUSH1 0x1 SLOAD PUSH1 0x1 PUSH1 0x1 PUSH1 0xA0 SHL SUB AND DUP2 JUMP JUMPDEST PUSH1 0x2 SLOAD PUSH1 0x1 PUSH1 0x1 PUSH1 0xA0 SHL SUB AND CALLER EQ PUSH2 0x3A4 JUMPI PUSH1 0x40 MLOAD PUSH3 0x461BCD PUSH1 0xE5 SHL DUP2 MSTORE PUSH1 0x4 ADD PUSH2 0x22A SWAP1 PUSH2 0x547 JUMP JUMPDEST PUSH1 0x2 DUP1 SLOAD PUSH1 0x1 PUSH1 0x1 PUSH1 0xA0 SHL SUB NOT AND PUSH1 0x1 PUSH1 0x1 PUSH1 0xA0 SHL SUB SWAP3 SWAP1 SWAP3 AND SWAP2 SWAP1 SWAP2 OR SWAP1 SSTORE JUMP JUMPDEST PUSH2 0x3CE PUSH2 0x4F6 JUMP JUMPDEST PUSH1 0x1 PUSH1 0x1 PUSH1 0xA0 SHL SUB AND PUSH2 0x3DF PUSH2 0x34D JUMP JUMPDEST PUSH1 0x1 PUSH1 0x1 PUSH1 0xA0 SHL SUB AND EQ PUSH2 0x405 JUMPI PUSH1 0x40 MLOAD PUSH3 0x461BCD PUSH1 0xE5 SHL DUP2 MSTORE PUSH1 0x4 ADD PUSH2 0x22A SWAP1 PUSH2 0x5B2 JUMP JUMPDEST PUSH1 0x3 DUP1 SLOAD PUSH1 0x1 PUSH1 0x1 PUSH1 0xA0 SHL SUB NOT AND PUSH1 0x1 PUSH1 0x1 PUSH1 0xA0 SHL SUB SWAP3 SWAP1 SWAP3 AND SWAP2 SWAP1 SWAP2 OR SWAP1 SSTORE JUMP JUMPDEST PUSH2 0x42F PUSH2 0x4F6 JUMP JUMPDEST PUSH1 0x1 PUSH1 0x1 PUSH1 0xA0 SHL SUB AND PUSH2 0x440 PUSH2 0x34D JUMP JUMPDEST PUSH1 0x1 PUSH1 0x1 PUSH1 0xA0 SHL SUB AND EQ PUSH2 0x466 JUMPI PUSH1 0x40 MLOAD PUSH3 0x461BCD PUSH1 0xE5 SHL DUP2 MSTORE PUSH1 0x4 ADD PUSH2 0x22A SWAP1 PUSH2 0x5B2 JUMP JUMPDEST PUSH1 0x1 PUSH1 0x1 PUSH1 0xA0 SHL SUB DUP2 AND PUSH2 0x48C JUMPI PUSH1 0x40 MLOAD PUSH3 0x461BCD PUSH1 0xE5 SHL DUP2 MSTORE PUSH1 0x4 ADD PUSH2 0x22A SWAP1 PUSH2 0x56C JUMP JUMPDEST PUSH1 0x0 DUP1 SLOAD PUSH1 0x40 MLOAD PUSH1 0x1 PUSH1 0x1 PUSH1 0xA0 SHL SUB DUP1 DUP6 AND SWAP4 SWAP3 AND SWAP2 PUSH32 0x8BE0079C531659141344CD1FD0A4F28419497F9722A3DAAFE3B4186F6B6457E0 SWAP2 LOG3 PUSH1 0x0 DUP1 SLOAD PUSH1 0x1 PUSH1 0x1 PUSH1 0xA0 SHL SUB NOT AND PUSH1 0x1 PUSH1 0x1 PUSH1 0xA0 SHL SUB SWAP3 SWAP1 SWAP3 AND SWAP2 SWAP1 SWAP2 OR SWAP1 SSTORE JUMP JUMPDEST PUSH1 0x4 SLOAD PUSH1 0x1 PUSH1 0x1 PUSH1 0xA0 SHL SUB AND DUP2 JUMP JUMPDEST CALLER SWAP1 JUMP JUMPDEST PUSH1 0x0 PUSH1 0x20 DUP3 DUP5 SUB SLT ISZERO PUSH2 0x50B JUMPI DUP1 DUP2 REVERT JUMPDEST DUP2 CALLDATALOAD PUSH1 0x1 PUSH1 0x1 PUSH1 0xA0 SHL SUB DUP2 AND DUP2 EQ PUSH2 0x521 JUMPI DUP2 DUP3 REVERT JUMPDEST SWAP4 SWAP3 POP POP POP JUMP JUMPDEST PUSH1 0x1 PUSH1 0x1 PUSH1 0xA0 SHL SUB SWAP2 SWAP1 SWAP2 AND DUP2 MSTORE PUSH1 0x20 ADD SWAP1 JUMP JUMPDEST SWAP1 ISZERO ISZERO DUP2 MSTORE PUSH1 0x20 ADD SWAP1 JUMP JUMPDEST PUSH1 0x20 DUP1 DUP3 MSTORE PUSH1 0xB SWAP1 DUP3 ADD MSTORE PUSH11 0x85CDD1C985D1959DA5CDD PUSH1 0xAA SHL PUSH1 0x40 DUP3 ADD MSTORE PUSH1 0x60 ADD SWAP1 JUMP JUMPDEST PUSH1 0x20 DUP1 DUP3 MSTORE PUSH1 0x26 SWAP1 DUP3 ADD MSTORE PUSH32 0x4F776E61626C653A206E6577206F776E657220697320746865207A65726F2061 PUSH1 0x40 DUP3 ADD MSTORE PUSH6 0x646472657373 PUSH1 0xD0 SHL PUSH1 0x60 DUP3 ADD MSTORE PUSH1 0x80 ADD SWAP1 JUMP JUMPDEST PUSH1 0x20 DUP1 DUP3 MSTORE DUP2 DUP2 ADD MSTORE PUSH32 0x4F776E61626C653A2063616C6C6572206973206E6F7420746865206F776E6572 PUSH1 0x40 DUP3 ADD MSTORE PUSH1 0x60 ADD SWAP1 JUMP JUMPDEST PUSH1 0x20 DUP1 DUP3 MSTORE PUSH1 0x8 SWAP1 DUP3 ADD MSTORE PUSH8 0x10B6B0B730B3B2B9 PUSH1 0xC1 SHL PUSH1 0x40 DUP3 ADD MSTORE PUSH1 0x60 ADD SWAP1 JUMP INVALID LOG2 PUSH5 0x6970667358 0x22 SLT KECCAK256 SHL PUSH5 0xA157DD3963 0xD0 0xD8 0xFC 0x5D PUSH17 0x2AE5338FD5B50C174ED06EFF99B2F524F6 0xD2 SMOD 0x2A PUSH5 0x736F6C6343 STOP MOD 0xC STOP CALLER ",
  "sha1": "3ecd5de8e387514ba69c198d72e3fb6f712260fc",
  "source": "// SPDX-License-Identifier: MIT\n\npragma solidity ^0.6.0;\npragma experimental ABIEncoderV2;\nimport \"OpenZeppelin/openzeppelin-contracts@3.4.0/contracts/math/SafeMath.sol\";\n\nimport \"OpenZeppelin/openzeppelin-contracts@3.4.0/contracts/token/ERC20/ERC20.sol\";\nimport \"OpenZeppelin/openzeppelin-contracts@3.4.0/contracts/token/ERC20/SafeERC20.sol\";\n\n\n\n\n\n/**\n * @dev Contract module which provides a basic access control mechanism, where\n * there is an account (an owner) that can be granted exclusive access to\n * specific functions.\n *\n * By default, the owner account will be the one that deploys the contract. This\n * can later be changed with {transferOwnership}.\n *\n * This module is used through inheritance. It will make available the modifier\n * `onlyOwner`, which can be applied to your functions to restrict their use to\n * the owner.\n */\nabstract contract Ownable is Context {\n    address private _owner;\n\n    event OwnershipTransferred(address indexed previousOwner, address indexed newOwner);\n\n    /**\n     * @dev Initializes the contract setting the deployer as the initial owner.\n     */\n    constructor () internal {\n        address msgSender = _msgSender();\n        _owner = msgSender;\n        emit OwnershipTransferred(address(0), msgSender);\n    }\n\n    /**\n     * @dev Returns the address of the current owner.\n     */\n    function owner() public view virtual returns (address) {\n        return _owner;\n    }\n\n    /**\n     * @dev Throws if called by any account other than the owner.\n     */\n    modifier onlyOwner() {\n        require(owner() == _msgSender(), \"Ownable: caller is not the owner\");\n        _;\n    }\n\n    /**\n     * @dev Leaves the contract without owner. It will not be possible to call\n     * `onlyOwner` functions anymore. Can only be called by the current owner.\n     *\n     * NOTE: Renouncing ownership will leave the contract without an owner,\n     * thereby removing any functionality that is only available to the owner.\n     */\n    function renounceOwnership() public virtual onlyOwner {\n        emit OwnershipTransferred(_owner, address(0));\n        _owner = address(0);\n    }\n\n    /**\n     * @dev Transfers ownership of the contract to a new account (`newOwner`).\n     * Can only be called by the current owner.\n     */\n    function transferOwnership(address newOwner) public virtual onlyOwner {\n        require(newOwner != address(0), \"Ownable: new owner is the zero address\");\n        emit OwnershipTransferred(_owner, newOwner);\n        _owner = newOwner;\n    }\n}\n\n\n\n\n/**\n * @dev Contract module which allows children to implement an emergency stop\n * mechanism that can be triggered by an authorized account.\n *\n * This module is used through inheritance. It will make available the\n * modifiers `whenNotPaused` and `whenPaused`, which can be applied to\n * the functions of your contract. Note that they will not be pausable by\n * simply including this module, only once the modifiers are put in place.\n */\nabstract contract Pausable is Context {\n    /**\n     * @dev Emitted when the pause is triggered by `account`.\n     */\n    event Paused(address account);\n\n    /**\n     * @dev Emitted when the pause is lifted by `account`.\n     */\n    event Unpaused(address account);\n\n    bool private _paused;\n\n    /**\n     * @dev Initializes the contract in unpaused state.\n     */\n    constructor () internal {\n        _paused = false;\n    }\n\n    /**\n     * @dev Returns true if the contract is paused, and false otherwise.\n     */\n    function paused() public view virtual returns (bool) {\n        return _paused;\n    }\n\n    /**\n     * @dev Modifier to make a function callable only when the contract is not paused.\n     *\n     * Requirements:\n     *\n     * - The contract must not be paused.\n     */\n    modifier whenNotPaused() {\n        require(!paused(), \"Pausable: paused\");\n        _;\n    }\n\n    /**\n     * @dev Modifier to make a function callable only when the contract is paused.\n     *\n     * Requirements:\n     *\n     * - The contract must be paused.\n     */\n    modifier whenPaused() {\n        require(paused(), \"Pausable: not paused\");\n        _;\n    }\n\n    /**\n     * @dev Triggers stopped state.\n     *\n     * Requirements:\n     *\n     * - The contract must not be paused.\n     */\n    function _pause() internal virtual whenNotPaused {\n        _paused = true;\n        emit Paused(_msgSender());\n    }\n\n    /**\n     * @dev Returns to normal state.\n     *\n     * Requirements:\n     *\n     * - The contract must be paused.\n     */\n    function _unpause() internal virtual whenPaused {\n        _paused = false;\n        emit Unpaused(_msgSender());\n    }\n}\n\n\ncontract StratManager is Ownable, Pausable {\n    /**\n     * @dev Beefy Contracts:\n     * {keeper} - Address to manage a few lower risk features of the strat\n     * {strategist} - Address of the strategy author/deployer where strategist fee will go.\n     * {vault} - Address of the vault that controls the strategy's funds.\n     * {unirouter} - Address of exchange to execute swaps.\n     */\n    address public keeper;\n    address public strategist;\n    address public unirouter;\n    address public vault;\n    address public beefyFeeRecipient;\n\n    /**\n     * @dev Initializes the base strategy.\n     * @param _keeper address to use as alternative owner.\n     * @param _strategist address where strategist fees go.\n     * @param _unirouter router to use for swaps\n     * @param _vault address of parent vault.\n     */\n    constructor(\n        address _keeper,\n        address _strategist,\n        address _unirouter,\n        address _vault\n    ) public {\n        keeper = _keeper;\n        strategist = _strategist;\n        unirouter = _unirouter;\n        vault = _vault;\n    }\n\n    // checks that caller is either owner or keeper.\n    modifier onlyManager() {\n        require(msg.sender == owner() || msg.sender == keeper, \"!manager\");\n        _;\n    }\n\n    /**\n     * @dev Updates address of the strat keeper.\n     * @param _keeper new keeper address.\n     */\n    function setKeeper(address _keeper) external onlyManager {\n        keeper = _keeper;\n    }\n\n    /**\n     * @dev Updates address where strategist fee earnings will go.\n     * @param _strategist new strategist address.\n     */\n    function setStrategist(address _strategist) external {\n        require(msg.sender == strategist, \"!strategist\");\n        strategist = _strategist;\n    }\n\n    /**\n     * @dev Updates router that will be used for swaps.\n     * @param _unirouter new unirouter address.\n     */\n    function setUnirouter(address _unirouter) external onlyOwner {\n        unirouter = _unirouter;\n    }\n\n    /**\n     * @dev Updates parent vault.\n     * @param _vault new vault address.\n     */\n    function setVault(address _vault) external onlyOwner {\n        vault = _vault;\n    }\n\n \n\n    /**\n     * @dev Function to synchronize balances before new user deposit.\n     * Can be overridden in the strategy.\n     */\n    function beforeDeposit() external virtual {}\n}\n\n\n\n/*\n * @dev Provides information about the current execution context, including the\n * sender of the transaction and its data. While these are generally available\n * via msg.sender and msg.data, they should not be accessed in such a direct\n * manner, since when dealing with GSN meta-transactions the account sending and\n * paying for execution may not be the actual sender (as far as an application\n * is concerned).\n *\n * This contract is only required for intermediate, library-like contracts.\n */\n\n\n\n\n abstract contract FeeManager is StratManager {\n    uint constant public STRATEGIST_FEE = 112;\n    uint constant public MAX_FEE = 1000;\n    uint constant public MAX_CALL_FEE = 111;\n\n    uint constant public WITHDRAWAL_FEE_CAP = 50;\n    uint constant public WITHDRAWAL_MAX = 10000;\n\n    uint public withdrawalFee = 10;\n\n    uint public callFee = 111;\n    uint public beefyFee = MAX_FEE - STRATEGIST_FEE - callFee;\n\n    function setCallFee(uint256 _fee) public onlyManager {\n        require(_fee <= MAX_CALL_FEE, \"!cap\");\n        \n        callFee = _fee;\n        beefyFee = MAX_FEE - STRATEGIST_FEE - callFee;\n    }\n\n    function setWithdrawalFee(uint256 _fee) public onlyManager {\n        require(_fee <= WITHDRAWAL_FEE_CAP, \"!cap\");\n\n        withdrawalFee = _fee;\n    }\n}\n\n\n\ninterface IERC20Extended {\n    function symbol() external view returns (string memory);\n    function decimals() external view returns (uint);\n}\n\ninterface ISolidlyGauge {\n    function deposit(uint256 amount, uint256 tokenId) external;\n    function withdraw(uint256 amount) external;\n    function getReward(address user, address[] memory rewards) external;\n    function earned(address token, address user) external view returns (uint256);\n    function balanceOf(address user) external view returns (uint256);\n}\n\ninterface ISolidlyPair {\n    function factory() external view returns (address);\n    function token0() external view returns (address);\n    function token1() external view returns (address);\n    function burn(address to) external returns (uint amount0, uint amount1);\n    function getReserves() external view returns (uint112 reserve0, uint112 reserve1, uint32 blockTimestampLast);\n    function stable() external view returns (bool);\n}\n\ninterface IUniswapRouterSolidly {\n\n    // Routes\n    struct Routes {\n        address from;\n        address to;\n        bool stable;\n    }\n\n    function addLiquidity(\n        address tokenA,\n        address tokenB,\n        bool stable,\n        uint amountADesired,\n        uint amountBDesired,\n        uint amountAMin,\n        uint amountBMin,\n        address to,\n        uint deadline\n    ) external returns (uint amountA, uint amountB, uint liquidity);\n\n    function addLiquidityETH(\n        address token,\n        bool stable, \n        uint amountTokenDesired,\n        uint amountTokenMin,\n        uint amountETHMin,\n        address to,\n        uint deadline\n    ) external payable returns (uint amountToken, uint amountETH, uint liquidity);\n\n    function removeLiquidity(\n        address tokenA,\n        address tokenB,\n        bool stable, \n        uint liquidity,\n        uint amountAMin,\n        uint amountBMin,\n        address to,\n        uint deadline\n    ) external returns (uint amountA, uint amountB);\n\n    function removeLiquidityETH(\n        address token,\n        bool stable,\n        uint liquidity,\n        uint amountTokenMin,\n        uint amountETHMin,\n        address to,\n        uint deadline\n    ) external returns (uint amountToken, uint amountETH);\n\n    function swapExactTokensForTokensSimple(\n        uint amountIn, \n        uint amountOutMin, \n        address tokenFrom, \n        address tokenTo,\n        bool stable, \n        address to, \n        uint deadline\n    ) external returns (uint[] memory amounts);\n\n     function swapExactTokensForTokens(\n        uint amountIn, \n        uint amountOutMin, \n        Routes[] memory route, \n        address to, \n        uint deadline\n    ) external returns (uint[] memory amounts);\n\n    function getAmountOut(uint amountIn, address tokenIn, address tokenOut) external view returns (uint amount, bool stable);\n   \n    function quoteAddLiquidity(\n        address tokenA,\n        address tokenB,\n        bool stable,\n        uint amountADesired,\n        uint amountBDesired\n    ) external view returns (uint amountA, uint amountB, uint liquidity);\n}\n\n\ncontract StrategyCommonSolidlyGaugeLP is StratManager {\n    using SafeERC20 for IERC20;\n    using SafeMath for uint256;\n\n    // Tokens used\n\n    //rewards token\n    address public native;\n    //reward token\n    address public output;\n\n\n    //lp pair determined by below to autocomound\n    address public want;\n    //lp token \n    address public lpToken0;\n    //lp token2\n    address public lpToken1;\n\n    // Third party contracts\n    address public gauge;\n    address public intializer;\n\n    bool public stable;\n    bool public harvestOnDeposit;\n    uint256 public lastHarvest;\n\n    //reward to natice wrapped\n    IUniswapRouterSolidly.Routes[] public outputToNativeRoute;\n     //reward to l0\n    IUniswapRouterSolidly.Routes[] public outputToLp0Route;\n    //reward to l1\n    IUniswapRouterSolidly.Routes[] public outputToLp1Route;\n    address[] public rewards;\n\n    event StratHarvest(address indexed harvester, uint256 wantHarvested, uint256 tvl);\n    event Deposit(uint256 tvl);\n    event Withdraw(uint256 tvl);\n\n    constructor(\n        address _want,\n        address _gauge,\n        address _vault,\n        address _unirouter,\n        address _keeper,\n        address _strategist\n    ) StratManager(_keeper, _strategist, _unirouter, _vault) public {\n        want = _want;\n        gauge = _gauge;\n\n        stable = true;\n        intializer = msg.sender;\n    }\n\n    function intializeRoutes(address[][] memory outputToNative, address[][] memory outputToLp0, address[][] memory outputToLp1, bool[][] memory stables) external onlyOwner {\n        require(intializer != address(0), \"Already Intialized\");\n        \n        _initOutputToNativeRoute(outputToNative, stables[0]);\n        _initOutputToLp0Route(outputToLp0, stables[1]);\n        _initOutputToLp1Route(outputToLp1, stables[2]);\n\n        output = outputToNativeRoute[0].from;\n        native = outputToNativeRoute[outputToNativeRoute.length -1].to;\n        lpToken0 = outputToLp0Route[outputToLp0Route.length - 1].to;\n        lpToken1 = outputToLp1Route[outputToLp1Route.length - 1].to;\n\n        rewards.push(output);\n        _giveAllowances();\n\n        intializer = address(0);\n    }\n\n    function _initOutputToNativeRoute(address[][] memory tokens, bool[] memory stables) internal {\n        for (uint i; i < tokens.length; ++i) {\n            outputToNativeRoute.push(IUniswapRouterSolidly.Routes({\n                from: tokens[i][0],\n                to: tokens[i][1],\n                stable: stables[i]\n            }));\n        }\n    }\n\n    function _initOutputToLp0Route(address[][] memory tokens, bool[] memory stables) internal {\n        for (uint i; i < tokens.length; ++i) {\n            outputToLp0Route.push(IUniswapRouterSolidly.Routes({\n                from: tokens[i][0],\n                to: tokens[i][1],\n                stable: stables[i]\n            }));\n        }\n    }\n\n     function _initOutputToLp1Route(address[][] memory tokens, bool[] memory stables) internal {\n        for (uint i; i < tokens.length; ++i) {\n            outputToLp1Route.push(IUniswapRouterSolidly.Routes({\n                from: tokens[i][0],\n                to: tokens[i][1],\n                stable: stables[i]\n            }));\n        }\n    }\n\n    // puts the funds to work\n    function deposit() public whenNotPaused {\n        //get balance\n        uint256 wantBal = IERC20(want).balanceOf(address(this));\n        //if non zero then deposit into gauge\n        if (wantBal > 0) {\n            ISolidlyGauge(gauge).deposit(wantBal, 0);\n            emit Deposit(balanceOf());\n        }\n    }\n\n\n    //\n    function withdraw(uint256 _amount) external {\n        //onlyvault can withdraw\n        require(msg.sender == vault, \"!vault\");\n        //get balance\n        uint256 wantBal = IERC20(want).balanceOf(address(this));\n        //if amount is large then larger then withdraw from gauge\n        if (wantBal < _amount) {\n            ISolidlyGauge(gauge).withdraw(_amount.sub(wantBal));\n            wantBal = IERC20(want).balanceOf(address(this));\n        }\n        // if want is larger then amount\n        if (wantBal > _amount) {\n            wantBal = _amount;\n        }\n\n        // Fees\n        //if (tx.origin != owner() && !paused()) {\n        //    uint256 withdrawalFeeAmount = wantBal.mul(withdrawalFee).div(WITHDRAWAL_MAX);\n        //     wantBal = wantBal.sub(withdrawalFeeAmount);\n        //}\n\n        // transfer to vault\n        IERC20(want).safeTransfer(vault, wantBal);\n\n        emit Withdraw(balanceOf());\n    }\n\n    function beforeDeposit() external virtual override {\n        if (harvestOnDeposit) {\n            require(msg.sender == vault, \"!vault\");\n            _harvest();\n        }\n    }\n\n    function harvest() external  virtual {\n        _harvest();\n    }\n\n\n    // compounds earnings and charges performance fee\n    function _harvest() internal whenNotPaused {\n        ISolidlyGauge(gauge).getReward(address(this), rewards);\n        uint256 outputBal = IERC20(output).balanceOf(address(this));\n        if (outputBal > 0) {\n            addLiquidity();\n            uint256 wantHarvested = balanceOfWant();\n            deposit();\n\n            lastHarvest = block.timestamp;\n            emit StratHarvest(msg.sender, wantHarvested, balanceOf());\n        }\n    }\n\n\n    // Adds liquidity to AMM and gets more LP tokens.\n    function addLiquidity() internal {\n        uint256 lp0Amt;\n        uint256 lp1Amt;\n        if (stable) {\n            uint256 outputBal = IERC20(output).balanceOf(address(this));\n            lp0Amt = outputBal.mul(getRatio()).div(10**18);\n            lp1Amt = outputBal.sub(lp0Amt);\n        } else { \n            lp0Amt = IERC20(output).balanceOf(address(this)).div(2);\n            lp1Amt = lp0Amt;\n        }\n        //trade rewards for lptoken0\n        if (lpToken0 != output) {\n            IUniswapRouterSolidly(unirouter).swapExactTokensForTokens(lp0Amt, 0, outputToLp0Route, address(this), now);\n        }\n        //tradre rewards for lptoken1\n        if (lpToken1 != output) {\n            IUniswapRouterSolidly(unirouter).swapExactTokensForTokens(lp1Amt, 0, outputToLp1Route, address(this), now);\n        }\n\n        uint256 lp0Bal = IERC20(lpToken0).balanceOf(address(this));\n        uint256 lp1Bal = IERC20(lpToken1).balanceOf(address(this));\n        IUniswapRouterSolidly(unirouter).addLiquidity(lpToken0, lpToken1, stable, lp0Bal, lp1Bal, 1, 1, address(this), now);\n    }\n\n//could cause problems?\n//works for sure for 19\n    function getRatio() public view returns (uint256) {\n        (uint256 opLp0, uint256 opLp1, ) = ISolidlyPair(want).getReserves();\n        uint256 lp0Amt = opLp0.mul(10**18).div(10**IERC20Extended(lpToken0).decimals());\n        uint256 lp1Amt = opLp1.mul(10**18).div(10**IERC20Extended(lpToken1).decimals());   \n        uint256 totalSupply = lp0Amt.add(lp1Amt);      \n        return lp0Amt.mul(10**18).div(totalSupply);\n    }\n\n    // calculate the total underlaying 'want' held by the strat.\n    function balanceOf() public view returns (uint256) {\n        // balance of this address + balance of pool\n        return balanceOfWant().add(balanceOfPool());\n    }\n\n    // it calculates how much 'want' this contract holds.\n    function balanceOfWant() public view returns (uint256) {\n        return IERC20(want).balanceOf(address(this));\n    }\n\n    // it calculates how much 'want' the strategy has working in the farm.\n    function balanceOfPool() public view returns (uint256) {\n        return ISolidlyGauge(gauge).balanceOf(address(this));\n    }\n\n    // returns rewards unharvested\n    function rewardsAvailable() public view returns (uint256) {\n        return ISolidlyGauge(gauge).earned(output, address(this));\n    }\n\n\n\n    function setHarvestOnDeposit(bool _harvestOnDeposit) external onlyManager {\n        harvestOnDeposit = _harvestOnDeposit;\n\n    \n    }\n\n\n    // called as part of strat migration. Sends all the available funds back to the vault.\n    function retireStrat() external {\n        require(msg.sender == vault, \"!vault\");\n\n        ISolidlyGauge(gauge).withdraw(balanceOfPool());\n\n        uint256 wantBal = IERC20(want).balanceOf(address(this));\n        IERC20(want).transfer(vault, wantBal);\n    }\n\n    // pauses deposits and withdraws all funds from third party systems.\n    function panic() public onlyManager {\n        pause();\n        ISolidlyGauge(gauge).withdraw(balanceOfPool());\n    }\n\n    function pause() public onlyManager {\n        _pause();\n\n        _removeAllowances();\n    }\n\n    function unpause() external onlyManager {\n        _unpause();\n\n        _giveAllowances();\n\n        deposit();\n    }\n\n    function _giveAllowances() internal {\n        IERC20(want).safeApprove(gauge, uint256(-1));\n        IERC20(output).safeApprove(unirouter, uint256(-1));\n\n        IERC20(lpToken0).safeApprove(unirouter, 0);\n        IERC20(lpToken0).safeApprove(unirouter, uint256(-1));\n\n        IERC20(lpToken1).safeApprove(unirouter, 0);\n        IERC20(lpToken1).safeApprove(unirouter, uint256(-1));\n    }\n\n    function _removeAllowances() internal {\n        IERC20(want).safeApprove(gauge, 0);\n        IERC20(output).safeApprove(unirouter, 0);\n\n        IERC20(lpToken0).safeApprove(unirouter, 0);\n        IERC20(lpToken1).safeApprove(unirouter, 0);\n    }\n}",
  "sourcePath": "contracts/StrategyCommonSolidlyGaugeLP.sol",
  "type": "contract"
}