{
  "abi": [
    {
      "inputs": [
        {
          "internalType": "address",
          "name": "_want",
          "type": "address"
        },
        {
          "internalType": "address",
          "name": "_gauge",
          "type": "address"
        },
        {
          "internalType": "address",
          "name": "_vault",
          "type": "address"
        },
        {
          "internalType": "address",
          "name": "_unirouter",
          "type": "address"
        },
        {
          "internalType": "address",
          "name": "_keeper",
          "type": "address"
        },
        {
          "internalType": "address",
          "name": "_strategist",
          "type": "address"
        }
      ],
      "stateMutability": "nonpayable",
      "type": "constructor"
    },
    {
      "anonymous": false,
      "inputs": [
        {
          "indexed": false,
          "internalType": "uint256",
          "name": "tvl",
          "type": "uint256"
        }
      ],
      "name": "Deposit",
      "type": "event"
    },
    {
      "anonymous": false,
      "inputs": [
        {
          "indexed": true,
          "internalType": "address",
          "name": "previousOwner",
          "type": "address"
        },
        {
          "indexed": true,
          "internalType": "address",
          "name": "newOwner",
          "type": "address"
        }
      ],
      "name": "OwnershipTransferred",
      "type": "event"
    },
    {
      "anonymous": false,
      "inputs": [
        {
          "indexed": false,
          "internalType": "address",
          "name": "account",
          "type": "address"
        }
      ],
      "name": "Paused",
      "type": "event"
    },
    {
      "anonymous": false,
      "inputs": [
        {
          "indexed": true,
          "internalType": "address",
          "name": "harvester",
          "type": "address"
        },
        {
          "indexed": false,
          "internalType": "uint256",
          "name": "wantHarvested",
          "type": "uint256"
        },
        {
          "indexed": false,
          "internalType": "uint256",
          "name": "tvl",
          "type": "uint256"
        }
      ],
      "name": "StratHarvest",
      "type": "event"
    },
    {
      "anonymous": false,
      "inputs": [
        {
          "indexed": false,
          "internalType": "address",
          "name": "account",
          "type": "address"
        }
      ],
      "name": "Unpaused",
      "type": "event"
    },
    {
      "anonymous": false,
      "inputs": [
        {
          "indexed": false,
          "internalType": "uint256",
          "name": "tvl",
          "type": "uint256"
        }
      ],
      "name": "Withdraw",
      "type": "event"
    },
    {
      "inputs": [],
      "name": "balanceOf",
      "outputs": [
        {
          "internalType": "uint256",
          "name": "",
          "type": "uint256"
        }
      ],
      "stateMutability": "view",
      "type": "function"
    },
    {
      "inputs": [],
      "name": "balanceOfPool",
      "outputs": [
        {
          "internalType": "uint256",
          "name": "",
          "type": "uint256"
        }
      ],
      "stateMutability": "view",
      "type": "function"
    },
    {
      "inputs": [],
      "name": "balanceOfWant",
      "outputs": [
        {
          "internalType": "uint256",
          "name": "",
          "type": "uint256"
        }
      ],
      "stateMutability": "view",
      "type": "function"
    },
    {
      "inputs": [],
      "name": "beefyFeeRecipient",
      "outputs": [
        {
          "internalType": "address",
          "name": "",
          "type": "address"
        }
      ],
      "stateMutability": "view",
      "type": "function"
    },
    {
      "inputs": [],
      "name": "beforeDeposit",
      "outputs": [],
      "stateMutability": "nonpayable",
      "type": "function"
    },
    {
      "inputs": [],
      "name": "deposit",
      "outputs": [],
      "stateMutability": "nonpayable",
      "type": "function"
    },
    {
      "inputs": [],
      "name": "gauge",
      "outputs": [
        {
          "internalType": "address",
          "name": "",
          "type": "address"
        }
      ],
      "stateMutability": "view",
      "type": "function"
    },
    {
      "inputs": [],
      "name": "getRatio",
      "outputs": [
        {
          "internalType": "uint256",
          "name": "",
          "type": "uint256"
        }
      ],
      "stateMutability": "view",
      "type": "function"
    },
    {
      "inputs": [],
      "name": "harvest",
      "outputs": [],
      "stateMutability": "nonpayable",
      "type": "function"
    },
    {
      "inputs": [],
      "name": "harvestOnDeposit",
      "outputs": [
        {
          "internalType": "bool",
          "name": "",
          "type": "bool"
        }
      ],
      "stateMutability": "view",
      "type": "function"
    },
    {
      "inputs": [
        {
          "internalType": "address[][]",
          "name": "outputToNative",
          "type": "address[][]"
        },
        {
          "internalType": "address[][]",
          "name": "outputToLp0",
          "type": "address[][]"
        },
        {
          "internalType": "address[][]",
          "name": "outputToLp1",
          "type": "address[][]"
        },
        {
          "internalType": "bool[][]",
          "name": "stables",
          "type": "bool[][]"
        }
      ],
      "name": "intializeRoutes",
      "outputs": [],
      "stateMutability": "nonpayable",
      "type": "function"
    },
    {
      "inputs": [],
      "name": "intializer",
      "outputs": [
        {
          "internalType": "address",
          "name": "",
          "type": "address"
        }
      ],
      "stateMutability": "view",
      "type": "function"
    },
    {
      "inputs": [],
      "name": "keeper",
      "outputs": [
        {
          "internalType": "address",
          "name": "",
          "type": "address"
        }
      ],
      "stateMutability": "view",
      "type": "function"
    },
    {
      "inputs": [],
      "name": "lastHarvest",
      "outputs": [
        {
          "internalType": "uint256",
          "name": "",
          "type": "uint256"
        }
      ],
      "stateMutability": "view",
      "type": "function"
    },
    {
      "inputs": [],
      "name": "lpToken0",
      "outputs": [
        {
          "internalType": "address",
          "name": "",
          "type": "address"
        }
      ],
      "stateMutability": "view",
      "type": "function"
    },
    {
      "inputs": [],
      "name": "lpToken1",
      "outputs": [
        {
          "internalType": "address",
          "name": "",
          "type": "address"
        }
      ],
      "stateMutability": "view",
      "type": "function"
    },
    {
      "inputs": [],
      "name": "native",
      "outputs": [
        {
          "internalType": "address",
          "name": "",
          "type": "address"
        }
      ],
      "stateMutability": "view",
      "type": "function"
    },
    {
      "inputs": [],
      "name": "output",
      "outputs": [
        {
          "internalType": "address",
          "name": "",
          "type": "address"
        }
      ],
      "stateMutability": "view",
      "type": "function"
    },
    {
      "inputs": [
        {
          "internalType": "uint256",
          "name": "",
          "type": "uint256"
        }
      ],
      "name": "outputToLp0Route",
      "outputs": [
        {
          "internalType": "address",
          "name": "from",
          "type": "address"
        },
        {
          "internalType": "address",
          "name": "to",
          "type": "address"
        },
        {
          "internalType": "bool",
          "name": "stable",
          "type": "bool"
        }
      ],
      "stateMutability": "view",
      "type": "function"
    },
    {
      "inputs": [
        {
          "internalType": "uint256",
          "name": "",
          "type": "uint256"
        }
      ],
      "name": "outputToLp1Route",
      "outputs": [
        {
          "internalType": "address",
          "name": "from",
          "type": "address"
        },
        {
          "internalType": "address",
          "name": "to",
          "type": "address"
        },
        {
          "internalType": "bool",
          "name": "stable",
          "type": "bool"
        }
      ],
      "stateMutability": "view",
      "type": "function"
    },
    {
      "inputs": [
        {
          "internalType": "uint256",
          "name": "",
          "type": "uint256"
        }
      ],
      "name": "outputToNativeRoute",
      "outputs": [
        {
          "internalType": "address",
          "name": "from",
          "type": "address"
        },
        {
          "internalType": "address",
          "name": "to",
          "type": "address"
        },
        {
          "internalType": "bool",
          "name": "stable",
          "type": "bool"
        }
      ],
      "stateMutability": "view",
      "type": "function"
    },
    {
      "inputs": [],
      "name": "owner",
      "outputs": [
        {
          "internalType": "address",
          "name": "",
          "type": "address"
        }
      ],
      "stateMutability": "view",
      "type": "function"
    },
    {
      "inputs": [],
      "name": "panic",
      "outputs": [],
      "stateMutability": "nonpayable",
      "type": "function"
    },
    {
      "inputs": [],
      "name": "pause",
      "outputs": [],
      "stateMutability": "nonpayable",
      "type": "function"
    },
    {
      "inputs": [],
      "name": "paused",
      "outputs": [
        {
          "internalType": "bool",
          "name": "",
          "type": "bool"
        }
      ],
      "stateMutability": "view",
      "type": "function"
    },
    {
      "inputs": [],
      "name": "renounceOwnership",
      "outputs": [],
      "stateMutability": "nonpayable",
      "type": "function"
    },
    {
      "inputs": [],
      "name": "retireStrat",
      "outputs": [],
      "stateMutability": "nonpayable",
      "type": "function"
    },
    {
      "inputs": [
        {
          "internalType": "uint256",
          "name": "",
          "type": "uint256"
        }
      ],
      "name": "rewards",
      "outputs": [
        {
          "internalType": "address",
          "name": "",
          "type": "address"
        }
      ],
      "stateMutability": "view",
      "type": "function"
    },
    {
      "inputs": [],
      "name": "rewardsAvailable",
      "outputs": [
        {
          "internalType": "uint256",
          "name": "",
          "type": "uint256"
        }
      ],
      "stateMutability": "view",
      "type": "function"
    },
    {
      "inputs": [
        {
          "internalType": "bool",
          "name": "_harvestOnDeposit",
          "type": "bool"
        }
      ],
      "name": "setHarvestOnDeposit",
      "outputs": [],
      "stateMutability": "nonpayable",
      "type": "function"
    },
    {
      "inputs": [
        {
          "internalType": "address",
          "name": "_keeper",
          "type": "address"
        }
      ],
      "name": "setKeeper",
      "outputs": [],
      "stateMutability": "nonpayable",
      "type": "function"
    },
    {
      "inputs": [
        {
          "internalType": "address",
          "name": "_strategist",
          "type": "address"
        }
      ],
      "name": "setStrategist",
      "outputs": [],
      "stateMutability": "nonpayable",
      "type": "function"
    },
    {
      "inputs": [
        {
          "internalType": "address",
          "name": "_unirouter",
          "type": "address"
        }
      ],
      "name": "setUnirouter",
      "outputs": [],
      "stateMutability": "nonpayable",
      "type": "function"
    },
    {
      "inputs": [
        {
          "internalType": "address",
          "name": "_vault",
          "type": "address"
        }
      ],
      "name": "setVault",
      "outputs": [],
      "stateMutability": "nonpayable",
      "type": "function"
    },
    {
      "inputs": [],
      "name": "stable",
      "outputs": [
        {
          "internalType": "bool",
          "name": "",
          "type": "bool"
        }
      ],
      "stateMutability": "view",
      "type": "function"
    },
    {
      "inputs": [],
      "name": "strategist",
      "outputs": [
        {
          "internalType": "address",
          "name": "",
          "type": "address"
        }
      ],
      "stateMutability": "view",
      "type": "function"
    },
    {
      "inputs": [
        {
          "internalType": "address",
          "name": "newOwner",
          "type": "address"
        }
      ],
      "name": "transferOwnership",
      "outputs": [],
      "stateMutability": "nonpayable",
      "type": "function"
    },
    {
      "inputs": [],
      "name": "unirouter",
      "outputs": [
        {
          "internalType": "address",
          "name": "",
          "type": "address"
        }
      ],
      "stateMutability": "view",
      "type": "function"
    },
    {
      "inputs": [],
      "name": "unpause",
      "outputs": [],
      "stateMutability": "nonpayable",
      "type": "function"
    },
    {
      "inputs": [],
      "name": "vault",
      "outputs": [
        {
          "internalType": "address",
          "name": "",
          "type": "address"
        }
      ],
      "stateMutability": "view",
      "type": "function"
    },
    {
      "inputs": [],
      "name": "want",
      "outputs": [
        {
          "internalType": "address",
          "name": "",
          "type": "address"
        }
      ],
      "stateMutability": "view",
      "type": "function"
    },
    {
      "inputs": [
        {
          "internalType": "uint256",
          "name": "_amount",
          "type": "uint256"
        }
      ],
      "name": "withdraw",
      "outputs": [],
      "stateMutability": "nonpayable",
      "type": "function"
    }
  ],
  "bytecode": "60806040523480156200001157600080fd5b5060405162002fe838038062002fe8833981016040819052620000349162000152565b8181848660006200004462000130565b600080546001600160a01b0319166001600160a01b0383169081178255604051929350917f8be0079c531659141344cd1fd0a4f28419497f9722a3daafe3b4186f6b6457e0908290a3506000805460ff60a01b19908116909155600180546001600160a01b03199081166001600160a01b0397881617909155600280548216958716959095179094556003805485169386169390931790925560048054841691851691909117905560088054831699841699909917909855600b80548216979092169690961790555050600c805433600160a01b91909616179093169390931790915550620001d89050565b3390565b80516001600160a01b03811681146200014c57600080fd5b92915050565b60008060008060008060c087890312156200016b578182fd5b62000177888862000134565b955062000188886020890162000134565b945062000199886040890162000134565b9350620001aa886060890162000134565b9250620001bb886080890162000134565b9150620001cc8860a0890162000134565b90509295509295509295565b612e0080620001e86000396000f3fe608060405234801561001057600080fd5b506004361061025d5760003560e01c80638456cb5911610146578063d0e30db0116100c3578063f20eaeb811610087578063f20eaeb814610426578063f2fde38b1461042e578063f301af4214610441578063fb61778714610454578063fbfa77cf1461045c578063fd63a887146104645761025d565b8063d0e30db0146103f3578063d92f3d73146103fb578063e7a7250a1461040e578063ec1ebd7a14610416578063f1a392da1461041e5761025d565b8063a6f19c841161010a578063a6f19c84146103b5578063aced1661146103bd578063be12a978146103c5578063c1a3d44c146103d8578063c7b9d530146103e05761025d565b80638456cb591461038d578063877562b6146103955780638912cb8b1461039d5780638da5cb5b146103a55780638e145459146103ad5761025d565b80633f4ba83a116101df5780635ee167c0116101a35780635ee167c01461033c5780636817031b14610344578063715018a614610357578063722713f71461035f578063748747e61461036757806382aa916e1461037a5761025d565b80633f4ba83a146103145780634641257d1461031c5780634700d30514610324578063573fef0a1461032c5780635c975abb146103345761025d565b80631fe4a686116102265780631fe4a686146102ba57806322be3de1146102c2578063257ae0de146102d75780632e1a7d4d146102df57806336c6cf21146102f25761025d565b80624d5de9146102625780630e8fbb5a14610280578063115880861461029557806311b0b42d146102aa5780631f1fcd51146102b2575b600080fd5b61026a610477565b60405161027791906127b3565b60405180910390f35b61029361028e3660046126ae565b610486565b005b61029d6104fa565b6040516102779190612c70565b61026a610580565b61026a61058f565b61026a61059e565b6102ca6105ad565b60405161027791906128c9565b61026a6105bd565b6102936102ed36600461273a565b6105cc565b61030561030036600461273a565b6107d7565b604051610277939291906127e1565b61029361081a565b610293610881565b610293610889565b610293610947565b6102ca610983565b61026a610993565b61029361035236600461247e565b6109a2565b610293610a03565b61029d610a8c565b61029361037536600461247e565b610aa7565b610293610388366004612499565b610b16565b610293610d42565b61026a610d9f565b6102ca610dae565b61026a610dbe565b61026a610dcd565b61026a610ddc565b61026a610deb565b6103056103d336600461273a565b610dfa565b61029d610e07565b6102936103ee36600461247e565b610e38565b610293610e84565b61029361040936600461247e565b610fd9565b61029d61103a565b61029d611074565b61029d611241565b61026a611247565b61029361043c36600461247e565b611256565b61026a61044f36600461273a565b611316565b61029361133d565b61026a6114df565b61030561047236600461273a565b6114ee565b600c546001600160a01b031681565b61048e610dbe565b6001600160a01b0316336001600160a01b031614806104b757506001546001600160a01b031633145b6104dc5760405162461bcd60e51b81526004016104d390612bae565b60405180910390fd5b600c8054911515600160a81b0260ff60a81b19909216919091179055565b600b546040516370a0823160e01b81526000916001600160a01b0316906370a082319061052b9030906004016127b3565b60206040518083038186803b15801561054357600080fd5b505afa158015610557573d6000803e3d6000fd5b505050506040513d601f19601f8201168201806040525081019061057b9190612752565b905090565b6006546001600160a01b031681565b6008546001600160a01b031681565b6002546001600160a01b031681565b600c54600160a01b900460ff1681565b6003546001600160a01b031681565b6004546001600160a01b031633146105f65760405162461bcd60e51b81526004016104d390612af6565b6008546040516370a0823160e01b81526000916001600160a01b0316906370a08231906106279030906004016127b3565b60206040518083038186803b15801561063f57600080fd5b505afa158015610653573d6000803e3d6000fd5b505050506040513d601f19601f820116820180604052508101906106779190612752565b90508181101561076d57600b546001600160a01b0316632e1a7d4d61069c84846114fb565b6040518263ffffffff1660e01b81526004016106b89190612c70565b600060405180830381600087803b1580156106d257600080fd5b505af11580156106e6573d6000803e3d6000fd5b50506008546040516370a0823160e01b81526001600160a01b0390911692506370a08231915061071a9030906004016127b3565b60206040518083038186803b15801561073257600080fd5b505afa158015610746573d6000803e3d6000fd5b505050506040513d601f19601f8201168201806040525081019061076a9190612752565b90505b818111156107785750805b600454600854610795916001600160a01b03918216911683611528565b7f5b6b431d4476a211bb7d41c20d1aab9ae2321deee0d20be3d9fc9b1093fa6e3d6107be610a8c565b6040516107cb9190612c70565b60405180910390a15050565b600f81815481106107e457fe5b6000918252602090912060029091020180546001909101546001600160a01b03918216925090811690600160a01b900460ff1683565b610822610dbe565b6001600160a01b0316336001600160a01b0316148061084b57506001546001600160a01b031633145b6108675760405162461bcd60e51b81526004016104d390612bae565b61086f611583565b6108776115f4565b61087f610e84565b565b61087f6116ac565b610891610dbe565b6001600160a01b0316336001600160a01b031614806108ba57506001546001600160a01b031633145b6108d65760405162461bcd60e51b81526004016104d390612bae565b6108de610d42565b600b546001600160a01b0316632e1a7d4d6108f76104fa565b6040518263ffffffff1660e01b81526004016109139190612c70565b600060405180830381600087803b15801561092d57600080fd5b505af1158015610941573d6000803e3d6000fd5b50505050565b600c54600160a81b900460ff161561087f576004546001600160a01b031633146108815760405162461bcd60e51b81526004016104d390612af6565b600054600160a01b900460ff1690565b6009546001600160a01b031681565b6109aa611826565b6001600160a01b03166109bb610dbe565b6001600160a01b0316146109e15760405162461bcd60e51b81526004016104d390612b16565b600480546001600160a01b0319166001600160a01b0392909216919091179055565b610a0b611826565b6001600160a01b0316610a1c610dbe565b6001600160a01b031614610a425760405162461bcd60e51b81526004016104d390612b16565b600080546040516001600160a01b03909116907f8be0079c531659141344cd1fd0a4f28419497f9722a3daafe3b4186f6b6457e0908390a3600080546001600160a01b0319169055565b600061057b610a996104fa565b610aa1610e07565b9061182a565b610aaf610dbe565b6001600160a01b0316336001600160a01b03161480610ad857506001546001600160a01b031633145b610af45760405162461bcd60e51b81526004016104d390612bae565b600180546001600160a01b0319166001600160a01b0392909216919091179055565b610b1e611826565b6001600160a01b0316610b2f610dbe565b6001600160a01b031614610b555760405162461bcd60e51b81526004016104d390612b16565b600c546001600160a01b0316610b7d5760405162461bcd60e51b81526004016104d390612b4b565b610b9b8482600081518110610b8e57fe5b6020026020010151611856565b610bb98382600181518110610bac57fe5b6020026020010151611963565b610bd78282600281518110610bca57fe5b6020026020010151611a70565b600e600081548110610be557fe5b6000918252602090912060029091020154600780546001600160a01b0319166001600160a01b03909216919091179055600e80546000198101908110610c2757fe5b6000918252602090912060016002909202010154600680546001600160a01b0319166001600160a01b03909216919091179055600f80546000198101908110610c6c57fe5b6000918252602090912060016002909202010154600980546001600160a01b0319166001600160a01b03909216919091179055601080546000198101908110610cb157fe5b6000918252602082206001600290920201810154600a80546001600160a01b03199081166001600160a01b03938416179091556007546011805494850181559094527f31ecc21a745e3968a04e9570e4425bc18fa8019c68028196b546d1669c200c6890920180549092169216919091179055610d2c6115f4565b5050600c80546001600160a01b03191690555050565b610d4a610dbe565b6001600160a01b0316336001600160a01b03161480610d7357506001546001600160a01b031633145b610d8f5760405162461bcd60e51b81526004016104d390612bae565b610d97611b7d565b61087f611bde565b600a546001600160a01b031681565b600c54600160a81b900460ff1681565b6000546001600160a01b031690565b6005546001600160a01b031681565b600b546001600160a01b031681565b6001546001600160a01b031681565b600e81815481106107e457fe5b6008546040516370a0823160e01b81526000916001600160a01b0316906370a082319061052b9030906004016127b3565b6002546001600160a01b03163314610e625760405162461bcd60e51b81526004016104d390612935565b600280546001600160a01b0319166001600160a01b0392909216919091179055565b610e8c610983565b15610ea95760405162461bcd60e51b81526004016104d390612a8b565b6008546040516370a0823160e01b81526000916001600160a01b0316906370a0823190610eda9030906004016127b3565b60206040518083038186803b158015610ef257600080fd5b505afa158015610f06573d6000803e3d6000fd5b505050506040513d601f19601f82011682018060405250810190610f2a9190612752565b90508015610fd657600b54604051631c57762b60e31b81526001600160a01b039091169063e2bbb15890610f65908490600090600401612c79565b600060405180830381600087803b158015610f7f57600080fd5b505af1158015610f93573d6000803e3d6000fd5b505050507f4d6ce1e535dbade1c23defba91e23b8f791ce5edc0cc320257a2b364e4e38426610fc0610a8c565b604051610fcd9190612c70565b60405180910390a15b50565b610fe1611826565b6001600160a01b0316610ff2610dbe565b6001600160a01b0316146110185760405162461bcd60e51b81526004016104d390612b16565b600380546001600160a01b0319166001600160a01b0392909216919091179055565b600b5460075460405163211dc32d60e01b81526000926001600160a01b039081169263211dc32d9261052b929091169030906004016127c7565b6000806000600860009054906101000a90046001600160a01b03166001600160a01b0316630902f1ac6040518163ffffffff1660e01b815260040160606040518083038186803b1580156110c757600080fd5b505afa1580156110db573d6000803e3d6000fd5b505050506040513d601f19601f820116820180604052508101906110ff91906126e6565b506001600160701b031691506001600160701b0316915060006111bc600960009054906101000a90046001600160a01b03166001600160a01b031663313ce5676040518163ffffffff1660e01b815260040160206040518083038186803b15801561116957600080fd5b505afa15801561117d573d6000803e3d6000fd5b505050506040513d601f19601f820116820180604052508101906111a19190612752565b600a0a6111b685670de0b6b3a7640000611c56565b90611c90565b90506000611211600a60009054906101000a90046001600160a01b03166001600160a01b031663313ce5676040518163ffffffff1660e01b815260040160206040518083038186803b15801561116957600080fd5b9050600061121f838361182a565b9050611237816111b685670de0b6b3a7640000611c56565b9550505050505090565b600d5481565b6007546001600160a01b031681565b61125e611826565b6001600160a01b031661126f610dbe565b6001600160a01b0316146112955760405162461bcd60e51b81526004016104d390612b16565b6001600160a01b0381166112bb5760405162461bcd60e51b81526004016104d39061295a565b600080546040516001600160a01b03808516939216917f8be0079c531659141344cd1fd0a4f28419497f9722a3daafe3b4186f6b6457e091a3600080546001600160a01b0319166001600160a01b0392909216919091179055565b6011818154811061132357fe5b6000918252602090912001546001600160a01b0316905081565b6004546001600160a01b031633146113675760405162461bcd60e51b81526004016104d390612af6565b600b546001600160a01b0316632e1a7d4d6113806104fa565b6040518263ffffffff1660e01b815260040161139c9190612c70565b600060405180830381600087803b1580156113b657600080fd5b505af11580156113ca573d6000803e3d6000fd5b50506008546040516370a0823160e01b8152600093506001600160a01b0390911691506370a08231906114019030906004016127b3565b60206040518083038186803b15801561141957600080fd5b505afa15801561142d573d6000803e3d6000fd5b505050506040513d601f19601f820116820180604052508101906114519190612752565b6008546004805460405163a9059cbb60e01b81529394506001600160a01b039283169363a9059cbb93611489939216918691016128b0565b602060405180830381600087803b1580156114a357600080fd5b505af11580156114b7573d6000803e3d6000fd5b505050506040513d601f19601f820116820180604052508101906114db91906126ca565b5050565b6004546001600160a01b031681565b601081815481106107e457fe5b60008282111561151d5760405162461bcd60e51b81526004016104d3906129d7565b508082035b92915050565b61157e8363a9059cbb60e01b84846040516024016115479291906128b0565b60408051601f198184030181529190526020810180516001600160e01b03166001600160e01b031990931692909217909152611cc2565b505050565b61158b610983565b6115a75760405162461bcd60e51b81526004016104d390612907565b6000805460ff60a01b191690557f5db9ee0a495bf2e6ff9c91a7834c1ba4fdd244a5e8aa4e537bd38aeae4b073aa6115dd611826565b6040516115ea91906127b3565b60405180910390a1565b600b54600854611613916001600160a01b039182169116600019611d51565b600354600754611632916001600160a01b039182169116600019611d51565b600354600954611650916001600160a01b0391821691166000611d51565b60035460095461166f916001600160a01b039182169116600019611d51565b600354600a5461168d916001600160a01b0391821691166000611d51565b600354600a5461087f916001600160a01b039182169116600019611d51565b6116b4610983565b156116d15760405162461bcd60e51b81526004016104d390612a8b565b600b546040516331279d3d60e01b81526001600160a01b03909116906331279d3d90611704903090601190600401612854565b600060405180830381600087803b15801561171e57600080fd5b505af1158015611732573d6000803e3d6000fd5b50506007546040516370a0823160e01b8152600093506001600160a01b0390911691506370a08231906117699030906004016127b3565b60206040518083038186803b15801561178157600080fd5b505afa158015611795573d6000803e3d6000fd5b505050506040513d601f19601f820116820180604052508101906117b99190612752565b90508015610fd6576117c9611e14565b60006117d3610e07565b90506117dd610e84565b42600d55337f9bc239f1724cacfb88cb1d66a2dc437467699b68a8c90d7b63110cf4b6f924108261180c610a8c565b60405161181a929190612c79565b60405180910390a25050565b3390565b60008282018381101561184f5760405162461bcd60e51b81526004016104d3906129a0565b9392505050565b60005b825181101561157e57600e604051806060016040528085848151811061187b57fe5b602002602001015160008151811061188f57fe5b60200260200101516001600160a01b031681526020018584815181106118b157fe5b60200260200101516001815181106118c557fe5b60200260200101516001600160a01b031681526020018484815181106118e757fe5b6020908102919091018101511515909152825460018082018555600094855293829020835160029092020180546001600160a01b03199081166001600160a01b039384161782559284015190850180546040909501519490931691161760ff60a01b1916600160a01b9215159290920291909117905501611859565b60005b825181101561157e57600f604051806060016040528085848151811061198857fe5b602002602001015160008151811061199c57fe5b60200260200101516001600160a01b031681526020018584815181106119be57fe5b60200260200101516001815181106119d257fe5b60200260200101516001600160a01b031681526020018484815181106119f457fe5b6020908102919091018101511515909152825460018082018555600094855293829020835160029092020180546001600160a01b03199081166001600160a01b039384161782559284015190850180546040909501519490931691161760ff60a01b1916600160a01b9215159290920291909117905501611966565b60005b825181101561157e5760106040518060600160405280858481518110611a9557fe5b6020026020010151600081518110611aa957fe5b60200260200101516001600160a01b03168152602001858481518110611acb57fe5b6020026020010151600181518110611adf57fe5b60200260200101516001600160a01b03168152602001848481518110611b0157fe5b6020908102919091018101511515909152825460018082018555600094855293829020835160029092020180546001600160a01b03199081166001600160a01b039384161782559284015190850180546040909501519490931691161760ff60a01b1916600160a01b9215159290920291909117905501611a73565b611b85610983565b15611ba25760405162461bcd60e51b81526004016104d390612a8b565b6000805460ff60a01b1916600160a01b1790557f62e78cea01bee320cd4e420270b5ea74000d11b0c9f74754ebdbfc544b05a2586115dd611826565b600b54600854611bfc916001600160a01b0391821691166000611d51565b600354600754611c1a916001600160a01b0391821691166000611d51565b600354600954611c38916001600160a01b0391821691166000611d51565b600354600a5461087f916001600160a01b0391821691166000611d51565b600082611c6557506000611522565b82820282848281611c7257fe5b041461184f5760405162461bcd60e51b81526004016104d390612ab5565b6000808211611cb15760405162461bcd60e51b81526004016104d390612a54565b818381611cba57fe5b049392505050565b6060611d17826040518060400160405280602081526020017f5361666545524332303a206c6f772d6c6576656c2063616c6c206661696c6564815250856001600160a01b031661227a9092919063ffffffff16565b80519091501561157e5780806020019051810190611d3591906126ca565b61157e5760405162461bcd60e51b81526004016104d390612bd0565b801580611dd95750604051636eb1769f60e11b81526001600160a01b0384169063dd62ed3e90611d8790309086906004016127c7565b60206040518083038186803b158015611d9f57600080fd5b505afa158015611db3573d6000803e3d6000fd5b505050506040513d601f19601f82011682018060405250810190611dd79190612752565b155b611df55760405162461bcd60e51b81526004016104d390612c1a565b61157e8363095ea7b360e01b84846040516024016115479291906128b0565b600c546000908190600160a01b900460ff1615611ee0576007546040516370a0823160e01b81526000916001600160a01b0316906370a0823190611e5c9030906004016127b3565b60206040518083038186803b158015611e7457600080fd5b505afa158015611e88573d6000803e3d6000fd5b505050506040513d601f19601f82011682018060405250810190611eac9190612752565b9050611ecc670de0b6b3a76400006111b6611ec5611074565b8490611c56565b9250611ed881846114fb565b915050611f6d565b6007546040516370a0823160e01b8152611f67916002916001600160a01b03909116906370a0823190611f179030906004016127b3565b60206040518083038186803b158015611f2f57600080fd5b505afa158015611f43573d6000803e3d6000fd5b505050506040513d601f19601f820116820180604052508101906111b69190612752565b91508190505b6007546009546001600160a01b0390811691161461201757600354604051631e82ecdb60e31b81526001600160a01b039091169063f41766d890611fbf908590600090600f9030904290600401612c87565b600060405180830381600087803b158015611fd957600080fd5b505af1158015611fed573d6000803e3d6000fd5b505050506040513d6000823e601f3d908101601f19168201604052612015919081019061261e565b505b600754600a546001600160a01b039081169116146120c157600354604051631e82ecdb60e31b81526001600160a01b039091169063f41766d89061206990849060009060109030904290600401612c87565b600060405180830381600087803b15801561208357600080fd5b505af1158015612097573d6000803e3d6000fd5b505050506040513d6000823e601f3d908101601f191682016040526120bf919081019061261e565b505b6009546040516370a0823160e01b81526000916001600160a01b0316906370a08231906120f29030906004016127b3565b60206040518083038186803b15801561210a57600080fd5b505afa15801561211e573d6000803e3d6000fd5b505050506040513d601f19601f820116820180604052508101906121429190612752565b600a546040516370a0823160e01b81529192506000916001600160a01b03909116906370a08231906121789030906004016127b3565b60206040518083038186803b15801561219057600080fd5b505afa1580156121a4573d6000803e3d6000fd5b505050506040513d601f19601f820116820180604052508101906121c89190612752565b600354600954600a54600c54604051635a47ddc360e01b81529495506001600160a01b0393841694635a47ddc39461221f948116931691600160a01b900460ff169088908890600190819030904290600401612805565b606060405180830381600087803b15801561223957600080fd5b505af115801561224d573d6000803e3d6000fd5b505050506040513d601f19601f82011682018060405250810190612271919061276a565b50505050505050565b60606122898484600085612291565b949350505050565b6060824710156122b35760405162461bcd60e51b81526004016104d390612a0e565b6122bc85612352565b6122d85760405162461bcd60e51b81526004016104d390612b77565b60006060866001600160a01b031685876040516122f59190612797565b60006040518083038185875af1925050503d8060008114612332576040519150601f19603f3d011682016040523d82523d6000602084013e612337565b606091505b5091509150612347828286612358565b979650505050505050565b3b151590565b6060831561236757508161184f565b8251156123775782518084602001fd5b8160405162461bcd60e51b81526004016104d391906128d4565b80356001600160a01b038116811461152257600080fd5b600082601f8301126123b8578081fd5b81356123cb6123c682612d4f565b612d28565b818152915060208083019084810160005b84811015612468578135870188603f8201126123f757600080fd5b838101356124076123c682612d4f565b818152858101906040848101888502860182018e101561242657600080fd5b600095505b848610156124515761243d8e82612391565b84526001959095019492880192880161242b565b5050875250505092820192908201906001016123dc565b505050505092915050565b803561152281612da7565b60006020828403121561248f578081fd5b61184f8383612391565b600080600080608085870312156124ae578283fd5b67ffffffffffffffff853511156124c3578283fd5b6124d086863587016123a8565b935067ffffffffffffffff602086013511156124ea578283fd5b6124fa86602087013587016123a8565b925067ffffffffffffffff60408601351115612514578182fd5b61252486604087013587016123a8565b915067ffffffffffffffff6060860135111561253e578081fd5b6060850135850186601f820112612553578182fd5b6125606123c68235612d4f565b81358152602080820191908301845b843581101561260d578a603f833587010112612589578586fd5b61259c6123c66020843588010135612d4f565b8235860160208181013580845281840193926040808201939290920201018e10156125c5578889fd5b885b602086358a0101358110156125f5576125e08f83612473565b845260209384019391909101906001016125c7565b5050855250602093840193919091019060010161256f565b505080935050505092959194509250565b60006020808385031215612630578182fd5b825167ffffffffffffffff811115612646578283fd5b8301601f81018513612656578283fd5b80516126646123c682612d4f565b8181528381019083850185840285018601891015612680578687fd5b8694505b838510156126a2578051835260019490940193918501918501612684565b50979650505050505050565b6000602082840312156126bf578081fd5b813561184f81612da7565b6000602082840312156126db578081fd5b815161184f81612da7565b6000806000606084860312156126fa578283fd5b835161270581612db5565b602085015190935061271681612db5565b604085015190925063ffffffff8116811461272f578182fd5b809150509250925092565b60006020828403121561274b578081fd5b5035919050565b600060208284031215612763578081fd5b5051919050565b60008060006060848603121561277e578283fd5b8351925060208401519150604084015190509250925092565b600082516127a9818460208701612d7b565b9190910192915050565b6001600160a01b0391909116815260200190565b6001600160a01b0392831681529116602082015260400190565b6001600160a01b039384168152919092166020820152901515604082015260600190565b6001600160a01b03998a168152978916602089015295151560408801526060870194909452608086019290925260a085015260c084015290921660e08201526101008101919091526101200190565b60006040820160018060a01b03808616845260206040818601528286548085526060870191508786528286209450855b818110156128a2578554851683526001958601959284019201612884565b509098975050505050505050565b6001600160a01b03929092168252602082015260400190565b901515815260200190565b60006020825282518060208401526128f3816040850160208701612d7b565b601f01601f19169190910160400192915050565b60208082526014908201527314185d5cd8589b194e881b9bdd081c185d5cd95960621b604082015260600190565b6020808252600b908201526a085cdd1c985d1959da5cdd60aa1b604082015260600190565b60208082526026908201527f4f776e61626c653a206e6577206f776e657220697320746865207a65726f206160408201526564647265737360d01b606082015260800190565b6020808252601b908201527f536166654d6174683a206164646974696f6e206f766572666c6f770000000000604082015260600190565b6020808252601e908201527f536166654d6174683a207375627472616374696f6e206f766572666c6f770000604082015260600190565b60208082526026908201527f416464726573733a20696e73756666696369656e742062616c616e636520666f6040820152651c8818d85b1b60d21b606082015260800190565b6020808252601a908201527f536166654d6174683a206469766973696f6e206279207a65726f000000000000604082015260600190565b60208082526010908201526f14185d5cd8589b194e881c185d5cd95960821b604082015260600190565b60208082526021908201527f536166654d6174683a206d756c7469706c69636174696f6e206f766572666c6f6040820152607760f81b606082015260800190565b602080825260069082015265085d985d5b1d60d21b604082015260600190565b6020808252818101527f4f776e61626c653a2063616c6c6572206973206e6f7420746865206f776e6572604082015260600190565b602080825260129082015271105b1c9958591e48125b9d1a585b1a5e995960721b604082015260600190565b6020808252601d908201527f416464726573733a2063616c6c20746f206e6f6e2d636f6e7472616374000000604082015260600190565b60208082526008908201526710b6b0b730b3b2b960c11b604082015260600190565b6020808252602a908201527f5361666545524332303a204552433230206f7065726174696f6e20646964206e6040820152691bdd081cdd58d8d9595960b21b606082015260800190565b60208082526036908201527f5361666545524332303a20617070726f76652066726f6d206e6f6e2d7a65726f60408201527520746f206e6f6e2d7a65726f20616c6c6f77616e636560501b606082015260800190565b90815260200190565b918252602082015260400190565b600060a0808301888452602088818601526040838187015282895480855260c0880191508a87528387209450865b81811015612d005785546001600160a01b0390612cd3908216612d6f565b84526001878101549182168786015290881c60ff1615158585015260029096019560609093019201612cb5565b50506001600160a01b0398909816606087015250505050608090910191909152509392505050565b60405181810167ffffffffffffffff81118282101715612d4757600080fd5b604052919050565b600067ffffffffffffffff821115612d65578081fd5b5060209081020190565b6001600160a01b031690565b60005b83811015612d96578181015183820152602001612d7e565b838111156109415750506000910152565b8015158114610fd657600080fd5b6001600160701b0381168114610fd657600080fdfea2646970667358221220805c9f606363c8800b2ccd5f951ac4dc498196babd00e1d3ea106a00ca92c5c864736f6c634300060c0033",
  "bytecodeSha1": "5fd4887622b321ede9a1eb44e031397996d2c15e",
  "compiler": {
    "evm_version": "istanbul",
    "optimizer": {
      "enabled": true,
      "runs": 200
    },
    "version": "0.6.12+commit.27d51765"
  },
  "contractName": "StrategyCommonSolidlyGaugeLP",
  "language": "Solidity",
  "natspec": {
    "kind": "dev",
    "methods": {
      "beforeDeposit()": {
        "details": "Function to synchronize balances before new user deposit. Can be overridden in the strategy."
      },
      "owner()": {
        "details": "Returns the address of the current owner."
      },
      "paused()": {
        "details": "Returns true if the contract is paused, and false otherwise."
      },
      "renounceOwnership()": {
        "details": "Leaves the contract without owner. It will not be possible to call `onlyOwner` functions anymore. Can only be called by the current owner. NOTE: Renouncing ownership will leave the contract without an owner, thereby removing any functionality that is only available to the owner."
      },
      "setKeeper(address)": {
        "details": "Updates address of the strat keeper.",
        "params": {
          "_keeper": "new keeper address."
        }
      },
      "setStrategist(address)": {
        "details": "Updates address where strategist fee earnings will go.",
        "params": {
          "_strategist": "new strategist address."
        }
      },
      "setUnirouter(address)": {
        "details": "Updates router that will be used for swaps.",
        "params": {
          "_unirouter": "new unirouter address."
        }
      },
      "setVault(address)": {
        "details": "Updates parent vault.",
        "params": {
          "_vault": "new vault address."
        }
      },
      "transferOwnership(address)": {
        "details": "Transfers ownership of the contract to a new account (`newOwner`). Can only be called by the current owner."
      }
    },
    "version": 1
  },
  "opcodes": "PUSH1 0x80 PUSH1 0x40 MSTORE CALLVALUE DUP1 ISZERO PUSH2 0x10 JUMPI PUSH1 0x0 DUP1 REVERT JUMPDEST POP PUSH1 0x4 CALLDATASIZE LT PUSH2 0x25D JUMPI PUSH1 0x0 CALLDATALOAD PUSH1 0xE0 SHR DUP1 PUSH4 0x8456CB59 GT PUSH2 0x146 JUMPI DUP1 PUSH4 0xD0E30DB0 GT PUSH2 0xC3 JUMPI DUP1 PUSH4 0xF20EAEB8 GT PUSH2 0x87 JUMPI DUP1 PUSH4 0xF20EAEB8 EQ PUSH2 0x426 JUMPI DUP1 PUSH4 0xF2FDE38B EQ PUSH2 0x42E JUMPI DUP1 PUSH4 0xF301AF42 EQ PUSH2 0x441 JUMPI DUP1 PUSH4 0xFB617787 EQ PUSH2 0x454 JUMPI DUP1 PUSH4 0xFBFA77CF EQ PUSH2 0x45C JUMPI DUP1 PUSH4 0xFD63A887 EQ PUSH2 0x464 JUMPI PUSH2 0x25D JUMP JUMPDEST DUP1 PUSH4 0xD0E30DB0 EQ PUSH2 0x3F3 JUMPI DUP1 PUSH4 0xD92F3D73 EQ PUSH2 0x3FB JUMPI DUP1 PUSH4 0xE7A7250A EQ PUSH2 0x40E JUMPI DUP1 PUSH4 0xEC1EBD7A EQ PUSH2 0x416 JUMPI DUP1 PUSH4 0xF1A392DA EQ PUSH2 0x41E JUMPI PUSH2 0x25D JUMP JUMPDEST DUP1 PUSH4 0xA6F19C84 GT PUSH2 0x10A JUMPI DUP1 PUSH4 0xA6F19C84 EQ PUSH2 0x3B5 JUMPI DUP1 PUSH4 0xACED1661 EQ PUSH2 0x3BD JUMPI DUP1 PUSH4 0xBE12A978 EQ PUSH2 0x3C5 JUMPI DUP1 PUSH4 0xC1A3D44C EQ PUSH2 0x3D8 JUMPI DUP1 PUSH4 0xC7B9D530 EQ PUSH2 0x3E0 JUMPI PUSH2 0x25D JUMP JUMPDEST DUP1 PUSH4 0x8456CB59 EQ PUSH2 0x38D JUMPI DUP1 PUSH4 0x877562B6 EQ PUSH2 0x395 JUMPI DUP1 PUSH4 0x8912CB8B EQ PUSH2 0x39D JUMPI DUP1 PUSH4 0x8DA5CB5B EQ PUSH2 0x3A5 JUMPI DUP1 PUSH4 0x8E145459 EQ PUSH2 0x3AD JUMPI PUSH2 0x25D JUMP JUMPDEST DUP1 PUSH4 0x3F4BA83A GT PUSH2 0x1DF JUMPI DUP1 PUSH4 0x5EE167C0 GT PUSH2 0x1A3 JUMPI DUP1 PUSH4 0x5EE167C0 EQ PUSH2 0x33C JUMPI DUP1 PUSH4 0x6817031B EQ PUSH2 0x344 JUMPI DUP1 PUSH4 0x715018A6 EQ PUSH2 0x357 JUMPI DUP1 PUSH4 0x722713F7 EQ PUSH2 0x35F JUMPI DUP1 PUSH4 0x748747E6 EQ PUSH2 0x367 JUMPI DUP1 PUSH4 0x82AA916E EQ PUSH2 0x37A JUMPI PUSH2 0x25D JUMP JUMPDEST DUP1 PUSH4 0x3F4BA83A EQ PUSH2 0x314 JUMPI DUP1 PUSH4 0x4641257D EQ PUSH2 0x31C JUMPI DUP1 PUSH4 0x4700D305 EQ PUSH2 0x324 JUMPI DUP1 PUSH4 0x573FEF0A EQ PUSH2 0x32C JUMPI DUP1 PUSH4 0x5C975ABB EQ PUSH2 0x334 JUMPI PUSH2 0x25D JUMP JUMPDEST DUP1 PUSH4 0x1FE4A686 GT PUSH2 0x226 JUMPI DUP1 PUSH4 0x1FE4A686 EQ PUSH2 0x2BA JUMPI DUP1 PUSH4 0x22BE3DE1 EQ PUSH2 0x2C2 JUMPI DUP1 PUSH4 0x257AE0DE EQ PUSH2 0x2D7 JUMPI DUP1 PUSH4 0x2E1A7D4D EQ PUSH2 0x2DF JUMPI DUP1 PUSH4 0x36C6CF21 EQ PUSH2 0x2F2 JUMPI PUSH2 0x25D JUMP JUMPDEST DUP1 PUSH3 0x4D5DE9 EQ PUSH2 0x262 JUMPI DUP1 PUSH4 0xE8FBB5A EQ PUSH2 0x280 JUMPI DUP1 PUSH4 0x11588086 EQ PUSH2 0x295 JUMPI DUP1 PUSH4 0x11B0B42D EQ PUSH2 0x2AA JUMPI DUP1 PUSH4 0x1F1FCD51 EQ PUSH2 0x2B2 JUMPI JUMPDEST PUSH1 0x0 DUP1 REVERT JUMPDEST PUSH2 0x26A PUSH2 0x477 JUMP JUMPDEST PUSH1 0x40 MLOAD PUSH2 0x277 SWAP2 SWAP1 PUSH2 0x27B3 JUMP JUMPDEST PUSH1 0x40 MLOAD DUP1 SWAP2 SUB SWAP1 RETURN JUMPDEST PUSH2 0x293 PUSH2 0x28E CALLDATASIZE PUSH1 0x4 PUSH2 0x26AE JUMP JUMPDEST PUSH2 0x486 JUMP JUMPDEST STOP JUMPDEST PUSH2 0x29D PUSH2 0x4FA JUMP JUMPDEST PUSH1 0x40 MLOAD PUSH2 0x277 SWAP2 SWAP1 PUSH2 0x2C70 JUMP JUMPDEST PUSH2 0x26A PUSH2 0x580 JUMP JUMPDEST PUSH2 0x26A PUSH2 0x58F JUMP JUMPDEST PUSH2 0x26A PUSH2 0x59E JUMP JUMPDEST PUSH2 0x2CA PUSH2 0x5AD JUMP JUMPDEST PUSH1 0x40 MLOAD PUSH2 0x277 SWAP2 SWAP1 PUSH2 0x28C9 JUMP JUMPDEST PUSH2 0x26A PUSH2 0x5BD JUMP JUMPDEST PUSH2 0x293 PUSH2 0x2ED CALLDATASIZE PUSH1 0x4 PUSH2 0x273A JUMP JUMPDEST PUSH2 0x5CC JUMP JUMPDEST PUSH2 0x305 PUSH2 0x300 CALLDATASIZE PUSH1 0x4 PUSH2 0x273A JUMP JUMPDEST PUSH2 0x7D7 JUMP JUMPDEST PUSH1 0x40 MLOAD PUSH2 0x277 SWAP4 SWAP3 SWAP2 SWAP1 PUSH2 0x27E1 JUMP JUMPDEST PUSH2 0x293 PUSH2 0x81A JUMP JUMPDEST PUSH2 0x293 PUSH2 0x881 JUMP JUMPDEST PUSH2 0x293 PUSH2 0x889 JUMP JUMPDEST PUSH2 0x293 PUSH2 0x947 JUMP JUMPDEST PUSH2 0x2CA PUSH2 0x983 JUMP JUMPDEST PUSH2 0x26A PUSH2 0x993 JUMP JUMPDEST PUSH2 0x293 PUSH2 0x352 CALLDATASIZE PUSH1 0x4 PUSH2 0x247E JUMP JUMPDEST PUSH2 0x9A2 JUMP JUMPDEST PUSH2 0x293 PUSH2 0xA03 JUMP JUMPDEST PUSH2 0x29D PUSH2 0xA8C JUMP JUMPDEST PUSH2 0x293 PUSH2 0x375 CALLDATASIZE PUSH1 0x4 PUSH2 0x247E JUMP JUMPDEST PUSH2 0xAA7 JUMP JUMPDEST PUSH2 0x293 PUSH2 0x388 CALLDATASIZE PUSH1 0x4 PUSH2 0x2499 JUMP JUMPDEST PUSH2 0xB16 JUMP JUMPDEST PUSH2 0x293 PUSH2 0xD42 JUMP JUMPDEST PUSH2 0x26A PUSH2 0xD9F JUMP JUMPDEST PUSH2 0x2CA PUSH2 0xDAE JUMP JUMPDEST PUSH2 0x26A PUSH2 0xDBE JUMP JUMPDEST PUSH2 0x26A PUSH2 0xDCD JUMP JUMPDEST PUSH2 0x26A PUSH2 0xDDC JUMP JUMPDEST PUSH2 0x26A PUSH2 0xDEB JUMP JUMPDEST PUSH2 0x305 PUSH2 0x3D3 CALLDATASIZE PUSH1 0x4 PUSH2 0x273A JUMP JUMPDEST PUSH2 0xDFA JUMP JUMPDEST PUSH2 0x29D PUSH2 0xE07 JUMP JUMPDEST PUSH2 0x293 PUSH2 0x3EE CALLDATASIZE PUSH1 0x4 PUSH2 0x247E JUMP JUMPDEST PUSH2 0xE38 JUMP JUMPDEST PUSH2 0x293 PUSH2 0xE84 JUMP JUMPDEST PUSH2 0x293 PUSH2 0x409 CALLDATASIZE PUSH1 0x4 PUSH2 0x247E JUMP JUMPDEST PUSH2 0xFD9 JUMP JUMPDEST PUSH2 0x29D PUSH2 0x103A JUMP JUMPDEST PUSH2 0x29D PUSH2 0x1074 JUMP JUMPDEST PUSH2 0x29D PUSH2 0x1241 JUMP JUMPDEST PUSH2 0x26A PUSH2 0x1247 JUMP JUMPDEST PUSH2 0x293 PUSH2 0x43C CALLDATASIZE PUSH1 0x4 PUSH2 0x247E JUMP JUMPDEST PUSH2 0x1256 JUMP JUMPDEST PUSH2 0x26A PUSH2 0x44F CALLDATASIZE PUSH1 0x4 PUSH2 0x273A JUMP JUMPDEST PUSH2 0x1316 JUMP JUMPDEST PUSH2 0x293 PUSH2 0x133D JUMP JUMPDEST PUSH2 0x26A PUSH2 0x14DF JUMP JUMPDEST PUSH2 0x305 PUSH2 0x472 CALLDATASIZE PUSH1 0x4 PUSH2 0x273A JUMP JUMPDEST PUSH2 0x14EE JUMP JUMPDEST PUSH1 0xC SLOAD PUSH1 0x1 PUSH1 0x1 PUSH1 0xA0 SHL SUB AND DUP2 JUMP JUMPDEST PUSH2 0x48E PUSH2 0xDBE JUMP JUMPDEST PUSH1 0x1 PUSH1 0x1 PUSH1 0xA0 SHL SUB AND CALLER PUSH1 0x1 PUSH1 0x1 PUSH1 0xA0 SHL SUB AND EQ DUP1 PUSH2 0x4B7 JUMPI POP PUSH1 0x1 SLOAD PUSH1 0x1 PUSH1 0x1 PUSH1 0xA0 SHL SUB AND CALLER EQ JUMPDEST PUSH2 0x4DC JUMPI PUSH1 0x40 MLOAD PUSH3 0x461BCD PUSH1 0xE5 SHL DUP2 MSTORE PUSH1 0x4 ADD PUSH2 0x4D3 SWAP1 PUSH2 0x2BAE JUMP JUMPDEST PUSH1 0x40 MLOAD DUP1 SWAP2 SUB SWAP1 REVERT JUMPDEST PUSH1 0xC DUP1 SLOAD SWAP2 ISZERO ISZERO PUSH1 0x1 PUSH1 0xA8 SHL MUL PUSH1 0xFF PUSH1 0xA8 SHL NOT SWAP1 SWAP3 AND SWAP2 SWAP1 SWAP2 OR SWAP1 SSTORE JUMP JUMPDEST PUSH1 0xB SLOAD PUSH1 0x40 MLOAD PUSH4 0x70A08231 PUSH1 0xE0 SHL DUP2 MSTORE PUSH1 0x0 SWAP2 PUSH1 0x1 PUSH1 0x1 PUSH1 0xA0 SHL SUB AND SWAP1 PUSH4 0x70A08231 SWAP1 PUSH2 0x52B SWAP1 ADDRESS SWAP1 PUSH1 0x4 ADD PUSH2 0x27B3 JUMP JUMPDEST PUSH1 0x20 PUSH1 0x40 MLOAD DUP1 DUP4 SUB DUP2 DUP7 DUP1 EXTCODESIZE ISZERO DUP1 ISZERO PUSH2 0x543 JUMPI PUSH1 0x0 DUP1 REVERT JUMPDEST POP GAS STATICCALL ISZERO DUP1 ISZERO PUSH2 0x557 JUMPI RETURNDATASIZE PUSH1 0x0 DUP1 RETURNDATACOPY RETURNDATASIZE PUSH1 0x0 REVERT JUMPDEST POP POP POP POP PUSH1 0x40 MLOAD RETURNDATASIZE PUSH1 0x1F NOT PUSH1 0x1F DUP3 ADD AND DUP3 ADD DUP1 PUSH1 0x40 MSTORE POP DUP2 ADD SWAP1 PUSH2 0x57B SWAP2 SWAP1 PUSH2 0x2752 JUMP JUMPDEST SWAP1 POP SWAP1 JUMP JUMPDEST PUSH1 0x6 SLOAD PUSH1 0x1 PUSH1 0x1 PUSH1 0xA0 SHL SUB AND DUP2 JUMP JUMPDEST PUSH1 0x8 SLOAD PUSH1 0x1 PUSH1 0x1 PUSH1 0xA0 SHL SUB AND DUP2 JUMP JUMPDEST PUSH1 0x2 SLOAD PUSH1 0x1 PUSH1 0x1 PUSH1 0xA0 SHL SUB AND DUP2 JUMP JUMPDEST PUSH1 0xC SLOAD PUSH1 0x1 PUSH1 0xA0 SHL SWAP1 DIV PUSH1 0xFF AND DUP2 JUMP JUMPDEST PUSH1 0x3 SLOAD PUSH1 0x1 PUSH1 0x1 PUSH1 0xA0 SHL SUB AND DUP2 JUMP JUMPDEST PUSH1 0x4 SLOAD PUSH1 0x1 PUSH1 0x1 PUSH1 0xA0 SHL SUB AND CALLER EQ PUSH2 0x5F6 JUMPI PUSH1 0x40 MLOAD PUSH3 0x461BCD PUSH1 0xE5 SHL DUP2 MSTORE PUSH1 0x4 ADD PUSH2 0x4D3 SWAP1 PUSH2 0x2AF6 JUMP JUMPDEST PUSH1 0x8 SLOAD PUSH1 0x40 MLOAD PUSH4 0x70A08231 PUSH1 0xE0 SHL DUP2 MSTORE PUSH1 0x0 SWAP2 PUSH1 0x1 PUSH1 0x1 PUSH1 0xA0 SHL SUB AND SWAP1 PUSH4 0x70A08231 SWAP1 PUSH2 0x627 SWAP1 ADDRESS SWAP1 PUSH1 0x4 ADD PUSH2 0x27B3 JUMP JUMPDEST PUSH1 0x20 PUSH1 0x40 MLOAD DUP1 DUP4 SUB DUP2 DUP7 DUP1 EXTCODESIZE ISZERO DUP1 ISZERO PUSH2 0x63F JUMPI PUSH1 0x0 DUP1 REVERT JUMPDEST POP GAS STATICCALL ISZERO DUP1 ISZERO PUSH2 0x653 JUMPI RETURNDATASIZE PUSH1 0x0 DUP1 RETURNDATACOPY RETURNDATASIZE PUSH1 0x0 REVERT JUMPDEST POP POP POP POP PUSH1 0x40 MLOAD RETURNDATASIZE PUSH1 0x1F NOT PUSH1 0x1F DUP3 ADD AND DUP3 ADD DUP1 PUSH1 0x40 MSTORE POP DUP2 ADD SWAP1 PUSH2 0x677 SWAP2 SWAP1 PUSH2 0x2752 JUMP JUMPDEST SWAP1 POP DUP2 DUP2 LT ISZERO PUSH2 0x76D JUMPI PUSH1 0xB SLOAD PUSH1 0x1 PUSH1 0x1 PUSH1 0xA0 SHL SUB AND PUSH4 0x2E1A7D4D PUSH2 0x69C DUP5 DUP5 PUSH2 0x14FB JUMP JUMPDEST PUSH1 0x40 MLOAD DUP3 PUSH4 0xFFFFFFFF AND PUSH1 0xE0 SHL DUP2 MSTORE PUSH1 0x4 ADD PUSH2 0x6B8 SWAP2 SWAP1 PUSH2 0x2C70 JUMP JUMPDEST PUSH1 0x0 PUSH1 0x40 MLOAD DUP1 DUP4 SUB DUP2 PUSH1 0x0 DUP8 DUP1 EXTCODESIZE ISZERO DUP1 ISZERO PUSH2 0x6D2 JUMPI PUSH1 0x0 DUP1 REVERT JUMPDEST POP GAS CALL ISZERO DUP1 ISZERO PUSH2 0x6E6 JUMPI RETURNDATASIZE PUSH1 0x0 DUP1 RETURNDATACOPY RETURNDATASIZE PUSH1 0x0 REVERT JUMPDEST POP POP PUSH1 0x8 SLOAD PUSH1 0x40 MLOAD PUSH4 0x70A08231 PUSH1 0xE0 SHL DUP2 MSTORE PUSH1 0x1 PUSH1 0x1 PUSH1 0xA0 SHL SUB SWAP1 SWAP2 AND SWAP3 POP PUSH4 0x70A08231 SWAP2 POP PUSH2 0x71A SWAP1 ADDRESS SWAP1 PUSH1 0x4 ADD PUSH2 0x27B3 JUMP JUMPDEST PUSH1 0x20 PUSH1 0x40 MLOAD DUP1 DUP4 SUB DUP2 DUP7 DUP1 EXTCODESIZE ISZERO DUP1 ISZERO PUSH2 0x732 JUMPI PUSH1 0x0 DUP1 REVERT JUMPDEST POP GAS STATICCALL ISZERO DUP1 ISZERO PUSH2 0x746 JUMPI RETURNDATASIZE PUSH1 0x0 DUP1 RETURNDATACOPY RETURNDATASIZE PUSH1 0x0 REVERT JUMPDEST POP POP POP POP PUSH1 0x40 MLOAD RETURNDATASIZE PUSH1 0x1F NOT PUSH1 0x1F DUP3 ADD AND DUP3 ADD DUP1 PUSH1 0x40 MSTORE POP DUP2 ADD SWAP1 PUSH2 0x76A SWAP2 SWAP1 PUSH2 0x2752 JUMP JUMPDEST SWAP1 POP JUMPDEST DUP2 DUP2 GT ISZERO PUSH2 0x778 JUMPI POP DUP1 JUMPDEST PUSH1 0x4 SLOAD PUSH1 0x8 SLOAD PUSH2 0x795 SWAP2 PUSH1 0x1 PUSH1 0x1 PUSH1 0xA0 SHL SUB SWAP2 DUP3 AND SWAP2 AND DUP4 PUSH2 0x1528 JUMP JUMPDEST PUSH32 0x5B6B431D4476A211BB7D41C20D1AAB9AE2321DEEE0D20BE3D9FC9B1093FA6E3D PUSH2 0x7BE PUSH2 0xA8C JUMP JUMPDEST PUSH1 0x40 MLOAD PUSH2 0x7CB SWAP2 SWAP1 PUSH2 0x2C70 JUMP JUMPDEST PUSH1 0x40 MLOAD DUP1 SWAP2 SUB SWAP1 LOG1 POP POP JUMP JUMPDEST PUSH1 0xF DUP2 DUP2 SLOAD DUP2 LT PUSH2 0x7E4 JUMPI INVALID JUMPDEST PUSH1 0x0 SWAP2 DUP3 MSTORE PUSH1 0x20 SWAP1 SWAP2 KECCAK256 PUSH1 0x2 SWAP1 SWAP2 MUL ADD DUP1 SLOAD PUSH1 0x1 SWAP1 SWAP2 ADD SLOAD PUSH1 0x1 PUSH1 0x1 PUSH1 0xA0 SHL SUB SWAP2 DUP3 AND SWAP3 POP SWAP1 DUP2 AND SWAP1 PUSH1 0x1 PUSH1 0xA0 SHL SWAP1 DIV PUSH1 0xFF AND DUP4 JUMP JUMPDEST PUSH2 0x822 PUSH2 0xDBE JUMP JUMPDEST PUSH1 0x1 PUSH1 0x1 PUSH1 0xA0 SHL SUB AND CALLER PUSH1 0x1 PUSH1 0x1 PUSH1 0xA0 SHL SUB AND EQ DUP1 PUSH2 0x84B JUMPI POP PUSH1 0x1 SLOAD PUSH1 0x1 PUSH1 0x1 PUSH1 0xA0 SHL SUB AND CALLER EQ JUMPDEST PUSH2 0x867 JUMPI PUSH1 0x40 MLOAD PUSH3 0x461BCD PUSH1 0xE5 SHL DUP2 MSTORE PUSH1 0x4 ADD PUSH2 0x4D3 SWAP1 PUSH2 0x2BAE JUMP JUMPDEST PUSH2 0x86F PUSH2 0x1583 JUMP JUMPDEST PUSH2 0x877 PUSH2 0x15F4 JUMP JUMPDEST PUSH2 0x87F PUSH2 0xE84 JUMP JUMPDEST JUMP JUMPDEST PUSH2 0x87F PUSH2 0x16AC JUMP JUMPDEST PUSH2 0x891 PUSH2 0xDBE JUMP JUMPDEST PUSH1 0x1 PUSH1 0x1 PUSH1 0xA0 SHL SUB AND CALLER PUSH1 0x1 PUSH1 0x1 PUSH1 0xA0 SHL SUB AND EQ DUP1 PUSH2 0x8BA JUMPI POP PUSH1 0x1 SLOAD PUSH1 0x1 PUSH1 0x1 PUSH1 0xA0 SHL SUB AND CALLER EQ JUMPDEST PUSH2 0x8D6 JUMPI PUSH1 0x40 MLOAD PUSH3 0x461BCD PUSH1 0xE5 SHL DUP2 MSTORE PUSH1 0x4 ADD PUSH2 0x4D3 SWAP1 PUSH2 0x2BAE JUMP JUMPDEST PUSH2 0x8DE PUSH2 0xD42 JUMP JUMPDEST PUSH1 0xB SLOAD PUSH1 0x1 PUSH1 0x1 PUSH1 0xA0 SHL SUB AND PUSH4 0x2E1A7D4D PUSH2 0x8F7 PUSH2 0x4FA JUMP JUMPDEST PUSH1 0x40 MLOAD DUP3 PUSH4 0xFFFFFFFF AND PUSH1 0xE0 SHL DUP2 MSTORE PUSH1 0x4 ADD PUSH2 0x913 SWAP2 SWAP1 PUSH2 0x2C70 JUMP JUMPDEST PUSH1 0x0 PUSH1 0x40 MLOAD DUP1 DUP4 SUB DUP2 PUSH1 0x0 DUP8 DUP1 EXTCODESIZE ISZERO DUP1 ISZERO PUSH2 0x92D JUMPI PUSH1 0x0 DUP1 REVERT JUMPDEST POP GAS CALL ISZERO DUP1 ISZERO PUSH2 0x941 JUMPI RETURNDATASIZE PUSH1 0x0 DUP1 RETURNDATACOPY RETURNDATASIZE PUSH1 0x0 REVERT JUMPDEST POP POP POP POP JUMP JUMPDEST PUSH1 0xC SLOAD PUSH1 0x1 PUSH1 0xA8 SHL SWAP1 DIV PUSH1 0xFF AND ISZERO PUSH2 0x87F JUMPI PUSH1 0x4 SLOAD PUSH1 0x1 PUSH1 0x1 PUSH1 0xA0 SHL SUB AND CALLER EQ PUSH2 0x881 JUMPI PUSH1 0x40 MLOAD PUSH3 0x461BCD PUSH1 0xE5 SHL DUP2 MSTORE PUSH1 0x4 ADD PUSH2 0x4D3 SWAP1 PUSH2 0x2AF6 JUMP JUMPDEST PUSH1 0x0 SLOAD PUSH1 0x1 PUSH1 0xA0 SHL SWAP1 DIV PUSH1 0xFF AND SWAP1 JUMP JUMPDEST PUSH1 0x9 SLOAD PUSH1 0x1 PUSH1 0x1 PUSH1 0xA0 SHL SUB AND DUP2 JUMP JUMPDEST PUSH2 0x9AA PUSH2 0x1826 JUMP JUMPDEST PUSH1 0x1 PUSH1 0x1 PUSH1 0xA0 SHL SUB AND PUSH2 0x9BB PUSH2 0xDBE JUMP JUMPDEST PUSH1 0x1 PUSH1 0x1 PUSH1 0xA0 SHL SUB AND EQ PUSH2 0x9E1 JUMPI PUSH1 0x40 MLOAD PUSH3 0x461BCD PUSH1 0xE5 SHL DUP2 MSTORE PUSH1 0x4 ADD PUSH2 0x4D3 SWAP1 PUSH2 0x2B16 JUMP JUMPDEST PUSH1 0x4 DUP1 SLOAD PUSH1 0x1 PUSH1 0x1 PUSH1 0xA0 SHL SUB NOT AND PUSH1 0x1 PUSH1 0x1 PUSH1 0xA0 SHL SUB SWAP3 SWAP1 SWAP3 AND SWAP2 SWAP1 SWAP2 OR SWAP1 SSTORE JUMP JUMPDEST PUSH2 0xA0B PUSH2 0x1826 JUMP JUMPDEST PUSH1 0x1 PUSH1 0x1 PUSH1 0xA0 SHL SUB AND PUSH2 0xA1C PUSH2 0xDBE JUMP JUMPDEST PUSH1 0x1 PUSH1 0x1 PUSH1 0xA0 SHL SUB AND EQ PUSH2 0xA42 JUMPI PUSH1 0x40 MLOAD PUSH3 0x461BCD PUSH1 0xE5 SHL DUP2 MSTORE PUSH1 0x4 ADD PUSH2 0x4D3 SWAP1 PUSH2 0x2B16 JUMP JUMPDEST PUSH1 0x0 DUP1 SLOAD PUSH1 0x40 MLOAD PUSH1 0x1 PUSH1 0x1 PUSH1 0xA0 SHL SUB SWAP1 SWAP2 AND SWAP1 PUSH32 0x8BE0079C531659141344CD1FD0A4F28419497F9722A3DAAFE3B4186F6B6457E0 SWAP1 DUP4 SWAP1 LOG3 PUSH1 0x0 DUP1 SLOAD PUSH1 0x1 PUSH1 0x1 PUSH1 0xA0 SHL SUB NOT AND SWAP1 SSTORE JUMP JUMPDEST PUSH1 0x0 PUSH2 0x57B PUSH2 0xA99 PUSH2 0x4FA JUMP JUMPDEST PUSH2 0xAA1 PUSH2 0xE07 JUMP JUMPDEST SWAP1 PUSH2 0x182A JUMP JUMPDEST PUSH2 0xAAF PUSH2 0xDBE JUMP JUMPDEST PUSH1 0x1 PUSH1 0x1 PUSH1 0xA0 SHL SUB AND CALLER PUSH1 0x1 PUSH1 0x1 PUSH1 0xA0 SHL SUB AND EQ DUP1 PUSH2 0xAD8 JUMPI POP PUSH1 0x1 SLOAD PUSH1 0x1 PUSH1 0x1 PUSH1 0xA0 SHL SUB AND CALLER EQ JUMPDEST PUSH2 0xAF4 JUMPI PUSH1 0x40 MLOAD PUSH3 0x461BCD PUSH1 0xE5 SHL DUP2 MSTORE PUSH1 0x4 ADD PUSH2 0x4D3 SWAP1 PUSH2 0x2BAE JUMP JUMPDEST PUSH1 0x1 DUP1 SLOAD PUSH1 0x1 PUSH1 0x1 PUSH1 0xA0 SHL SUB NOT AND PUSH1 0x1 PUSH1 0x1 PUSH1 0xA0 SHL SUB SWAP3 SWAP1 SWAP3 AND SWAP2 SWAP1 SWAP2 OR SWAP1 SSTORE JUMP JUMPDEST PUSH2 0xB1E PUSH2 0x1826 JUMP JUMPDEST PUSH1 0x1 PUSH1 0x1 PUSH1 0xA0 SHL SUB AND PUSH2 0xB2F PUSH2 0xDBE JUMP JUMPDEST PUSH1 0x1 PUSH1 0x1 PUSH1 0xA0 SHL SUB AND EQ PUSH2 0xB55 JUMPI PUSH1 0x40 MLOAD PUSH3 0x461BCD PUSH1 0xE5 SHL DUP2 MSTORE PUSH1 0x4 ADD PUSH2 0x4D3 SWAP1 PUSH2 0x2B16 JUMP JUMPDEST PUSH1 0xC SLOAD PUSH1 0x1 PUSH1 0x1 PUSH1 0xA0 SHL SUB AND PUSH2 0xB7D JUMPI PUSH1 0x40 MLOAD PUSH3 0x461BCD PUSH1 0xE5 SHL DUP2 MSTORE PUSH1 0x4 ADD PUSH2 0x4D3 SWAP1 PUSH2 0x2B4B JUMP JUMPDEST PUSH2 0xB9B DUP5 DUP3 PUSH1 0x0 DUP2 MLOAD DUP2 LT PUSH2 0xB8E JUMPI INVALID JUMPDEST PUSH1 0x20 MUL PUSH1 0x20 ADD ADD MLOAD PUSH2 0x1856 JUMP JUMPDEST PUSH2 0xBB9 DUP4 DUP3 PUSH1 0x1 DUP2 MLOAD DUP2 LT PUSH2 0xBAC JUMPI INVALID JUMPDEST PUSH1 0x20 MUL PUSH1 0x20 ADD ADD MLOAD PUSH2 0x1963 JUMP JUMPDEST PUSH2 0xBD7 DUP3 DUP3 PUSH1 0x2 DUP2 MLOAD DUP2 LT PUSH2 0xBCA JUMPI INVALID JUMPDEST PUSH1 0x20 MUL PUSH1 0x20 ADD ADD MLOAD PUSH2 0x1A70 JUMP JUMPDEST PUSH1 0xE PUSH1 0x0 DUP2 SLOAD DUP2 LT PUSH2 0xBE5 JUMPI INVALID JUMPDEST PUSH1 0x0 SWAP2 DUP3 MSTORE PUSH1 0x20 SWAP1 SWAP2 KECCAK256 PUSH1 0x2 SWAP1 SWAP2 MUL ADD SLOAD PUSH1 0x7 DUP1 SLOAD PUSH1 0x1 PUSH1 0x1 PUSH1 0xA0 SHL SUB NOT AND PUSH1 0x1 PUSH1 0x1 PUSH1 0xA0 SHL SUB SWAP1 SWAP3 AND SWAP2 SWAP1 SWAP2 OR SWAP1 SSTORE PUSH1 0xE DUP1 SLOAD PUSH1 0x0 NOT DUP2 ADD SWAP1 DUP2 LT PUSH2 0xC27 JUMPI INVALID JUMPDEST PUSH1 0x0 SWAP2 DUP3 MSTORE PUSH1 0x20 SWAP1 SWAP2 KECCAK256 PUSH1 0x1 PUSH1 0x2 SWAP1 SWAP3 MUL ADD ADD SLOAD PUSH1 0x6 DUP1 SLOAD PUSH1 0x1 PUSH1 0x1 PUSH1 0xA0 SHL SUB NOT AND PUSH1 0x1 PUSH1 0x1 PUSH1 0xA0 SHL SUB SWAP1 SWAP3 AND SWAP2 SWAP1 SWAP2 OR SWAP1 SSTORE PUSH1 0xF DUP1 SLOAD PUSH1 0x0 NOT DUP2 ADD SWAP1 DUP2 LT PUSH2 0xC6C JUMPI INVALID JUMPDEST PUSH1 0x0 SWAP2 DUP3 MSTORE PUSH1 0x20 SWAP1 SWAP2 KECCAK256 PUSH1 0x1 PUSH1 0x2 SWAP1 SWAP3 MUL ADD ADD SLOAD PUSH1 0x9 DUP1 SLOAD PUSH1 0x1 PUSH1 0x1 PUSH1 0xA0 SHL SUB NOT AND PUSH1 0x1 PUSH1 0x1 PUSH1 0xA0 SHL SUB SWAP1 SWAP3 AND SWAP2 SWAP1 SWAP2 OR SWAP1 SSTORE PUSH1 0x10 DUP1 SLOAD PUSH1 0x0 NOT DUP2 ADD SWAP1 DUP2 LT PUSH2 0xCB1 JUMPI INVALID JUMPDEST PUSH1 0x0 SWAP2 DUP3 MSTORE PUSH1 0x20 DUP3 KECCAK256 PUSH1 0x1 PUSH1 0x2 SWAP1 SWAP3 MUL ADD DUP2 ADD SLOAD PUSH1 0xA DUP1 SLOAD PUSH1 0x1 PUSH1 0x1 PUSH1 0xA0 SHL SUB NOT SWAP1 DUP2 AND PUSH1 0x1 PUSH1 0x1 PUSH1 0xA0 SHL SUB SWAP4 DUP5 AND OR SWAP1 SWAP2 SSTORE PUSH1 0x7 SLOAD PUSH1 0x11 DUP1 SLOAD SWAP5 DUP6 ADD DUP2 SSTORE SWAP1 SWAP5 MSTORE PUSH32 0x31ECC21A745E3968A04E9570E4425BC18FA8019C68028196B546D1669C200C68 SWAP1 SWAP3 ADD DUP1 SLOAD SWAP1 SWAP3 AND SWAP3 AND SWAP2 SWAP1 SWAP2 OR SWAP1 SSTORE PUSH2 0xD2C PUSH2 0x15F4 JUMP JUMPDEST POP POP PUSH1 0xC DUP1 SLOAD PUSH1 0x1 PUSH1 0x1 PUSH1 0xA0 SHL SUB NOT AND SWAP1 SSTORE POP POP JUMP JUMPDEST PUSH2 0xD4A PUSH2 0xDBE JUMP JUMPDEST PUSH1 0x1 PUSH1 0x1 PUSH1 0xA0 SHL SUB AND CALLER PUSH1 0x1 PUSH1 0x1 PUSH1 0xA0 SHL SUB AND EQ DUP1 PUSH2 0xD73 JUMPI POP PUSH1 0x1 SLOAD PUSH1 0x1 PUSH1 0x1 PUSH1 0xA0 SHL SUB AND CALLER EQ JUMPDEST PUSH2 0xD8F JUMPI PUSH1 0x40 MLOAD PUSH3 0x461BCD PUSH1 0xE5 SHL DUP2 MSTORE PUSH1 0x4 ADD PUSH2 0x4D3 SWAP1 PUSH2 0x2BAE JUMP JUMPDEST PUSH2 0xD97 PUSH2 0x1B7D JUMP JUMPDEST PUSH2 0x87F PUSH2 0x1BDE JUMP JUMPDEST PUSH1 0xA SLOAD PUSH1 0x1 PUSH1 0x1 PUSH1 0xA0 SHL SUB AND DUP2 JUMP JUMPDEST PUSH1 0xC SLOAD PUSH1 0x1 PUSH1 0xA8 SHL SWAP1 DIV PUSH1 0xFF AND DUP2 JUMP JUMPDEST PUSH1 0x0 SLOAD PUSH1 0x1 PUSH1 0x1 PUSH1 0xA0 SHL SUB AND SWAP1 JUMP JUMPDEST PUSH1 0x5 SLOAD PUSH1 0x1 PUSH1 0x1 PUSH1 0xA0 SHL SUB AND DUP2 JUMP JUMPDEST PUSH1 0xB SLOAD PUSH1 0x1 PUSH1 0x1 PUSH1 0xA0 SHL SUB AND DUP2 JUMP JUMPDEST PUSH1 0x1 SLOAD PUSH1 0x1 PUSH1 0x1 PUSH1 0xA0 SHL SUB AND DUP2 JUMP JUMPDEST PUSH1 0xE DUP2 DUP2 SLOAD DUP2 LT PUSH2 0x7E4 JUMPI INVALID JUMPDEST PUSH1 0x8 SLOAD PUSH1 0x40 MLOAD PUSH4 0x70A08231 PUSH1 0xE0 SHL DUP2 MSTORE PUSH1 0x0 SWAP2 PUSH1 0x1 PUSH1 0x1 PUSH1 0xA0 SHL SUB AND SWAP1 PUSH4 0x70A08231 SWAP1 PUSH2 0x52B SWAP1 ADDRESS SWAP1 PUSH1 0x4 ADD PUSH2 0x27B3 JUMP JUMPDEST PUSH1 0x2 SLOAD PUSH1 0x1 PUSH1 0x1 PUSH1 0xA0 SHL SUB AND CALLER EQ PUSH2 0xE62 JUMPI PUSH1 0x40 MLOAD PUSH3 0x461BCD PUSH1 0xE5 SHL DUP2 MSTORE PUSH1 0x4 ADD PUSH2 0x4D3 SWAP1 PUSH2 0x2935 JUMP JUMPDEST PUSH1 0x2 DUP1 SLOAD PUSH1 0x1 PUSH1 0x1 PUSH1 0xA0 SHL SUB NOT AND PUSH1 0x1 PUSH1 0x1 PUSH1 0xA0 SHL SUB SWAP3 SWAP1 SWAP3 AND SWAP2 SWAP1 SWAP2 OR SWAP1 SSTORE JUMP JUMPDEST PUSH2 0xE8C PUSH2 0x983 JUMP JUMPDEST ISZERO PUSH2 0xEA9 JUMPI PUSH1 0x40 MLOAD PUSH3 0x461BCD PUSH1 0xE5 SHL DUP2 MSTORE PUSH1 0x4 ADD PUSH2 0x4D3 SWAP1 PUSH2 0x2A8B JUMP JUMPDEST PUSH1 0x8 SLOAD PUSH1 0x40 MLOAD PUSH4 0x70A08231 PUSH1 0xE0 SHL DUP2 MSTORE PUSH1 0x0 SWAP2 PUSH1 0x1 PUSH1 0x1 PUSH1 0xA0 SHL SUB AND SWAP1 PUSH4 0x70A08231 SWAP1 PUSH2 0xEDA SWAP1 ADDRESS SWAP1 PUSH1 0x4 ADD PUSH2 0x27B3 JUMP JUMPDEST PUSH1 0x20 PUSH1 0x40 MLOAD DUP1 DUP4 SUB DUP2 DUP7 DUP1 EXTCODESIZE ISZERO DUP1 ISZERO PUSH2 0xEF2 JUMPI PUSH1 0x0 DUP1 REVERT JUMPDEST POP GAS STATICCALL ISZERO DUP1 ISZERO PUSH2 0xF06 JUMPI RETURNDATASIZE PUSH1 0x0 DUP1 RETURNDATACOPY RETURNDATASIZE PUSH1 0x0 REVERT JUMPDEST POP POP POP POP PUSH1 0x40 MLOAD RETURNDATASIZE PUSH1 0x1F NOT PUSH1 0x1F DUP3 ADD AND DUP3 ADD DUP1 PUSH1 0x40 MSTORE POP DUP2 ADD SWAP1 PUSH2 0xF2A SWAP2 SWAP1 PUSH2 0x2752 JUMP JUMPDEST SWAP1 POP DUP1 ISZERO PUSH2 0xFD6 JUMPI PUSH1 0xB SLOAD PUSH1 0x40 MLOAD PUSH4 0x1C57762B PUSH1 0xE3 SHL DUP2 MSTORE PUSH1 0x1 PUSH1 0x1 PUSH1 0xA0 SHL SUB SWAP1 SWAP2 AND SWAP1 PUSH4 0xE2BBB158 SWAP1 PUSH2 0xF65 SWAP1 DUP5 SWAP1 PUSH1 0x0 SWAP1 PUSH1 0x4 ADD PUSH2 0x2C79 JUMP JUMPDEST PUSH1 0x0 PUSH1 0x40 MLOAD DUP1 DUP4 SUB DUP2 PUSH1 0x0 DUP8 DUP1 EXTCODESIZE ISZERO DUP1 ISZERO PUSH2 0xF7F JUMPI PUSH1 0x0 DUP1 REVERT JUMPDEST POP GAS CALL ISZERO DUP1 ISZERO PUSH2 0xF93 JUMPI RETURNDATASIZE PUSH1 0x0 DUP1 RETURNDATACOPY RETURNDATASIZE PUSH1 0x0 REVERT JUMPDEST POP POP POP POP PUSH32 0x4D6CE1E535DBADE1C23DEFBA91E23B8F791CE5EDC0CC320257A2B364E4E38426 PUSH2 0xFC0 PUSH2 0xA8C JUMP JUMPDEST PUSH1 0x40 MLOAD PUSH2 0xFCD SWAP2 SWAP1 PUSH2 0x2C70 JUMP JUMPDEST PUSH1 0x40 MLOAD DUP1 SWAP2 SUB SWAP1 LOG1 JUMPDEST POP JUMP JUMPDEST PUSH2 0xFE1 PUSH2 0x1826 JUMP JUMPDEST PUSH1 0x1 PUSH1 0x1 PUSH1 0xA0 SHL SUB AND PUSH2 0xFF2 PUSH2 0xDBE JUMP JUMPDEST PUSH1 0x1 PUSH1 0x1 PUSH1 0xA0 SHL SUB AND EQ PUSH2 0x1018 JUMPI PUSH1 0x40 MLOAD PUSH3 0x461BCD PUSH1 0xE5 SHL DUP2 MSTORE PUSH1 0x4 ADD PUSH2 0x4D3 SWAP1 PUSH2 0x2B16 JUMP JUMPDEST PUSH1 0x3 DUP1 SLOAD PUSH1 0x1 PUSH1 0x1 PUSH1 0xA0 SHL SUB NOT AND PUSH1 0x1 PUSH1 0x1 PUSH1 0xA0 SHL SUB SWAP3 SWAP1 SWAP3 AND SWAP2 SWAP1 SWAP2 OR SWAP1 SSTORE JUMP JUMPDEST PUSH1 0xB SLOAD PUSH1 0x7 SLOAD PUSH1 0x40 MLOAD PUSH4 0x211DC32D PUSH1 0xE0 SHL DUP2 MSTORE PUSH1 0x0 SWAP3 PUSH1 0x1 PUSH1 0x1 PUSH1 0xA0 SHL SUB SWAP1 DUP2 AND SWAP3 PUSH4 0x211DC32D SWAP3 PUSH2 0x52B SWAP3 SWAP1 SWAP2 AND SWAP1 ADDRESS SWAP1 PUSH1 0x4 ADD PUSH2 0x27C7 JUMP JUMPDEST PUSH1 0x0 DUP1 PUSH1 0x0 PUSH1 0x8 PUSH1 0x0 SWAP1 SLOAD SWAP1 PUSH2 0x100 EXP SWAP1 DIV PUSH1 0x1 PUSH1 0x1 PUSH1 0xA0 SHL SUB AND PUSH1 0x1 PUSH1 0x1 PUSH1 0xA0 SHL SUB AND PUSH4 0x902F1AC PUSH1 0x40 MLOAD DUP2 PUSH4 0xFFFFFFFF AND PUSH1 0xE0 SHL DUP2 MSTORE PUSH1 0x4 ADD PUSH1 0x60 PUSH1 0x40 MLOAD DUP1 DUP4 SUB DUP2 DUP7 DUP1 EXTCODESIZE ISZERO DUP1 ISZERO PUSH2 0x10C7 JUMPI PUSH1 0x0 DUP1 REVERT JUMPDEST POP GAS STATICCALL ISZERO DUP1 ISZERO PUSH2 0x10DB JUMPI RETURNDATASIZE PUSH1 0x0 DUP1 RETURNDATACOPY RETURNDATASIZE PUSH1 0x0 REVERT JUMPDEST POP POP POP POP PUSH1 0x40 MLOAD RETURNDATASIZE PUSH1 0x1F NOT PUSH1 0x1F DUP3 ADD AND DUP3 ADD DUP1 PUSH1 0x40 MSTORE POP DUP2 ADD SWAP1 PUSH2 0x10FF SWAP2 SWAP1 PUSH2 0x26E6 JUMP JUMPDEST POP PUSH1 0x1 PUSH1 0x1 PUSH1 0x70 SHL SUB AND SWAP2 POP PUSH1 0x1 PUSH1 0x1 PUSH1 0x70 SHL SUB AND SWAP2 POP PUSH1 0x0 PUSH2 0x11BC PUSH1 0x9 PUSH1 0x0 SWAP1 SLOAD SWAP1 PUSH2 0x100 EXP SWAP1 DIV PUSH1 0x1 PUSH1 0x1 PUSH1 0xA0 SHL SUB AND PUSH1 0x1 PUSH1 0x1 PUSH1 0xA0 SHL SUB AND PUSH4 0x313CE567 PUSH1 0x40 MLOAD DUP2 PUSH4 0xFFFFFFFF AND PUSH1 0xE0 SHL DUP2 MSTORE PUSH1 0x4 ADD PUSH1 0x20 PUSH1 0x40 MLOAD DUP1 DUP4 SUB DUP2 DUP7 DUP1 EXTCODESIZE ISZERO DUP1 ISZERO PUSH2 0x1169 JUMPI PUSH1 0x0 DUP1 REVERT JUMPDEST POP GAS STATICCALL ISZERO DUP1 ISZERO PUSH2 0x117D JUMPI RETURNDATASIZE PUSH1 0x0 DUP1 RETURNDATACOPY RETURNDATASIZE PUSH1 0x0 REVERT JUMPDEST POP POP POP POP PUSH1 0x40 MLOAD RETURNDATASIZE PUSH1 0x1F NOT PUSH1 0x1F DUP3 ADD AND DUP3 ADD DUP1 PUSH1 0x40 MSTORE POP DUP2 ADD SWAP1 PUSH2 0x11A1 SWAP2 SWAP1 PUSH2 0x2752 JUMP JUMPDEST PUSH1 0xA EXP PUSH2 0x11B6 DUP6 PUSH8 0xDE0B6B3A7640000 PUSH2 0x1C56 JUMP JUMPDEST SWAP1 PUSH2 0x1C90 JUMP JUMPDEST SWAP1 POP PUSH1 0x0 PUSH2 0x1211 PUSH1 0xA PUSH1 0x0 SWAP1 SLOAD SWAP1 PUSH2 0x100 EXP SWAP1 DIV PUSH1 0x1 PUSH1 0x1 PUSH1 0xA0 SHL SUB AND PUSH1 0x1 PUSH1 0x1 PUSH1 0xA0 SHL SUB AND PUSH4 0x313CE567 PUSH1 0x40 MLOAD DUP2 PUSH4 0xFFFFFFFF AND PUSH1 0xE0 SHL DUP2 MSTORE PUSH1 0x4 ADD PUSH1 0x20 PUSH1 0x40 MLOAD DUP1 DUP4 SUB DUP2 DUP7 DUP1 EXTCODESIZE ISZERO DUP1 ISZERO PUSH2 0x1169 JUMPI PUSH1 0x0 DUP1 REVERT JUMPDEST SWAP1 POP PUSH1 0x0 PUSH2 0x121F DUP4 DUP4 PUSH2 0x182A JUMP JUMPDEST SWAP1 POP PUSH2 0x1237 DUP2 PUSH2 0x11B6 DUP6 PUSH8 0xDE0B6B3A7640000 PUSH2 0x1C56 JUMP JUMPDEST SWAP6 POP POP POP POP POP POP SWAP1 JUMP JUMPDEST PUSH1 0xD SLOAD DUP2 JUMP JUMPDEST PUSH1 0x7 SLOAD PUSH1 0x1 PUSH1 0x1 PUSH1 0xA0 SHL SUB AND DUP2 JUMP JUMPDEST PUSH2 0x125E PUSH2 0x1826 JUMP JUMPDEST PUSH1 0x1 PUSH1 0x1 PUSH1 0xA0 SHL SUB AND PUSH2 0x126F PUSH2 0xDBE JUMP JUMPDEST PUSH1 0x1 PUSH1 0x1 PUSH1 0xA0 SHL SUB AND EQ PUSH2 0x1295 JUMPI PUSH1 0x40 MLOAD PUSH3 0x461BCD PUSH1 0xE5 SHL DUP2 MSTORE PUSH1 0x4 ADD PUSH2 0x4D3 SWAP1 PUSH2 0x2B16 JUMP JUMPDEST PUSH1 0x1 PUSH1 0x1 PUSH1 0xA0 SHL SUB DUP2 AND PUSH2 0x12BB JUMPI PUSH1 0x40 MLOAD PUSH3 0x461BCD PUSH1 0xE5 SHL DUP2 MSTORE PUSH1 0x4 ADD PUSH2 0x4D3 SWAP1 PUSH2 0x295A JUMP JUMPDEST PUSH1 0x0 DUP1 SLOAD PUSH1 0x40 MLOAD PUSH1 0x1 PUSH1 0x1 PUSH1 0xA0 SHL SUB DUP1 DUP6 AND SWAP4 SWAP3 AND SWAP2 PUSH32 0x8BE0079C531659141344CD1FD0A4F28419497F9722A3DAAFE3B4186F6B6457E0 SWAP2 LOG3 PUSH1 0x0 DUP1 SLOAD PUSH1 0x1 PUSH1 0x1 PUSH1 0xA0 SHL SUB NOT AND PUSH1 0x1 PUSH1 0x1 PUSH1 0xA0 SHL SUB SWAP3 SWAP1 SWAP3 AND SWAP2 SWAP1 SWAP2 OR SWAP1 SSTORE JUMP JUMPDEST PUSH1 0x11 DUP2 DUP2 SLOAD DUP2 LT PUSH2 0x1323 JUMPI INVALID JUMPDEST PUSH1 0x0 SWAP2 DUP3 MSTORE PUSH1 0x20 SWAP1 SWAP2 KECCAK256 ADD SLOAD PUSH1 0x1 PUSH1 0x1 PUSH1 0xA0 SHL SUB AND SWAP1 POP DUP2 JUMP JUMPDEST PUSH1 0x4 SLOAD PUSH1 0x1 PUSH1 0x1 PUSH1 0xA0 SHL SUB AND CALLER EQ PUSH2 0x1367 JUMPI PUSH1 0x40 MLOAD PUSH3 0x461BCD PUSH1 0xE5 SHL DUP2 MSTORE PUSH1 0x4 ADD PUSH2 0x4D3 SWAP1 PUSH2 0x2AF6 JUMP JUMPDEST PUSH1 0xB SLOAD PUSH1 0x1 PUSH1 0x1 PUSH1 0xA0 SHL SUB AND PUSH4 0x2E1A7D4D PUSH2 0x1380 PUSH2 0x4FA JUMP JUMPDEST PUSH1 0x40 MLOAD DUP3 PUSH4 0xFFFFFFFF AND PUSH1 0xE0 SHL DUP2 MSTORE PUSH1 0x4 ADD PUSH2 0x139C SWAP2 SWAP1 PUSH2 0x2C70 JUMP JUMPDEST PUSH1 0x0 PUSH1 0x40 MLOAD DUP1 DUP4 SUB DUP2 PUSH1 0x0 DUP8 DUP1 EXTCODESIZE ISZERO DUP1 ISZERO PUSH2 0x13B6 JUMPI PUSH1 0x0 DUP1 REVERT JUMPDEST POP GAS CALL ISZERO DUP1 ISZERO PUSH2 0x13CA JUMPI RETURNDATASIZE PUSH1 0x0 DUP1 RETURNDATACOPY RETURNDATASIZE PUSH1 0x0 REVERT JUMPDEST POP POP PUSH1 0x8 SLOAD PUSH1 0x40 MLOAD PUSH4 0x70A08231 PUSH1 0xE0 SHL DUP2 MSTORE PUSH1 0x0 SWAP4 POP PUSH1 0x1 PUSH1 0x1 PUSH1 0xA0 SHL SUB SWAP1 SWAP2 AND SWAP2 POP PUSH4 0x70A08231 SWAP1 PUSH2 0x1401 SWAP1 ADDRESS SWAP1 PUSH1 0x4 ADD PUSH2 0x27B3 JUMP JUMPDEST PUSH1 0x20 PUSH1 0x40 MLOAD DUP1 DUP4 SUB DUP2 DUP7 DUP1 EXTCODESIZE ISZERO DUP1 ISZERO PUSH2 0x1419 JUMPI PUSH1 0x0 DUP1 REVERT JUMPDEST POP GAS STATICCALL ISZERO DUP1 ISZERO PUSH2 0x142D JUMPI RETURNDATASIZE PUSH1 0x0 DUP1 RETURNDATACOPY RETURNDATASIZE PUSH1 0x0 REVERT JUMPDEST POP POP POP POP PUSH1 0x40 MLOAD RETURNDATASIZE PUSH1 0x1F NOT PUSH1 0x1F DUP3 ADD AND DUP3 ADD DUP1 PUSH1 0x40 MSTORE POP DUP2 ADD SWAP1 PUSH2 0x1451 SWAP2 SWAP1 PUSH2 0x2752 JUMP JUMPDEST PUSH1 0x8 SLOAD PUSH1 0x4 DUP1 SLOAD PUSH1 0x40 MLOAD PUSH4 0xA9059CBB PUSH1 0xE0 SHL DUP2 MSTORE SWAP4 SWAP5 POP PUSH1 0x1 PUSH1 0x1 PUSH1 0xA0 SHL SUB SWAP3 DUP4 AND SWAP4 PUSH4 0xA9059CBB SWAP4 PUSH2 0x1489 SWAP4 SWAP3 AND SWAP2 DUP7 SWAP2 ADD PUSH2 0x28B0 JUMP JUMPDEST PUSH1 0x20 PUSH1 0x40 MLOAD DUP1 DUP4 SUB DUP2 PUSH1 0x0 DUP8 DUP1 EXTCODESIZE ISZERO DUP1 ISZERO PUSH2 0x14A3 JUMPI PUSH1 0x0 DUP1 REVERT JUMPDEST POP GAS CALL ISZERO DUP1 ISZERO PUSH2 0x14B7 JUMPI RETURNDATASIZE PUSH1 0x0 DUP1 RETURNDATACOPY RETURNDATASIZE PUSH1 0x0 REVERT JUMPDEST POP POP POP POP PUSH1 0x40 MLOAD RETURNDATASIZE PUSH1 0x1F NOT PUSH1 0x1F DUP3 ADD AND DUP3 ADD DUP1 PUSH1 0x40 MSTORE POP DUP2 ADD SWAP1 PUSH2 0x14DB SWAP2 SWAP1 PUSH2 0x26CA JUMP JUMPDEST POP POP JUMP JUMPDEST PUSH1 0x4 SLOAD PUSH1 0x1 PUSH1 0x1 PUSH1 0xA0 SHL SUB AND DUP2 JUMP JUMPDEST PUSH1 0x10 DUP2 DUP2 SLOAD DUP2 LT PUSH2 0x7E4 JUMPI INVALID JUMPDEST PUSH1 0x0 DUP3 DUP3 GT ISZERO PUSH2 0x151D JUMPI PUSH1 0x40 MLOAD PUSH3 0x461BCD PUSH1 0xE5 SHL DUP2 MSTORE PUSH1 0x4 ADD PUSH2 0x4D3 SWAP1 PUSH2 0x29D7 JUMP JUMPDEST POP DUP1 DUP3 SUB JUMPDEST SWAP3 SWAP2 POP POP JUMP JUMPDEST PUSH2 0x157E DUP4 PUSH4 0xA9059CBB PUSH1 0xE0 SHL DUP5 DUP5 PUSH1 0x40 MLOAD PUSH1 0x24 ADD PUSH2 0x1547 SWAP3 SWAP2 SWAP1 PUSH2 0x28B0 JUMP JUMPDEST PUSH1 0x40 DUP1 MLOAD PUSH1 0x1F NOT DUP2 DUP5 SUB ADD DUP2 MSTORE SWAP2 SWAP1 MSTORE PUSH1 0x20 DUP2 ADD DUP1 MLOAD PUSH1 0x1 PUSH1 0x1 PUSH1 0xE0 SHL SUB AND PUSH1 0x1 PUSH1 0x1 PUSH1 0xE0 SHL SUB NOT SWAP1 SWAP4 AND SWAP3 SWAP1 SWAP3 OR SWAP1 SWAP2 MSTORE PUSH2 0x1CC2 JUMP JUMPDEST POP POP POP JUMP JUMPDEST PUSH2 0x158B PUSH2 0x983 JUMP JUMPDEST PUSH2 0x15A7 JUMPI PUSH1 0x40 MLOAD PUSH3 0x461BCD PUSH1 0xE5 SHL DUP2 MSTORE PUSH1 0x4 ADD PUSH2 0x4D3 SWAP1 PUSH2 0x2907 JUMP JUMPDEST PUSH1 0x0 DUP1 SLOAD PUSH1 0xFF PUSH1 0xA0 SHL NOT AND SWAP1 SSTORE PUSH32 0x5DB9EE0A495BF2E6FF9C91A7834C1BA4FDD244A5E8AA4E537BD38AEAE4B073AA PUSH2 0x15DD PUSH2 0x1826 JUMP JUMPDEST PUSH1 0x40 MLOAD PUSH2 0x15EA SWAP2 SWAP1 PUSH2 0x27B3 JUMP JUMPDEST PUSH1 0x40 MLOAD DUP1 SWAP2 SUB SWAP1 LOG1 JUMP JUMPDEST PUSH1 0xB SLOAD PUSH1 0x8 SLOAD PUSH2 0x1613 SWAP2 PUSH1 0x1 PUSH1 0x1 PUSH1 0xA0 SHL SUB SWAP2 DUP3 AND SWAP2 AND PUSH1 0x0 NOT PUSH2 0x1D51 JUMP JUMPDEST PUSH1 0x3 SLOAD PUSH1 0x7 SLOAD PUSH2 0x1632 SWAP2 PUSH1 0x1 PUSH1 0x1 PUSH1 0xA0 SHL SUB SWAP2 DUP3 AND SWAP2 AND PUSH1 0x0 NOT PUSH2 0x1D51 JUMP JUMPDEST PUSH1 0x3 SLOAD PUSH1 0x9 SLOAD PUSH2 0x1650 SWAP2 PUSH1 0x1 PUSH1 0x1 PUSH1 0xA0 SHL SUB SWAP2 DUP3 AND SWAP2 AND PUSH1 0x0 PUSH2 0x1D51 JUMP JUMPDEST PUSH1 0x3 SLOAD PUSH1 0x9 SLOAD PUSH2 0x166F SWAP2 PUSH1 0x1 PUSH1 0x1 PUSH1 0xA0 SHL SUB SWAP2 DUP3 AND SWAP2 AND PUSH1 0x0 NOT PUSH2 0x1D51 JUMP JUMPDEST PUSH1 0x3 SLOAD PUSH1 0xA SLOAD PUSH2 0x168D SWAP2 PUSH1 0x1 PUSH1 0x1 PUSH1 0xA0 SHL SUB SWAP2 DUP3 AND SWAP2 AND PUSH1 0x0 PUSH2 0x1D51 JUMP JUMPDEST PUSH1 0x3 SLOAD PUSH1 0xA SLOAD PUSH2 0x87F SWAP2 PUSH1 0x1 PUSH1 0x1 PUSH1 0xA0 SHL SUB SWAP2 DUP3 AND SWAP2 AND PUSH1 0x0 NOT PUSH2 0x1D51 JUMP JUMPDEST PUSH2 0x16B4 PUSH2 0x983 JUMP JUMPDEST ISZERO PUSH2 0x16D1 JUMPI PUSH1 0x40 MLOAD PUSH3 0x461BCD PUSH1 0xE5 SHL DUP2 MSTORE PUSH1 0x4 ADD PUSH2 0x4D3 SWAP1 PUSH2 0x2A8B JUMP JUMPDEST PUSH1 0xB SLOAD PUSH1 0x40 MLOAD PUSH4 0x31279D3D PUSH1 0xE0 SHL DUP2 MSTORE PUSH1 0x1 PUSH1 0x1 PUSH1 0xA0 SHL SUB SWAP1 SWAP2 AND SWAP1 PUSH4 0x31279D3D SWAP1 PUSH2 0x1704 SWAP1 ADDRESS SWAP1 PUSH1 0x11 SWAP1 PUSH1 0x4 ADD PUSH2 0x2854 JUMP JUMPDEST PUSH1 0x0 PUSH1 0x40 MLOAD DUP1 DUP4 SUB DUP2 PUSH1 0x0 DUP8 DUP1 EXTCODESIZE ISZERO DUP1 ISZERO PUSH2 0x171E JUMPI PUSH1 0x0 DUP1 REVERT JUMPDEST POP GAS CALL ISZERO DUP1 ISZERO PUSH2 0x1732 JUMPI RETURNDATASIZE PUSH1 0x0 DUP1 RETURNDATACOPY RETURNDATASIZE PUSH1 0x0 REVERT JUMPDEST POP POP PUSH1 0x7 SLOAD PUSH1 0x40 MLOAD PUSH4 0x70A08231 PUSH1 0xE0 SHL DUP2 MSTORE PUSH1 0x0 SWAP4 POP PUSH1 0x1 PUSH1 0x1 PUSH1 0xA0 SHL SUB SWAP1 SWAP2 AND SWAP2 POP PUSH4 0x70A08231 SWAP1 PUSH2 0x1769 SWAP1 ADDRESS SWAP1 PUSH1 0x4 ADD PUSH2 0x27B3 JUMP JUMPDEST PUSH1 0x20 PUSH1 0x40 MLOAD DUP1 DUP4 SUB DUP2 DUP7 DUP1 EXTCODESIZE ISZERO DUP1 ISZERO PUSH2 0x1781 JUMPI PUSH1 0x0 DUP1 REVERT JUMPDEST POP GAS STATICCALL ISZERO DUP1 ISZERO PUSH2 0x1795 JUMPI RETURNDATASIZE PUSH1 0x0 DUP1 RETURNDATACOPY RETURNDATASIZE PUSH1 0x0 REVERT JUMPDEST POP POP POP POP PUSH1 0x40 MLOAD RETURNDATASIZE PUSH1 0x1F NOT PUSH1 0x1F DUP3 ADD AND DUP3 ADD DUP1 PUSH1 0x40 MSTORE POP DUP2 ADD SWAP1 PUSH2 0x17B9 SWAP2 SWAP1 PUSH2 0x2752 JUMP JUMPDEST SWAP1 POP DUP1 ISZERO PUSH2 0xFD6 JUMPI PUSH2 0x17C9 PUSH2 0x1E14 JUMP JUMPDEST PUSH1 0x0 PUSH2 0x17D3 PUSH2 0xE07 JUMP JUMPDEST SWAP1 POP PUSH2 0x17DD PUSH2 0xE84 JUMP JUMPDEST TIMESTAMP PUSH1 0xD SSTORE CALLER PUSH32 0x9BC239F1724CACFB88CB1D66A2DC437467699B68A8C90D7B63110CF4B6F92410 DUP3 PUSH2 0x180C PUSH2 0xA8C JUMP JUMPDEST PUSH1 0x40 MLOAD PUSH2 0x181A SWAP3 SWAP2 SWAP1 PUSH2 0x2C79 JUMP JUMPDEST PUSH1 0x40 MLOAD DUP1 SWAP2 SUB SWAP1 LOG2 POP POP JUMP JUMPDEST CALLER SWAP1 JUMP JUMPDEST PUSH1 0x0 DUP3 DUP3 ADD DUP4 DUP2 LT ISZERO PUSH2 0x184F JUMPI PUSH1 0x40 MLOAD PUSH3 0x461BCD PUSH1 0xE5 SHL DUP2 MSTORE PUSH1 0x4 ADD PUSH2 0x4D3 SWAP1 PUSH2 0x29A0 JUMP JUMPDEST SWAP4 SWAP3 POP POP POP JUMP JUMPDEST PUSH1 0x0 JUMPDEST DUP3 MLOAD DUP2 LT ISZERO PUSH2 0x157E JUMPI PUSH1 0xE PUSH1 0x40 MLOAD DUP1 PUSH1 0x60 ADD PUSH1 0x40 MSTORE DUP1 DUP6 DUP5 DUP2 MLOAD DUP2 LT PUSH2 0x187B JUMPI INVALID JUMPDEST PUSH1 0x20 MUL PUSH1 0x20 ADD ADD MLOAD PUSH1 0x0 DUP2 MLOAD DUP2 LT PUSH2 0x188F JUMPI INVALID JUMPDEST PUSH1 0x20 MUL PUSH1 0x20 ADD ADD MLOAD PUSH1 0x1 PUSH1 0x1 PUSH1 0xA0 SHL SUB AND DUP2 MSTORE PUSH1 0x20 ADD DUP6 DUP5 DUP2 MLOAD DUP2 LT PUSH2 0x18B1 JUMPI INVALID JUMPDEST PUSH1 0x20 MUL PUSH1 0x20 ADD ADD MLOAD PUSH1 0x1 DUP2 MLOAD DUP2 LT PUSH2 0x18C5 JUMPI INVALID JUMPDEST PUSH1 0x20 MUL PUSH1 0x20 ADD ADD MLOAD PUSH1 0x1 PUSH1 0x1 PUSH1 0xA0 SHL SUB AND DUP2 MSTORE PUSH1 0x20 ADD DUP5 DUP5 DUP2 MLOAD DUP2 LT PUSH2 0x18E7 JUMPI INVALID JUMPDEST PUSH1 0x20 SWAP1 DUP2 MUL SWAP2 SWAP1 SWAP2 ADD DUP2 ADD MLOAD ISZERO ISZERO SWAP1 SWAP2 MSTORE DUP3 SLOAD PUSH1 0x1 DUP1 DUP3 ADD DUP6 SSTORE PUSH1 0x0 SWAP5 DUP6 MSTORE SWAP4 DUP3 SWAP1 KECCAK256 DUP4 MLOAD PUSH1 0x2 SWAP1 SWAP3 MUL ADD DUP1 SLOAD PUSH1 0x1 PUSH1 0x1 PUSH1 0xA0 SHL SUB NOT SWAP1 DUP2 AND PUSH1 0x1 PUSH1 0x1 PUSH1 0xA0 SHL SUB SWAP4 DUP5 AND OR DUP3 SSTORE SWAP3 DUP5 ADD MLOAD SWAP1 DUP6 ADD DUP1 SLOAD PUSH1 0x40 SWAP1 SWAP6 ADD MLOAD SWAP5 SWAP1 SWAP4 AND SWAP2 AND OR PUSH1 0xFF PUSH1 0xA0 SHL NOT AND PUSH1 0x1 PUSH1 0xA0 SHL SWAP3 ISZERO ISZERO SWAP3 SWAP1 SWAP3 MUL SWAP2 SWAP1 SWAP2 OR SWAP1 SSTORE ADD PUSH2 0x1859 JUMP JUMPDEST PUSH1 0x0 JUMPDEST DUP3 MLOAD DUP2 LT ISZERO PUSH2 0x157E JUMPI PUSH1 0xF PUSH1 0x40 MLOAD DUP1 PUSH1 0x60 ADD PUSH1 0x40 MSTORE DUP1 DUP6 DUP5 DUP2 MLOAD DUP2 LT PUSH2 0x1988 JUMPI INVALID JUMPDEST PUSH1 0x20 MUL PUSH1 0x20 ADD ADD MLOAD PUSH1 0x0 DUP2 MLOAD DUP2 LT PUSH2 0x199C JUMPI INVALID JUMPDEST PUSH1 0x20 MUL PUSH1 0x20 ADD ADD MLOAD PUSH1 0x1 PUSH1 0x1 PUSH1 0xA0 SHL SUB AND DUP2 MSTORE PUSH1 0x20 ADD DUP6 DUP5 DUP2 MLOAD DUP2 LT PUSH2 0x19BE JUMPI INVALID JUMPDEST PUSH1 0x20 MUL PUSH1 0x20 ADD ADD MLOAD PUSH1 0x1 DUP2 MLOAD DUP2 LT PUSH2 0x19D2 JUMPI INVALID JUMPDEST PUSH1 0x20 MUL PUSH1 0x20 ADD ADD MLOAD PUSH1 0x1 PUSH1 0x1 PUSH1 0xA0 SHL SUB AND DUP2 MSTORE PUSH1 0x20 ADD DUP5 DUP5 DUP2 MLOAD DUP2 LT PUSH2 0x19F4 JUMPI INVALID JUMPDEST PUSH1 0x20 SWAP1 DUP2 MUL SWAP2 SWAP1 SWAP2 ADD DUP2 ADD MLOAD ISZERO ISZERO SWAP1 SWAP2 MSTORE DUP3 SLOAD PUSH1 0x1 DUP1 DUP3 ADD DUP6 SSTORE PUSH1 0x0 SWAP5 DUP6 MSTORE SWAP4 DUP3 SWAP1 KECCAK256 DUP4 MLOAD PUSH1 0x2 SWAP1 SWAP3 MUL ADD DUP1 SLOAD PUSH1 0x1 PUSH1 0x1 PUSH1 0xA0 SHL SUB NOT SWAP1 DUP2 AND PUSH1 0x1 PUSH1 0x1 PUSH1 0xA0 SHL SUB SWAP4 DUP5 AND OR DUP3 SSTORE SWAP3 DUP5 ADD MLOAD SWAP1 DUP6 ADD DUP1 SLOAD PUSH1 0x40 SWAP1 SWAP6 ADD MLOAD SWAP5 SWAP1 SWAP4 AND SWAP2 AND OR PUSH1 0xFF PUSH1 0xA0 SHL NOT AND PUSH1 0x1 PUSH1 0xA0 SHL SWAP3 ISZERO ISZERO SWAP3 SWAP1 SWAP3 MUL SWAP2 SWAP1 SWAP2 OR SWAP1 SSTORE ADD PUSH2 0x1966 JUMP JUMPDEST PUSH1 0x0 JUMPDEST DUP3 MLOAD DUP2 LT ISZERO PUSH2 0x157E JUMPI PUSH1 0x10 PUSH1 0x40 MLOAD DUP1 PUSH1 0x60 ADD PUSH1 0x40 MSTORE DUP1 DUP6 DUP5 DUP2 MLOAD DUP2 LT PUSH2 0x1A95 JUMPI INVALID JUMPDEST PUSH1 0x20 MUL PUSH1 0x20 ADD ADD MLOAD PUSH1 0x0 DUP2 MLOAD DUP2 LT PUSH2 0x1AA9 JUMPI INVALID JUMPDEST PUSH1 0x20 MUL PUSH1 0x20 ADD ADD MLOAD PUSH1 0x1 PUSH1 0x1 PUSH1 0xA0 SHL SUB AND DUP2 MSTORE PUSH1 0x20 ADD DUP6 DUP5 DUP2 MLOAD DUP2 LT PUSH2 0x1ACB JUMPI INVALID JUMPDEST PUSH1 0x20 MUL PUSH1 0x20 ADD ADD MLOAD PUSH1 0x1 DUP2 MLOAD DUP2 LT PUSH2 0x1ADF JUMPI INVALID JUMPDEST PUSH1 0x20 MUL PUSH1 0x20 ADD ADD MLOAD PUSH1 0x1 PUSH1 0x1 PUSH1 0xA0 SHL SUB AND DUP2 MSTORE PUSH1 0x20 ADD DUP5 DUP5 DUP2 MLOAD DUP2 LT PUSH2 0x1B01 JUMPI INVALID JUMPDEST PUSH1 0x20 SWAP1 DUP2 MUL SWAP2 SWAP1 SWAP2 ADD DUP2 ADD MLOAD ISZERO ISZERO SWAP1 SWAP2 MSTORE DUP3 SLOAD PUSH1 0x1 DUP1 DUP3 ADD DUP6 SSTORE PUSH1 0x0 SWAP5 DUP6 MSTORE SWAP4 DUP3 SWAP1 KECCAK256 DUP4 MLOAD PUSH1 0x2 SWAP1 SWAP3 MUL ADD DUP1 SLOAD PUSH1 0x1 PUSH1 0x1 PUSH1 0xA0 SHL SUB NOT SWAP1 DUP2 AND PUSH1 0x1 PUSH1 0x1 PUSH1 0xA0 SHL SUB SWAP4 DUP5 AND OR DUP3 SSTORE SWAP3 DUP5 ADD MLOAD SWAP1 DUP6 ADD DUP1 SLOAD PUSH1 0x40 SWAP1 SWAP6 ADD MLOAD SWAP5 SWAP1 SWAP4 AND SWAP2 AND OR PUSH1 0xFF PUSH1 0xA0 SHL NOT AND PUSH1 0x1 PUSH1 0xA0 SHL SWAP3 ISZERO ISZERO SWAP3 SWAP1 SWAP3 MUL SWAP2 SWAP1 SWAP2 OR SWAP1 SSTORE ADD PUSH2 0x1A73 JUMP JUMPDEST PUSH2 0x1B85 PUSH2 0x983 JUMP JUMPDEST ISZERO PUSH2 0x1BA2 JUMPI PUSH1 0x40 MLOAD PUSH3 0x461BCD PUSH1 0xE5 SHL DUP2 MSTORE PUSH1 0x4 ADD PUSH2 0x4D3 SWAP1 PUSH2 0x2A8B JUMP JUMPDEST PUSH1 0x0 DUP1 SLOAD PUSH1 0xFF PUSH1 0xA0 SHL NOT AND PUSH1 0x1 PUSH1 0xA0 SHL OR SWAP1 SSTORE PUSH32 0x62E78CEA01BEE320CD4E420270B5EA74000D11B0C9F74754EBDBFC544B05A258 PUSH2 0x15DD PUSH2 0x1826 JUMP JUMPDEST PUSH1 0xB SLOAD PUSH1 0x8 SLOAD PUSH2 0x1BFC SWAP2 PUSH1 0x1 PUSH1 0x1 PUSH1 0xA0 SHL SUB SWAP2 DUP3 AND SWAP2 AND PUSH1 0x0 PUSH2 0x1D51 JUMP JUMPDEST PUSH1 0x3 SLOAD PUSH1 0x7 SLOAD PUSH2 0x1C1A SWAP2 PUSH1 0x1 PUSH1 0x1 PUSH1 0xA0 SHL SUB SWAP2 DUP3 AND SWAP2 AND PUSH1 0x0 PUSH2 0x1D51 JUMP JUMPDEST PUSH1 0x3 SLOAD PUSH1 0x9 SLOAD PUSH2 0x1C38 SWAP2 PUSH1 0x1 PUSH1 0x1 PUSH1 0xA0 SHL SUB SWAP2 DUP3 AND SWAP2 AND PUSH1 0x0 PUSH2 0x1D51 JUMP JUMPDEST PUSH1 0x3 SLOAD PUSH1 0xA SLOAD PUSH2 0x87F SWAP2 PUSH1 0x1 PUSH1 0x1 PUSH1 0xA0 SHL SUB SWAP2 DUP3 AND SWAP2 AND PUSH1 0x0 PUSH2 0x1D51 JUMP JUMPDEST PUSH1 0x0 DUP3 PUSH2 0x1C65 JUMPI POP PUSH1 0x0 PUSH2 0x1522 JUMP JUMPDEST DUP3 DUP3 MUL DUP3 DUP5 DUP3 DUP2 PUSH2 0x1C72 JUMPI INVALID JUMPDEST DIV EQ PUSH2 0x184F JUMPI PUSH1 0x40 MLOAD PUSH3 0x461BCD PUSH1 0xE5 SHL DUP2 MSTORE PUSH1 0x4 ADD PUSH2 0x4D3 SWAP1 PUSH2 0x2AB5 JUMP JUMPDEST PUSH1 0x0 DUP1 DUP3 GT PUSH2 0x1CB1 JUMPI PUSH1 0x40 MLOAD PUSH3 0x461BCD PUSH1 0xE5 SHL DUP2 MSTORE PUSH1 0x4 ADD PUSH2 0x4D3 SWAP1 PUSH2 0x2A54 JUMP JUMPDEST DUP2 DUP4 DUP2 PUSH2 0x1CBA JUMPI INVALID JUMPDEST DIV SWAP4 SWAP3 POP POP POP JUMP JUMPDEST PUSH1 0x60 PUSH2 0x1D17 DUP3 PUSH1 0x40 MLOAD DUP1 PUSH1 0x40 ADD PUSH1 0x40 MSTORE DUP1 PUSH1 0x20 DUP2 MSTORE PUSH1 0x20 ADD PUSH32 0x5361666545524332303A206C6F772D6C6576656C2063616C6C206661696C6564 DUP2 MSTORE POP DUP6 PUSH1 0x1 PUSH1 0x1 PUSH1 0xA0 SHL SUB AND PUSH2 0x227A SWAP1 SWAP3 SWAP2 SWAP1 PUSH4 0xFFFFFFFF AND JUMP JUMPDEST DUP1 MLOAD SWAP1 SWAP2 POP ISZERO PUSH2 0x157E JUMPI DUP1 DUP1 PUSH1 0x20 ADD SWAP1 MLOAD DUP2 ADD SWAP1 PUSH2 0x1D35 SWAP2 SWAP1 PUSH2 0x26CA JUMP JUMPDEST PUSH2 0x157E JUMPI PUSH1 0x40 MLOAD PUSH3 0x461BCD PUSH1 0xE5 SHL DUP2 MSTORE PUSH1 0x4 ADD PUSH2 0x4D3 SWAP1 PUSH2 0x2BD0 JUMP JUMPDEST DUP1 ISZERO DUP1 PUSH2 0x1DD9 JUMPI POP PUSH1 0x40 MLOAD PUSH4 0x6EB1769F PUSH1 0xE1 SHL DUP2 MSTORE PUSH1 0x1 PUSH1 0x1 PUSH1 0xA0 SHL SUB DUP5 AND SWAP1 PUSH4 0xDD62ED3E SWAP1 PUSH2 0x1D87 SWAP1 ADDRESS SWAP1 DUP7 SWAP1 PUSH1 0x4 ADD PUSH2 0x27C7 JUMP JUMPDEST PUSH1 0x20 PUSH1 0x40 MLOAD DUP1 DUP4 SUB DUP2 DUP7 DUP1 EXTCODESIZE ISZERO DUP1 ISZERO PUSH2 0x1D9F JUMPI PUSH1 0x0 DUP1 REVERT JUMPDEST POP GAS STATICCALL ISZERO DUP1 ISZERO PUSH2 0x1DB3 JUMPI RETURNDATASIZE PUSH1 0x0 DUP1 RETURNDATACOPY RETURNDATASIZE PUSH1 0x0 REVERT JUMPDEST POP POP POP POP PUSH1 0x40 MLOAD RETURNDATASIZE PUSH1 0x1F NOT PUSH1 0x1F DUP3 ADD AND DUP3 ADD DUP1 PUSH1 0x40 MSTORE POP DUP2 ADD SWAP1 PUSH2 0x1DD7 SWAP2 SWAP1 PUSH2 0x2752 JUMP JUMPDEST ISZERO JUMPDEST PUSH2 0x1DF5 JUMPI PUSH1 0x40 MLOAD PUSH3 0x461BCD PUSH1 0xE5 SHL DUP2 MSTORE PUSH1 0x4 ADD PUSH2 0x4D3 SWAP1 PUSH2 0x2C1A JUMP JUMPDEST PUSH2 0x157E DUP4 PUSH4 0x95EA7B3 PUSH1 0xE0 SHL DUP5 DUP5 PUSH1 0x40 MLOAD PUSH1 0x24 ADD PUSH2 0x1547 SWAP3 SWAP2 SWAP1 PUSH2 0x28B0 JUMP JUMPDEST PUSH1 0xC SLOAD PUSH1 0x0 SWAP1 DUP2 SWAP1 PUSH1 0x1 PUSH1 0xA0 SHL SWAP1 DIV PUSH1 0xFF AND ISZERO PUSH2 0x1EE0 JUMPI PUSH1 0x7 SLOAD PUSH1 0x40 MLOAD PUSH4 0x70A08231 PUSH1 0xE0 SHL DUP2 MSTORE PUSH1 0x0 SWAP2 PUSH1 0x1 PUSH1 0x1 PUSH1 0xA0 SHL SUB AND SWAP1 PUSH4 0x70A08231 SWAP1 PUSH2 0x1E5C SWAP1 ADDRESS SWAP1 PUSH1 0x4 ADD PUSH2 0x27B3 JUMP JUMPDEST PUSH1 0x20 PUSH1 0x40 MLOAD DUP1 DUP4 SUB DUP2 DUP7 DUP1 EXTCODESIZE ISZERO DUP1 ISZERO PUSH2 0x1E74 JUMPI PUSH1 0x0 DUP1 REVERT JUMPDEST POP GAS STATICCALL ISZERO DUP1 ISZERO PUSH2 0x1E88 JUMPI RETURNDATASIZE PUSH1 0x0 DUP1 RETURNDATACOPY RETURNDATASIZE PUSH1 0x0 REVERT JUMPDEST POP POP POP POP PUSH1 0x40 MLOAD RETURNDATASIZE PUSH1 0x1F NOT PUSH1 0x1F DUP3 ADD AND DUP3 ADD DUP1 PUSH1 0x40 MSTORE POP DUP2 ADD SWAP1 PUSH2 0x1EAC SWAP2 SWAP1 PUSH2 0x2752 JUMP JUMPDEST SWAP1 POP PUSH2 0x1ECC PUSH8 0xDE0B6B3A7640000 PUSH2 0x11B6 PUSH2 0x1EC5 PUSH2 0x1074 JUMP JUMPDEST DUP5 SWAP1 PUSH2 0x1C56 JUMP JUMPDEST SWAP3 POP PUSH2 0x1ED8 DUP2 DUP5 PUSH2 0x14FB JUMP JUMPDEST SWAP2 POP POP PUSH2 0x1F6D JUMP JUMPDEST PUSH1 0x7 SLOAD PUSH1 0x40 MLOAD PUSH4 0x70A08231 PUSH1 0xE0 SHL DUP2 MSTORE PUSH2 0x1F67 SWAP2 PUSH1 0x2 SWAP2 PUSH1 0x1 PUSH1 0x1 PUSH1 0xA0 SHL SUB SWAP1 SWAP2 AND SWAP1 PUSH4 0x70A08231 SWAP1 PUSH2 0x1F17 SWAP1 ADDRESS SWAP1 PUSH1 0x4 ADD PUSH2 0x27B3 JUMP JUMPDEST PUSH1 0x20 PUSH1 0x40 MLOAD DUP1 DUP4 SUB DUP2 DUP7 DUP1 EXTCODESIZE ISZERO DUP1 ISZERO PUSH2 0x1F2F JUMPI PUSH1 0x0 DUP1 REVERT JUMPDEST POP GAS STATICCALL ISZERO DUP1 ISZERO PUSH2 0x1F43 JUMPI RETURNDATASIZE PUSH1 0x0 DUP1 RETURNDATACOPY RETURNDATASIZE PUSH1 0x0 REVERT JUMPDEST POP POP POP POP PUSH1 0x40 MLOAD RETURNDATASIZE PUSH1 0x1F NOT PUSH1 0x1F DUP3 ADD AND DUP3 ADD DUP1 PUSH1 0x40 MSTORE POP DUP2 ADD SWAP1 PUSH2 0x11B6 SWAP2 SWAP1 PUSH2 0x2752 JUMP JUMPDEST SWAP2 POP DUP2 SWAP1 POP JUMPDEST PUSH1 0x7 SLOAD PUSH1 0x9 SLOAD PUSH1 0x1 PUSH1 0x1 PUSH1 0xA0 SHL SUB SWAP1 DUP2 AND SWAP2 AND EQ PUSH2 0x2017 JUMPI PUSH1 0x3 SLOAD PUSH1 0x40 MLOAD PUSH4 0x1E82ECDB PUSH1 0xE3 SHL DUP2 MSTORE PUSH1 0x1 PUSH1 0x1 PUSH1 0xA0 SHL SUB SWAP1 SWAP2 AND SWAP1 PUSH4 0xF41766D8 SWAP1 PUSH2 0x1FBF SWAP1 DUP6 SWAP1 PUSH1 0x0 SWAP1 PUSH1 0xF SWAP1 ADDRESS SWAP1 TIMESTAMP SWAP1 PUSH1 0x4 ADD PUSH2 0x2C87 JUMP JUMPDEST PUSH1 0x0 PUSH1 0x40 MLOAD DUP1 DUP4 SUB DUP2 PUSH1 0x0 DUP8 DUP1 EXTCODESIZE ISZERO DUP1 ISZERO PUSH2 0x1FD9 JUMPI PUSH1 0x0 DUP1 REVERT JUMPDEST POP GAS CALL ISZERO DUP1 ISZERO PUSH2 0x1FED JUMPI RETURNDATASIZE PUSH1 0x0 DUP1 RETURNDATACOPY RETURNDATASIZE PUSH1 0x0 REVERT JUMPDEST POP POP POP POP PUSH1 0x40 MLOAD RETURNDATASIZE PUSH1 0x0 DUP3 RETURNDATACOPY PUSH1 0x1F RETURNDATASIZE SWAP1 DUP2 ADD PUSH1 0x1F NOT AND DUP3 ADD PUSH1 0x40 MSTORE PUSH2 0x2015 SWAP2 SWAP1 DUP2 ADD SWAP1 PUSH2 0x261E JUMP JUMPDEST POP JUMPDEST PUSH1 0x7 SLOAD PUSH1 0xA SLOAD PUSH1 0x1 PUSH1 0x1 PUSH1 0xA0 SHL SUB SWAP1 DUP2 AND SWAP2 AND EQ PUSH2 0x20C1 JUMPI PUSH1 0x3 SLOAD PUSH1 0x40 MLOAD PUSH4 0x1E82ECDB PUSH1 0xE3 SHL DUP2 MSTORE PUSH1 0x1 PUSH1 0x1 PUSH1 0xA0 SHL SUB SWAP1 SWAP2 AND SWAP1 PUSH4 0xF41766D8 SWAP1 PUSH2 0x2069 SWAP1 DUP5 SWAP1 PUSH1 0x0 SWAP1 PUSH1 0x10 SWAP1 ADDRESS SWAP1 TIMESTAMP SWAP1 PUSH1 0x4 ADD PUSH2 0x2C87 JUMP JUMPDEST PUSH1 0x0 PUSH1 0x40 MLOAD DUP1 DUP4 SUB DUP2 PUSH1 0x0 DUP8 DUP1 EXTCODESIZE ISZERO DUP1 ISZERO PUSH2 0x2083 JUMPI PUSH1 0x0 DUP1 REVERT JUMPDEST POP GAS CALL ISZERO DUP1 ISZERO PUSH2 0x2097 JUMPI RETURNDATASIZE PUSH1 0x0 DUP1 RETURNDATACOPY RETURNDATASIZE PUSH1 0x0 REVERT JUMPDEST POP POP POP POP PUSH1 0x40 MLOAD RETURNDATASIZE PUSH1 0x0 DUP3 RETURNDATACOPY PUSH1 0x1F RETURNDATASIZE SWAP1 DUP2 ADD PUSH1 0x1F NOT AND DUP3 ADD PUSH1 0x40 MSTORE PUSH2 0x20BF SWAP2 SWAP1 DUP2 ADD SWAP1 PUSH2 0x261E JUMP JUMPDEST POP JUMPDEST PUSH1 0x9 SLOAD PUSH1 0x40 MLOAD PUSH4 0x70A08231 PUSH1 0xE0 SHL DUP2 MSTORE PUSH1 0x0 SWAP2 PUSH1 0x1 PUSH1 0x1 PUSH1 0xA0 SHL SUB AND SWAP1 PUSH4 0x70A08231 SWAP1 PUSH2 0x20F2 SWAP1 ADDRESS SWAP1 PUSH1 0x4 ADD PUSH2 0x27B3 JUMP JUMPDEST PUSH1 0x20 PUSH1 0x40 MLOAD DUP1 DUP4 SUB DUP2 DUP7 DUP1 EXTCODESIZE ISZERO DUP1 ISZERO PUSH2 0x210A JUMPI PUSH1 0x0 DUP1 REVERT JUMPDEST POP GAS STATICCALL ISZERO DUP1 ISZERO PUSH2 0x211E JUMPI RETURNDATASIZE PUSH1 0x0 DUP1 RETURNDATACOPY RETURNDATASIZE PUSH1 0x0 REVERT JUMPDEST POP POP POP POP PUSH1 0x40 MLOAD RETURNDATASIZE PUSH1 0x1F NOT PUSH1 0x1F DUP3 ADD AND DUP3 ADD DUP1 PUSH1 0x40 MSTORE POP DUP2 ADD SWAP1 PUSH2 0x2142 SWAP2 SWAP1 PUSH2 0x2752 JUMP JUMPDEST PUSH1 0xA SLOAD PUSH1 0x40 MLOAD PUSH4 0x70A08231 PUSH1 0xE0 SHL DUP2 MSTORE SWAP2 SWAP3 POP PUSH1 0x0 SWAP2 PUSH1 0x1 PUSH1 0x1 PUSH1 0xA0 SHL SUB SWAP1 SWAP2 AND SWAP1 PUSH4 0x70A08231 SWAP1 PUSH2 0x2178 SWAP1 ADDRESS SWAP1 PUSH1 0x4 ADD PUSH2 0x27B3 JUMP JUMPDEST PUSH1 0x20 PUSH1 0x40 MLOAD DUP1 DUP4 SUB DUP2 DUP7 DUP1 EXTCODESIZE ISZERO DUP1 ISZERO PUSH2 0x2190 JUMPI PUSH1 0x0 DUP1 REVERT JUMPDEST POP GAS STATICCALL ISZERO DUP1 ISZERO PUSH2 0x21A4 JUMPI RETURNDATASIZE PUSH1 0x0 DUP1 RETURNDATACOPY RETURNDATASIZE PUSH1 0x0 REVERT JUMPDEST POP POP POP POP PUSH1 0x40 MLOAD RETURNDATASIZE PUSH1 0x1F NOT PUSH1 0x1F DUP3 ADD AND DUP3 ADD DUP1 PUSH1 0x40 MSTORE POP DUP2 ADD SWAP1 PUSH2 0x21C8 SWAP2 SWAP1 PUSH2 0x2752 JUMP JUMPDEST PUSH1 0x3 SLOAD PUSH1 0x9 SLOAD PUSH1 0xA SLOAD PUSH1 0xC SLOAD PUSH1 0x40 MLOAD PUSH4 0x5A47DDC3 PUSH1 0xE0 SHL DUP2 MSTORE SWAP5 SWAP6 POP PUSH1 0x1 PUSH1 0x1 PUSH1 0xA0 SHL SUB SWAP4 DUP5 AND SWAP5 PUSH4 0x5A47DDC3 SWAP5 PUSH2 0x221F SWAP5 DUP2 AND SWAP4 AND SWAP2 PUSH1 0x1 PUSH1 0xA0 SHL SWAP1 DIV PUSH1 0xFF AND SWAP1 DUP9 SWAP1 DUP9 SWAP1 PUSH1 0x1 SWAP1 DUP2 SWAP1 ADDRESS SWAP1 TIMESTAMP SWAP1 PUSH1 0x4 ADD PUSH2 0x2805 JUMP JUMPDEST PUSH1 0x60 PUSH1 0x40 MLOAD DUP1 DUP4 SUB DUP2 PUSH1 0x0 DUP8 DUP1 EXTCODESIZE ISZERO DUP1 ISZERO PUSH2 0x2239 JUMPI PUSH1 0x0 DUP1 REVERT JUMPDEST POP GAS CALL ISZERO DUP1 ISZERO PUSH2 0x224D JUMPI RETURNDATASIZE PUSH1 0x0 DUP1 RETURNDATACOPY RETURNDATASIZE PUSH1 0x0 REVERT JUMPDEST POP POP POP POP PUSH1 0x40 MLOAD RETURNDATASIZE PUSH1 0x1F NOT PUSH1 0x1F DUP3 ADD AND DUP3 ADD DUP1 PUSH1 0x40 MSTORE POP DUP2 ADD SWAP1 PUSH2 0x2271 SWAP2 SWAP1 PUSH2 0x276A JUMP JUMPDEST POP POP POP POP POP POP POP JUMP JUMPDEST PUSH1 0x60 PUSH2 0x2289 DUP5 DUP5 PUSH1 0x0 DUP6 PUSH2 0x2291 JUMP JUMPDEST SWAP5 SWAP4 POP POP POP POP JUMP JUMPDEST PUSH1 0x60 DUP3 SELFBALANCE LT ISZERO PUSH2 0x22B3 JUMPI PUSH1 0x40 MLOAD PUSH3 0x461BCD PUSH1 0xE5 SHL DUP2 MSTORE PUSH1 0x4 ADD PUSH2 0x4D3 SWAP1 PUSH2 0x2A0E JUMP JUMPDEST PUSH2 0x22BC DUP6 PUSH2 0x2352 JUMP JUMPDEST PUSH2 0x22D8 JUMPI PUSH1 0x40 MLOAD PUSH3 0x461BCD PUSH1 0xE5 SHL DUP2 MSTORE PUSH1 0x4 ADD PUSH2 0x4D3 SWAP1 PUSH2 0x2B77 JUMP JUMPDEST PUSH1 0x0 PUSH1 0x60 DUP7 PUSH1 0x1 PUSH1 0x1 PUSH1 0xA0 SHL SUB AND DUP6 DUP8 PUSH1 0x40 MLOAD PUSH2 0x22F5 SWAP2 SWAP1 PUSH2 0x2797 JUMP JUMPDEST PUSH1 0x0 PUSH1 0x40 MLOAD DUP1 DUP4 SUB DUP2 DUP6 DUP8 GAS CALL SWAP3 POP POP POP RETURNDATASIZE DUP1 PUSH1 0x0 DUP2 EQ PUSH2 0x2332 JUMPI PUSH1 0x40 MLOAD SWAP2 POP PUSH1 0x1F NOT PUSH1 0x3F RETURNDATASIZE ADD AND DUP3 ADD PUSH1 0x40 MSTORE RETURNDATASIZE DUP3 MSTORE RETURNDATASIZE PUSH1 0x0 PUSH1 0x20 DUP5 ADD RETURNDATACOPY PUSH2 0x2337 JUMP JUMPDEST PUSH1 0x60 SWAP2 POP JUMPDEST POP SWAP2 POP SWAP2 POP PUSH2 0x2347 DUP3 DUP3 DUP7 PUSH2 0x2358 JUMP JUMPDEST SWAP8 SWAP7 POP POP POP POP POP POP POP JUMP JUMPDEST EXTCODESIZE ISZERO ISZERO SWAP1 JUMP JUMPDEST PUSH1 0x60 DUP4 ISZERO PUSH2 0x2367 JUMPI POP DUP2 PUSH2 0x184F JUMP JUMPDEST DUP3 MLOAD ISZERO PUSH2 0x2377 JUMPI DUP3 MLOAD DUP1 DUP5 PUSH1 0x20 ADD REVERT JUMPDEST DUP2 PUSH1 0x40 MLOAD PUSH3 0x461BCD PUSH1 0xE5 SHL DUP2 MSTORE PUSH1 0x4 ADD PUSH2 0x4D3 SWAP2 SWAP1 PUSH2 0x28D4 JUMP JUMPDEST DUP1 CALLDATALOAD PUSH1 0x1 PUSH1 0x1 PUSH1 0xA0 SHL SUB DUP2 AND DUP2 EQ PUSH2 0x1522 JUMPI PUSH1 0x0 DUP1 REVERT JUMPDEST PUSH1 0x0 DUP3 PUSH1 0x1F DUP4 ADD SLT PUSH2 0x23B8 JUMPI DUP1 DUP2 REVERT JUMPDEST DUP2 CALLDATALOAD PUSH2 0x23CB PUSH2 0x23C6 DUP3 PUSH2 0x2D4F JUMP JUMPDEST PUSH2 0x2D28 JUMP JUMPDEST DUP2 DUP2 MSTORE SWAP2 POP PUSH1 0x20 DUP1 DUP4 ADD SWAP1 DUP5 DUP2 ADD PUSH1 0x0 JUMPDEST DUP5 DUP2 LT ISZERO PUSH2 0x2468 JUMPI DUP2 CALLDATALOAD DUP8 ADD DUP9 PUSH1 0x3F DUP3 ADD SLT PUSH2 0x23F7 JUMPI PUSH1 0x0 DUP1 REVERT JUMPDEST DUP4 DUP2 ADD CALLDATALOAD PUSH2 0x2407 PUSH2 0x23C6 DUP3 PUSH2 0x2D4F JUMP JUMPDEST DUP2 DUP2 MSTORE DUP6 DUP2 ADD SWAP1 PUSH1 0x40 DUP5 DUP2 ADD DUP9 DUP6 MUL DUP7 ADD DUP3 ADD DUP15 LT ISZERO PUSH2 0x2426 JUMPI PUSH1 0x0 DUP1 REVERT JUMPDEST PUSH1 0x0 SWAP6 POP JUMPDEST DUP5 DUP7 LT ISZERO PUSH2 0x2451 JUMPI PUSH2 0x243D DUP15 DUP3 PUSH2 0x2391 JUMP JUMPDEST DUP5 MSTORE PUSH1 0x1 SWAP6 SWAP1 SWAP6 ADD SWAP5 SWAP3 DUP9 ADD SWAP3 DUP9 ADD PUSH2 0x242B JUMP JUMPDEST POP POP DUP8 MSTORE POP POP POP SWAP3 DUP3 ADD SWAP3 SWAP1 DUP3 ADD SWAP1 PUSH1 0x1 ADD PUSH2 0x23DC JUMP JUMPDEST POP POP POP POP POP SWAP3 SWAP2 POP POP JUMP JUMPDEST DUP1 CALLDATALOAD PUSH2 0x1522 DUP2 PUSH2 0x2DA7 JUMP JUMPDEST PUSH1 0x0 PUSH1 0x20 DUP3 DUP5 SUB SLT ISZERO PUSH2 0x248F JUMPI DUP1 DUP2 REVERT JUMPDEST PUSH2 0x184F DUP4 DUP4 PUSH2 0x2391 JUMP JUMPDEST PUSH1 0x0 DUP1 PUSH1 0x0 DUP1 PUSH1 0x80 DUP6 DUP8 SUB SLT ISZERO PUSH2 0x24AE JUMPI DUP3 DUP4 REVERT JUMPDEST PUSH8 0xFFFFFFFFFFFFFFFF DUP6 CALLDATALOAD GT ISZERO PUSH2 0x24C3 JUMPI DUP3 DUP4 REVERT JUMPDEST PUSH2 0x24D0 DUP7 DUP7 CALLDATALOAD DUP8 ADD PUSH2 0x23A8 JUMP JUMPDEST SWAP4 POP PUSH8 0xFFFFFFFFFFFFFFFF PUSH1 0x20 DUP7 ADD CALLDATALOAD GT ISZERO PUSH2 0x24EA JUMPI DUP3 DUP4 REVERT JUMPDEST PUSH2 0x24FA DUP7 PUSH1 0x20 DUP8 ADD CALLDATALOAD DUP8 ADD PUSH2 0x23A8 JUMP JUMPDEST SWAP3 POP PUSH8 0xFFFFFFFFFFFFFFFF PUSH1 0x40 DUP7 ADD CALLDATALOAD GT ISZERO PUSH2 0x2514 JUMPI DUP2 DUP3 REVERT JUMPDEST PUSH2 0x2524 DUP7 PUSH1 0x40 DUP8 ADD CALLDATALOAD DUP8 ADD PUSH2 0x23A8 JUMP JUMPDEST SWAP2 POP PUSH8 0xFFFFFFFFFFFFFFFF PUSH1 0x60 DUP7 ADD CALLDATALOAD GT ISZERO PUSH2 0x253E JUMPI DUP1 DUP2 REVERT JUMPDEST PUSH1 0x60 DUP6 ADD CALLDATALOAD DUP6 ADD DUP7 PUSH1 0x1F DUP3 ADD SLT PUSH2 0x2553 JUMPI DUP2 DUP3 REVERT JUMPDEST PUSH2 0x2560 PUSH2 0x23C6 DUP3 CALLDATALOAD PUSH2 0x2D4F JUMP JUMPDEST DUP2 CALLDATALOAD DUP2 MSTORE PUSH1 0x20 DUP1 DUP3 ADD SWAP2 SWAP1 DUP4 ADD DUP5 JUMPDEST DUP5 CALLDATALOAD DUP2 LT ISZERO PUSH2 0x260D JUMPI DUP11 PUSH1 0x3F DUP4 CALLDATALOAD DUP8 ADD ADD SLT PUSH2 0x2589 JUMPI DUP6 DUP7 REVERT JUMPDEST PUSH2 0x259C PUSH2 0x23C6 PUSH1 0x20 DUP5 CALLDATALOAD DUP9 ADD ADD CALLDATALOAD PUSH2 0x2D4F JUMP JUMPDEST DUP3 CALLDATALOAD DUP7 ADD PUSH1 0x20 DUP2 DUP2 ADD CALLDATALOAD DUP1 DUP5 MSTORE DUP2 DUP5 ADD SWAP4 SWAP3 PUSH1 0x40 DUP1 DUP3 ADD SWAP4 SWAP3 SWAP1 SWAP3 MUL ADD ADD DUP15 LT ISZERO PUSH2 0x25C5 JUMPI DUP9 DUP10 REVERT JUMPDEST DUP9 JUMPDEST PUSH1 0x20 DUP7 CALLDATALOAD DUP11 ADD ADD CALLDATALOAD DUP2 LT ISZERO PUSH2 0x25F5 JUMPI PUSH2 0x25E0 DUP16 DUP4 PUSH2 0x2473 JUMP JUMPDEST DUP5 MSTORE PUSH1 0x20 SWAP4 DUP5 ADD SWAP4 SWAP2 SWAP1 SWAP2 ADD SWAP1 PUSH1 0x1 ADD PUSH2 0x25C7 JUMP JUMPDEST POP POP DUP6 MSTORE POP PUSH1 0x20 SWAP4 DUP5 ADD SWAP4 SWAP2 SWAP1 SWAP2 ADD SWAP1 PUSH1 0x1 ADD PUSH2 0x256F JUMP JUMPDEST POP POP DUP1 SWAP4 POP POP POP POP SWAP3 SWAP6 SWAP2 SWAP5 POP SWAP3 POP JUMP JUMPDEST PUSH1 0x0 PUSH1 0x20 DUP1 DUP4 DUP6 SUB SLT ISZERO PUSH2 0x2630 JUMPI DUP2 DUP3 REVERT JUMPDEST DUP3 MLOAD PUSH8 0xFFFFFFFFFFFFFFFF DUP2 GT ISZERO PUSH2 0x2646 JUMPI DUP3 DUP4 REVERT JUMPDEST DUP4 ADD PUSH1 0x1F DUP2 ADD DUP6 SGT PUSH2 0x2656 JUMPI DUP3 DUP4 REVERT JUMPDEST DUP1 MLOAD PUSH2 0x2664 PUSH2 0x23C6 DUP3 PUSH2 0x2D4F JUMP JUMPDEST DUP2 DUP2 MSTORE DUP4 DUP2 ADD SWAP1 DUP4 DUP6 ADD DUP6 DUP5 MUL DUP6 ADD DUP7 ADD DUP10 LT ISZERO PUSH2 0x2680 JUMPI DUP7 DUP8 REVERT JUMPDEST DUP7 SWAP5 POP JUMPDEST DUP4 DUP6 LT ISZERO PUSH2 0x26A2 JUMPI DUP1 MLOAD DUP4 MSTORE PUSH1 0x1 SWAP5 SWAP1 SWAP5 ADD SWAP4 SWAP2 DUP6 ADD SWAP2 DUP6 ADD PUSH2 0x2684 JUMP JUMPDEST POP SWAP8 SWAP7 POP POP POP POP POP POP POP JUMP JUMPDEST PUSH1 0x0 PUSH1 0x20 DUP3 DUP5 SUB SLT ISZERO PUSH2 0x26BF JUMPI DUP1 DUP2 REVERT JUMPDEST DUP2 CALLDATALOAD PUSH2 0x184F DUP2 PUSH2 0x2DA7 JUMP JUMPDEST PUSH1 0x0 PUSH1 0x20 DUP3 DUP5 SUB SLT ISZERO PUSH2 0x26DB JUMPI DUP1 DUP2 REVERT JUMPDEST DUP2 MLOAD PUSH2 0x184F DUP2 PUSH2 0x2DA7 JUMP JUMPDEST PUSH1 0x0 DUP1 PUSH1 0x0 PUSH1 0x60 DUP5 DUP7 SUB SLT ISZERO PUSH2 0x26FA JUMPI DUP3 DUP4 REVERT JUMPDEST DUP4 MLOAD PUSH2 0x2705 DUP2 PUSH2 0x2DB5 JUMP JUMPDEST PUSH1 0x20 DUP6 ADD MLOAD SWAP1 SWAP4 POP PUSH2 0x2716 DUP2 PUSH2 0x2DB5 JUMP JUMPDEST PUSH1 0x40 DUP6 ADD MLOAD SWAP1 SWAP3 POP PUSH4 0xFFFFFFFF DUP2 AND DUP2 EQ PUSH2 0x272F JUMPI DUP2 DUP3 REVERT JUMPDEST DUP1 SWAP2 POP POP SWAP3 POP SWAP3 POP SWAP3 JUMP JUMPDEST PUSH1 0x0 PUSH1 0x20 DUP3 DUP5 SUB SLT ISZERO PUSH2 0x274B JUMPI DUP1 DUP2 REVERT JUMPDEST POP CALLDATALOAD SWAP2 SWAP1 POP JUMP JUMPDEST PUSH1 0x0 PUSH1 0x20 DUP3 DUP5 SUB SLT ISZERO PUSH2 0x2763 JUMPI DUP1 DUP2 REVERT JUMPDEST POP MLOAD SWAP2 SWAP1 POP JUMP JUMPDEST PUSH1 0x0 DUP1 PUSH1 0x0 PUSH1 0x60 DUP5 DUP7 SUB SLT ISZERO PUSH2 0x277E JUMPI DUP3 DUP4 REVERT JUMPDEST DUP4 MLOAD SWAP3 POP PUSH1 0x20 DUP5 ADD MLOAD SWAP2 POP PUSH1 0x40 DUP5 ADD MLOAD SWAP1 POP SWAP3 POP SWAP3 POP SWAP3 JUMP JUMPDEST PUSH1 0x0 DUP3 MLOAD PUSH2 0x27A9 DUP2 DUP5 PUSH1 0x20 DUP8 ADD PUSH2 0x2D7B JUMP JUMPDEST SWAP2 SWAP1 SWAP2 ADD SWAP3 SWAP2 POP POP JUMP JUMPDEST PUSH1 0x1 PUSH1 0x1 PUSH1 0xA0 SHL SUB SWAP2 SWAP1 SWAP2 AND DUP2 MSTORE PUSH1 0x20 ADD SWAP1 JUMP JUMPDEST PUSH1 0x1 PUSH1 0x1 PUSH1 0xA0 SHL SUB SWAP3 DUP4 AND DUP2 MSTORE SWAP2 AND PUSH1 0x20 DUP3 ADD MSTORE PUSH1 0x40 ADD SWAP1 JUMP JUMPDEST PUSH1 0x1 PUSH1 0x1 PUSH1 0xA0 SHL SUB SWAP4 DUP5 AND DUP2 MSTORE SWAP2 SWAP1 SWAP3 AND PUSH1 0x20 DUP3 ADD MSTORE SWAP1 ISZERO ISZERO PUSH1 0x40 DUP3 ADD MSTORE PUSH1 0x60 ADD SWAP1 JUMP JUMPDEST PUSH1 0x1 PUSH1 0x1 PUSH1 0xA0 SHL SUB SWAP10 DUP11 AND DUP2 MSTORE SWAP8 DUP10 AND PUSH1 0x20 DUP10 ADD MSTORE SWAP6 ISZERO ISZERO PUSH1 0x40 DUP9 ADD MSTORE PUSH1 0x60 DUP8 ADD SWAP5 SWAP1 SWAP5 MSTORE PUSH1 0x80 DUP7 ADD SWAP3 SWAP1 SWAP3 MSTORE PUSH1 0xA0 DUP6 ADD MSTORE PUSH1 0xC0 DUP5 ADD MSTORE SWAP1 SWAP3 AND PUSH1 0xE0 DUP3 ADD MSTORE PUSH2 0x100 DUP2 ADD SWAP2 SWAP1 SWAP2 MSTORE PUSH2 0x120 ADD SWAP1 JUMP JUMPDEST PUSH1 0x0 PUSH1 0x40 DUP3 ADD PUSH1 0x1 DUP1 PUSH1 0xA0 SHL SUB DUP1 DUP7 AND DUP5 MSTORE PUSH1 0x20 PUSH1 0x40 DUP2 DUP7 ADD MSTORE DUP3 DUP7 SLOAD DUP1 DUP6 MSTORE PUSH1 0x60 DUP8 ADD SWAP2 POP DUP8 DUP7 MSTORE DUP3 DUP7 KECCAK256 SWAP5 POP DUP6 JUMPDEST DUP2 DUP2 LT ISZERO PUSH2 0x28A2 JUMPI DUP6 SLOAD DUP6 AND DUP4 MSTORE PUSH1 0x1 SWAP6 DUP7 ADD SWAP6 SWAP3 DUP5 ADD SWAP3 ADD PUSH2 0x2884 JUMP JUMPDEST POP SWAP1 SWAP9 SWAP8 POP POP POP POP POP POP POP POP JUMP JUMPDEST PUSH1 0x1 PUSH1 0x1 PUSH1 0xA0 SHL SUB SWAP3 SWAP1 SWAP3 AND DUP3 MSTORE PUSH1 0x20 DUP3 ADD MSTORE PUSH1 0x40 ADD SWAP1 JUMP JUMPDEST SWAP1 ISZERO ISZERO DUP2 MSTORE PUSH1 0x20 ADD SWAP1 JUMP JUMPDEST PUSH1 0x0 PUSH1 0x20 DUP3 MSTORE DUP3 MLOAD DUP1 PUSH1 0x20 DUP5 ADD MSTORE PUSH2 0x28F3 DUP2 PUSH1 0x40 DUP6 ADD PUSH1 0x20 DUP8 ADD PUSH2 0x2D7B JUMP JUMPDEST PUSH1 0x1F ADD PUSH1 0x1F NOT AND SWAP2 SWAP1 SWAP2 ADD PUSH1 0x40 ADD SWAP3 SWAP2 POP POP JUMP JUMPDEST PUSH1 0x20 DUP1 DUP3 MSTORE PUSH1 0x14 SWAP1 DUP3 ADD MSTORE PUSH20 0x14185D5CD8589B194E881B9BDD081C185D5CD959 PUSH1 0x62 SHL PUSH1 0x40 DUP3 ADD MSTORE PUSH1 0x60 ADD SWAP1 JUMP JUMPDEST PUSH1 0x20 DUP1 DUP3 MSTORE PUSH1 0xB SWAP1 DUP3 ADD MSTORE PUSH11 0x85CDD1C985D1959DA5CDD PUSH1 0xAA SHL PUSH1 0x40 DUP3 ADD MSTORE PUSH1 0x60 ADD SWAP1 JUMP JUMPDEST PUSH1 0x20 DUP1 DUP3 MSTORE PUSH1 0x26 SWAP1 DUP3 ADD MSTORE PUSH32 0x4F776E61626C653A206E6577206F776E657220697320746865207A65726F2061 PUSH1 0x40 DUP3 ADD MSTORE PUSH6 0x646472657373 PUSH1 0xD0 SHL PUSH1 0x60 DUP3 ADD MSTORE PUSH1 0x80 ADD SWAP1 JUMP JUMPDEST PUSH1 0x20 DUP1 DUP3 MSTORE PUSH1 0x1B SWAP1 DUP3 ADD MSTORE PUSH32 0x536166654D6174683A206164646974696F6E206F766572666C6F770000000000 PUSH1 0x40 DUP3 ADD MSTORE PUSH1 0x60 ADD SWAP1 JUMP JUMPDEST PUSH1 0x20 DUP1 DUP3 MSTORE PUSH1 0x1E SWAP1 DUP3 ADD MSTORE PUSH32 0x536166654D6174683A207375627472616374696F6E206F766572666C6F770000 PUSH1 0x40 DUP3 ADD MSTORE PUSH1 0x60 ADD SWAP1 JUMP JUMPDEST PUSH1 0x20 DUP1 DUP3 MSTORE PUSH1 0x26 SWAP1 DUP3 ADD MSTORE PUSH32 0x416464726573733A20696E73756666696369656E742062616C616E636520666F PUSH1 0x40 DUP3 ADD MSTORE PUSH6 0x1C8818D85B1B PUSH1 0xD2 SHL PUSH1 0x60 DUP3 ADD MSTORE PUSH1 0x80 ADD SWAP1 JUMP JUMPDEST PUSH1 0x20 DUP1 DUP3 MSTORE PUSH1 0x1A SWAP1 DUP3 ADD MSTORE PUSH32 0x536166654D6174683A206469766973696F6E206279207A65726F000000000000 PUSH1 0x40 DUP3 ADD MSTORE PUSH1 0x60 ADD SWAP1 JUMP JUMPDEST PUSH1 0x20 DUP1 DUP3 MSTORE PUSH1 0x10 SWAP1 DUP3 ADD MSTORE PUSH16 0x14185D5CD8589B194E881C185D5CD959 PUSH1 0x82 SHL PUSH1 0x40 DUP3 ADD MSTORE PUSH1 0x60 ADD SWAP1 JUMP JUMPDEST PUSH1 0x20 DUP1 DUP3 MSTORE PUSH1 0x21 SWAP1 DUP3 ADD MSTORE PUSH32 0x536166654D6174683A206D756C7469706C69636174696F6E206F766572666C6F PUSH1 0x40 DUP3 ADD MSTORE PUSH1 0x77 PUSH1 0xF8 SHL PUSH1 0x60 DUP3 ADD MSTORE PUSH1 0x80 ADD SWAP1 JUMP JUMPDEST PUSH1 0x20 DUP1 DUP3 MSTORE PUSH1 0x6 SWAP1 DUP3 ADD MSTORE PUSH6 0x85D985D5B1D PUSH1 0xD2 SHL PUSH1 0x40 DUP3 ADD MSTORE PUSH1 0x60 ADD SWAP1 JUMP JUMPDEST PUSH1 0x20 DUP1 DUP3 MSTORE DUP2 DUP2 ADD MSTORE PUSH32 0x4F776E61626C653A2063616C6C6572206973206E6F7420746865206F776E6572 PUSH1 0x40 DUP3 ADD MSTORE PUSH1 0x60 ADD SWAP1 JUMP JUMPDEST PUSH1 0x20 DUP1 DUP3 MSTORE PUSH1 0x12 SWAP1 DUP3 ADD MSTORE PUSH18 0x105B1C9958591E48125B9D1A585B1A5E9959 PUSH1 0x72 SHL PUSH1 0x40 DUP3 ADD MSTORE PUSH1 0x60 ADD SWAP1 JUMP JUMPDEST PUSH1 0x20 DUP1 DUP3 MSTORE PUSH1 0x1D SWAP1 DUP3 ADD MSTORE PUSH32 0x416464726573733A2063616C6C20746F206E6F6E2D636F6E7472616374000000 PUSH1 0x40 DUP3 ADD MSTORE PUSH1 0x60 ADD SWAP1 JUMP JUMPDEST PUSH1 0x20 DUP1 DUP3 MSTORE PUSH1 0x8 SWAP1 DUP3 ADD MSTORE PUSH8 0x10B6B0B730B3B2B9 PUSH1 0xC1 SHL PUSH1 0x40 DUP3 ADD MSTORE PUSH1 0x60 ADD SWAP1 JUMP JUMPDEST PUSH1 0x20 DUP1 DUP3 MSTORE PUSH1 0x2A SWAP1 DUP3 ADD MSTORE PUSH32 0x5361666545524332303A204552433230206F7065726174696F6E20646964206E PUSH1 0x40 DUP3 ADD MSTORE PUSH10 0x1BDD081CDD58D8D95959 PUSH1 0xB2 SHL PUSH1 0x60 DUP3 ADD MSTORE PUSH1 0x80 ADD SWAP1 JUMP JUMPDEST PUSH1 0x20 DUP1 DUP3 MSTORE PUSH1 0x36 SWAP1 DUP3 ADD MSTORE PUSH32 0x5361666545524332303A20617070726F76652066726F6D206E6F6E2D7A65726F PUSH1 0x40 DUP3 ADD MSTORE PUSH22 0x20746F206E6F6E2D7A65726F20616C6C6F77616E6365 PUSH1 0x50 SHL PUSH1 0x60 DUP3 ADD MSTORE PUSH1 0x80 ADD SWAP1 JUMP JUMPDEST SWAP1 DUP2 MSTORE PUSH1 0x20 ADD SWAP1 JUMP JUMPDEST SWAP2 DUP3 MSTORE PUSH1 0x20 DUP3 ADD MSTORE PUSH1 0x40 ADD SWAP1 JUMP JUMPDEST PUSH1 0x0 PUSH1 0xA0 DUP1 DUP4 ADD DUP9 DUP5 MSTORE PUSH1 0x20 DUP9 DUP2 DUP7 ADD MSTORE PUSH1 0x40 DUP4 DUP2 DUP8 ADD MSTORE DUP3 DUP10 SLOAD DUP1 DUP6 MSTORE PUSH1 0xC0 DUP9 ADD SWAP2 POP DUP11 DUP8 MSTORE DUP4 DUP8 KECCAK256 SWAP5 POP DUP7 JUMPDEST DUP2 DUP2 LT ISZERO PUSH2 0x2D00 JUMPI DUP6 SLOAD PUSH1 0x1 PUSH1 0x1 PUSH1 0xA0 SHL SUB SWAP1 PUSH2 0x2CD3 SWAP1 DUP3 AND PUSH2 0x2D6F JUMP JUMPDEST DUP5 MSTORE PUSH1 0x1 DUP8 DUP2 ADD SLOAD SWAP2 DUP3 AND DUP8 DUP7 ADD MSTORE SWAP1 DUP9 SHR PUSH1 0xFF AND ISZERO ISZERO DUP6 DUP6 ADD MSTORE PUSH1 0x2 SWAP1 SWAP7 ADD SWAP6 PUSH1 0x60 SWAP1 SWAP4 ADD SWAP3 ADD PUSH2 0x2CB5 JUMP JUMPDEST POP POP PUSH1 0x1 PUSH1 0x1 PUSH1 0xA0 SHL SUB SWAP9 SWAP1 SWAP9 AND PUSH1 0x60 DUP8 ADD MSTORE POP POP POP POP PUSH1 0x80 SWAP1 SWAP2 ADD SWAP2 SWAP1 SWAP2 MSTORE POP SWAP4 SWAP3 POP POP POP JUMP JUMPDEST PUSH1 0x40 MLOAD DUP2 DUP2 ADD PUSH8 0xFFFFFFFFFFFFFFFF DUP2 GT DUP3 DUP3 LT OR ISZERO PUSH2 0x2D47 JUMPI PUSH1 0x0 DUP1 REVERT JUMPDEST PUSH1 0x40 MSTORE SWAP2 SWAP1 POP JUMP JUMPDEST PUSH1 0x0 PUSH8 0xFFFFFFFFFFFFFFFF DUP3 GT ISZERO PUSH2 0x2D65 JUMPI DUP1 DUP2 REVERT JUMPDEST POP PUSH1 0x20 SWAP1 DUP2 MUL ADD SWAP1 JUMP JUMPDEST PUSH1 0x1 PUSH1 0x1 PUSH1 0xA0 SHL SUB AND SWAP1 JUMP JUMPDEST PUSH1 0x0 JUMPDEST DUP4 DUP2 LT ISZERO PUSH2 0x2D96 JUMPI DUP2 DUP2 ADD MLOAD DUP4 DUP3 ADD MSTORE PUSH1 0x20 ADD PUSH2 0x2D7E JUMP JUMPDEST DUP4 DUP2 GT ISZERO PUSH2 0x941 JUMPI POP POP PUSH1 0x0 SWAP2 ADD MSTORE JUMP JUMPDEST DUP1 ISZERO ISZERO DUP2 EQ PUSH2 0xFD6 JUMPI PUSH1 0x0 DUP1 REVERT JUMPDEST PUSH1 0x1 PUSH1 0x1 PUSH1 0x70 SHL SUB DUP2 AND DUP2 EQ PUSH2 0xFD6 JUMPI PUSH1 0x0 DUP1 REVERT INVALID LOG2 PUSH5 0x6970667358 0x22 SLT KECCAK256 DUP1 0x5C SWAP16 PUSH1 0x63 PUSH4 0xC8800B2C 0xCD 0x5F SWAP6 BYTE 0xC4 0xDC 0x49 DUP2 SWAP7 0xBA 0xBD STOP 0xE1 0xD3 0xEA LT PUSH11 0xCA92C5C864736F6C6343 STOP MOD 0xC STOP CALLER ",
  "sha1": "3ecd5de8e387514ba69c198d72e3fb6f712260fc",
  "source": "// SPDX-License-Identifier: MIT\n\npragma solidity ^0.6.0;\npragma experimental ABIEncoderV2;\nimport \"OpenZeppelin/openzeppelin-contracts@3.4.0/contracts/math/SafeMath.sol\";\n\nimport \"OpenZeppelin/openzeppelin-contracts@3.4.0/contracts/token/ERC20/ERC20.sol\";\nimport \"OpenZeppelin/openzeppelin-contracts@3.4.0/contracts/token/ERC20/SafeERC20.sol\";\n\n\n\n\n\n/**\n * @dev Contract module which provides a basic access control mechanism, where\n * there is an account (an owner) that can be granted exclusive access to\n * specific functions.\n *\n * By default, the owner account will be the one that deploys the contract. This\n * can later be changed with {transferOwnership}.\n *\n * This module is used through inheritance. It will make available the modifier\n * `onlyOwner`, which can be applied to your functions to restrict their use to\n * the owner.\n */\nabstract contract Ownable is Context {\n    address private _owner;\n\n    event OwnershipTransferred(address indexed previousOwner, address indexed newOwner);\n\n    /**\n     * @dev Initializes the contract setting the deployer as the initial owner.\n     */\n    constructor () internal {\n        address msgSender = _msgSender();\n        _owner = msgSender;\n        emit OwnershipTransferred(address(0), msgSender);\n    }\n\n    /**\n     * @dev Returns the address of the current owner.\n     */\n    function owner() public view virtual returns (address) {\n        return _owner;\n    }\n\n    /**\n     * @dev Throws if called by any account other than the owner.\n     */\n    modifier onlyOwner() {\n        require(owner() == _msgSender(), \"Ownable: caller is not the owner\");\n        _;\n    }\n\n    /**\n     * @dev Leaves the contract without owner. It will not be possible to call\n     * `onlyOwner` functions anymore. Can only be called by the current owner.\n     *\n     * NOTE: Renouncing ownership will leave the contract without an owner,\n     * thereby removing any functionality that is only available to the owner.\n     */\n    function renounceOwnership() public virtual onlyOwner {\n        emit OwnershipTransferred(_owner, address(0));\n        _owner = address(0);\n    }\n\n    /**\n     * @dev Transfers ownership of the contract to a new account (`newOwner`).\n     * Can only be called by the current owner.\n     */\n    function transferOwnership(address newOwner) public virtual onlyOwner {\n        require(newOwner != address(0), \"Ownable: new owner is the zero address\");\n        emit OwnershipTransferred(_owner, newOwner);\n        _owner = newOwner;\n    }\n}\n\n\n\n\n/**\n * @dev Contract module which allows children to implement an emergency stop\n * mechanism that can be triggered by an authorized account.\n *\n * This module is used through inheritance. It will make available the\n * modifiers `whenNotPaused` and `whenPaused`, which can be applied to\n * the functions of your contract. Note that they will not be pausable by\n * simply including this module, only once the modifiers are put in place.\n */\nabstract contract Pausable is Context {\n    /**\n     * @dev Emitted when the pause is triggered by `account`.\n     */\n    event Paused(address account);\n\n    /**\n     * @dev Emitted when the pause is lifted by `account`.\n     */\n    event Unpaused(address account);\n\n    bool private _paused;\n\n    /**\n     * @dev Initializes the contract in unpaused state.\n     */\n    constructor () internal {\n        _paused = false;\n    }\n\n    /**\n     * @dev Returns true if the contract is paused, and false otherwise.\n     */\n    function paused() public view virtual returns (bool) {\n        return _paused;\n    }\n\n    /**\n     * @dev Modifier to make a function callable only when the contract is not paused.\n     *\n     * Requirements:\n     *\n     * - The contract must not be paused.\n     */\n    modifier whenNotPaused() {\n        require(!paused(), \"Pausable: paused\");\n        _;\n    }\n\n    /**\n     * @dev Modifier to make a function callable only when the contract is paused.\n     *\n     * Requirements:\n     *\n     * - The contract must be paused.\n     */\n    modifier whenPaused() {\n        require(paused(), \"Pausable: not paused\");\n        _;\n    }\n\n    /**\n     * @dev Triggers stopped state.\n     *\n     * Requirements:\n     *\n     * - The contract must not be paused.\n     */\n    function _pause() internal virtual whenNotPaused {\n        _paused = true;\n        emit Paused(_msgSender());\n    }\n\n    /**\n     * @dev Returns to normal state.\n     *\n     * Requirements:\n     *\n     * - The contract must be paused.\n     */\n    function _unpause() internal virtual whenPaused {\n        _paused = false;\n        emit Unpaused(_msgSender());\n    }\n}\n\n\ncontract StratManager is Ownable, Pausable {\n    /**\n     * @dev Beefy Contracts:\n     * {keeper} - Address to manage a few lower risk features of the strat\n     * {strategist} - Address of the strategy author/deployer where strategist fee will go.\n     * {vault} - Address of the vault that controls the strategy's funds.\n     * {unirouter} - Address of exchange to execute swaps.\n     */\n    address public keeper;\n    address public strategist;\n    address public unirouter;\n    address public vault;\n    address public beefyFeeRecipient;\n\n    /**\n     * @dev Initializes the base strategy.\n     * @param _keeper address to use as alternative owner.\n     * @param _strategist address where strategist fees go.\n     * @param _unirouter router to use for swaps\n     * @param _vault address of parent vault.\n     */\n    constructor(\n        address _keeper,\n        address _strategist,\n        address _unirouter,\n        address _vault\n    ) public {\n        keeper = _keeper;\n        strategist = _strategist;\n        unirouter = _unirouter;\n        vault = _vault;\n    }\n\n    // checks that caller is either owner or keeper.\n    modifier onlyManager() {\n        require(msg.sender == owner() || msg.sender == keeper, \"!manager\");\n        _;\n    }\n\n    /**\n     * @dev Updates address of the strat keeper.\n     * @param _keeper new keeper address.\n     */\n    function setKeeper(address _keeper) external onlyManager {\n        keeper = _keeper;\n    }\n\n    /**\n     * @dev Updates address where strategist fee earnings will go.\n     * @param _strategist new strategist address.\n     */\n    function setStrategist(address _strategist) external {\n        require(msg.sender == strategist, \"!strategist\");\n        strategist = _strategist;\n    }\n\n    /**\n     * @dev Updates router that will be used for swaps.\n     * @param _unirouter new unirouter address.\n     */\n    function setUnirouter(address _unirouter) external onlyOwner {\n        unirouter = _unirouter;\n    }\n\n    /**\n     * @dev Updates parent vault.\n     * @param _vault new vault address.\n     */\n    function setVault(address _vault) external onlyOwner {\n        vault = _vault;\n    }\n\n \n\n    /**\n     * @dev Function to synchronize balances before new user deposit.\n     * Can be overridden in the strategy.\n     */\n    function beforeDeposit() external virtual {}\n}\n\n\n\n/*\n * @dev Provides information about the current execution context, including the\n * sender of the transaction and its data. While these are generally available\n * via msg.sender and msg.data, they should not be accessed in such a direct\n * manner, since when dealing with GSN meta-transactions the account sending and\n * paying for execution may not be the actual sender (as far as an application\n * is concerned).\n *\n * This contract is only required for intermediate, library-like contracts.\n */\n\n\n\n\n abstract contract FeeManager is StratManager {\n    uint constant public STRATEGIST_FEE = 112;\n    uint constant public MAX_FEE = 1000;\n    uint constant public MAX_CALL_FEE = 111;\n\n    uint constant public WITHDRAWAL_FEE_CAP = 50;\n    uint constant public WITHDRAWAL_MAX = 10000;\n\n    uint public withdrawalFee = 10;\n\n    uint public callFee = 111;\n    uint public beefyFee = MAX_FEE - STRATEGIST_FEE - callFee;\n\n    function setCallFee(uint256 _fee) public onlyManager {\n        require(_fee <= MAX_CALL_FEE, \"!cap\");\n        \n        callFee = _fee;\n        beefyFee = MAX_FEE - STRATEGIST_FEE - callFee;\n    }\n\n    function setWithdrawalFee(uint256 _fee) public onlyManager {\n        require(_fee <= WITHDRAWAL_FEE_CAP, \"!cap\");\n\n        withdrawalFee = _fee;\n    }\n}\n\n\n\ninterface IERC20Extended {\n    function symbol() external view returns (string memory);\n    function decimals() external view returns (uint);\n}\n\ninterface ISolidlyGauge {\n    function deposit(uint256 amount, uint256 tokenId) external;\n    function withdraw(uint256 amount) external;\n    function getReward(address user, address[] memory rewards) external;\n    function earned(address token, address user) external view returns (uint256);\n    function balanceOf(address user) external view returns (uint256);\n}\n\ninterface ISolidlyPair {\n    function factory() external view returns (address);\n    function token0() external view returns (address);\n    function token1() external view returns (address);\n    function burn(address to) external returns (uint amount0, uint amount1);\n    function getReserves() external view returns (uint112 reserve0, uint112 reserve1, uint32 blockTimestampLast);\n    function stable() external view returns (bool);\n}\n\ninterface IUniswapRouterSolidly {\n\n    // Routes\n    struct Routes {\n        address from;\n        address to;\n        bool stable;\n    }\n\n    function addLiquidity(\n        address tokenA,\n        address tokenB,\n        bool stable,\n        uint amountADesired,\n        uint amountBDesired,\n        uint amountAMin,\n        uint amountBMin,\n        address to,\n        uint deadline\n    ) external returns (uint amountA, uint amountB, uint liquidity);\n\n    function addLiquidityETH(\n        address token,\n        bool stable, \n        uint amountTokenDesired,\n        uint amountTokenMin,\n        uint amountETHMin,\n        address to,\n        uint deadline\n    ) external payable returns (uint amountToken, uint amountETH, uint liquidity);\n\n    function removeLiquidity(\n        address tokenA,\n        address tokenB,\n        bool stable, \n        uint liquidity,\n        uint amountAMin,\n        uint amountBMin,\n        address to,\n        uint deadline\n    ) external returns (uint amountA, uint amountB);\n\n    function removeLiquidityETH(\n        address token,\n        bool stable,\n        uint liquidity,\n        uint amountTokenMin,\n        uint amountETHMin,\n        address to,\n        uint deadline\n    ) external returns (uint amountToken, uint amountETH);\n\n    function swapExactTokensForTokensSimple(\n        uint amountIn, \n        uint amountOutMin, \n        address tokenFrom, \n        address tokenTo,\n        bool stable, \n        address to, \n        uint deadline\n    ) external returns (uint[] memory amounts);\n\n     function swapExactTokensForTokens(\n        uint amountIn, \n        uint amountOutMin, \n        Routes[] memory route, \n        address to, \n        uint deadline\n    ) external returns (uint[] memory amounts);\n\n    function getAmountOut(uint amountIn, address tokenIn, address tokenOut) external view returns (uint amount, bool stable);\n   \n    function quoteAddLiquidity(\n        address tokenA,\n        address tokenB,\n        bool stable,\n        uint amountADesired,\n        uint amountBDesired\n    ) external view returns (uint amountA, uint amountB, uint liquidity);\n}\n\n\ncontract StrategyCommonSolidlyGaugeLP is StratManager {\n    using SafeERC20 for IERC20;\n    using SafeMath for uint256;\n\n    // Tokens used\n\n    //rewards token\n    address public native;\n    //reward token\n    address public output;\n\n\n    //lp pair determined by below to autocomound\n    address public want;\n    //lp token \n    address public lpToken0;\n    //lp token2\n    address public lpToken1;\n\n    // Third party contracts\n    address public gauge;\n    address public intializer;\n\n    bool public stable;\n    bool public harvestOnDeposit;\n    uint256 public lastHarvest;\n\n    //reward to natice wrapped\n    IUniswapRouterSolidly.Routes[] public outputToNativeRoute;\n     //reward to l0\n    IUniswapRouterSolidly.Routes[] public outputToLp0Route;\n    //reward to l1\n    IUniswapRouterSolidly.Routes[] public outputToLp1Route;\n    address[] public rewards;\n\n    event StratHarvest(address indexed harvester, uint256 wantHarvested, uint256 tvl);\n    event Deposit(uint256 tvl);\n    event Withdraw(uint256 tvl);\n\n    constructor(\n        address _want,\n        address _gauge,\n        address _vault,\n        address _unirouter,\n        address _keeper,\n        address _strategist\n    ) StratManager(_keeper, _strategist, _unirouter, _vault) public {\n        want = _want;\n        gauge = _gauge;\n\n        stable = true;\n        intializer = msg.sender;\n    }\n\n    function intializeRoutes(address[][] memory outputToNative, address[][] memory outputToLp0, address[][] memory outputToLp1, bool[][] memory stables) external onlyOwner {\n        require(intializer != address(0), \"Already Intialized\");\n        \n        _initOutputToNativeRoute(outputToNative, stables[0]);\n        _initOutputToLp0Route(outputToLp0, stables[1]);\n        _initOutputToLp1Route(outputToLp1, stables[2]);\n\n        output = outputToNativeRoute[0].from;\n        native = outputToNativeRoute[outputToNativeRoute.length -1].to;\n        lpToken0 = outputToLp0Route[outputToLp0Route.length - 1].to;\n        lpToken1 = outputToLp1Route[outputToLp1Route.length - 1].to;\n\n        rewards.push(output);\n        _giveAllowances();\n\n        intializer = address(0);\n    }\n\n    function _initOutputToNativeRoute(address[][] memory tokens, bool[] memory stables) internal {\n        for (uint i; i < tokens.length; ++i) {\n            outputToNativeRoute.push(IUniswapRouterSolidly.Routes({\n                from: tokens[i][0],\n                to: tokens[i][1],\n                stable: stables[i]\n            }));\n        }\n    }\n\n    function _initOutputToLp0Route(address[][] memory tokens, bool[] memory stables) internal {\n        for (uint i; i < tokens.length; ++i) {\n            outputToLp0Route.push(IUniswapRouterSolidly.Routes({\n                from: tokens[i][0],\n                to: tokens[i][1],\n                stable: stables[i]\n            }));\n        }\n    }\n\n     function _initOutputToLp1Route(address[][] memory tokens, bool[] memory stables) internal {\n        for (uint i; i < tokens.length; ++i) {\n            outputToLp1Route.push(IUniswapRouterSolidly.Routes({\n                from: tokens[i][0],\n                to: tokens[i][1],\n                stable: stables[i]\n            }));\n        }\n    }\n\n    // puts the funds to work\n    function deposit() public whenNotPaused {\n        //get balance\n        uint256 wantBal = IERC20(want).balanceOf(address(this));\n        //if non zero then deposit into gauge\n        if (wantBal > 0) {\n            ISolidlyGauge(gauge).deposit(wantBal, 0);\n            emit Deposit(balanceOf());\n        }\n    }\n\n\n    //\n    function withdraw(uint256 _amount) external {\n        //onlyvault can withdraw\n        require(msg.sender == vault, \"!vault\");\n        //get balance\n        uint256 wantBal = IERC20(want).balanceOf(address(this));\n        //if amount is large then larger then withdraw from gauge\n        if (wantBal < _amount) {\n            ISolidlyGauge(gauge).withdraw(_amount.sub(wantBal));\n            wantBal = IERC20(want).balanceOf(address(this));\n        }\n        // if want is larger then amount\n        if (wantBal > _amount) {\n            wantBal = _amount;\n        }\n\n        // Fees\n        //if (tx.origin != owner() && !paused()) {\n        //    uint256 withdrawalFeeAmount = wantBal.mul(withdrawalFee).div(WITHDRAWAL_MAX);\n        //     wantBal = wantBal.sub(withdrawalFeeAmount);\n        //}\n\n        // transfer to vault\n        IERC20(want).safeTransfer(vault, wantBal);\n\n        emit Withdraw(balanceOf());\n    }\n\n    function beforeDeposit() external virtual override {\n        if (harvestOnDeposit) {\n            require(msg.sender == vault, \"!vault\");\n            _harvest();\n        }\n    }\n\n    function harvest() external  virtual {\n        _harvest();\n    }\n\n\n    // compounds earnings and charges performance fee\n    function _harvest() internal whenNotPaused {\n        ISolidlyGauge(gauge).getReward(address(this), rewards);\n        uint256 outputBal = IERC20(output).balanceOf(address(this));\n        if (outputBal > 0) {\n            addLiquidity();\n            uint256 wantHarvested = balanceOfWant();\n            deposit();\n\n            lastHarvest = block.timestamp;\n            emit StratHarvest(msg.sender, wantHarvested, balanceOf());\n        }\n    }\n\n\n    // Adds liquidity to AMM and gets more LP tokens.\n    function addLiquidity() internal {\n        uint256 lp0Amt;\n        uint256 lp1Amt;\n        if (stable) {\n            uint256 outputBal = IERC20(output).balanceOf(address(this));\n            lp0Amt = outputBal.mul(getRatio()).div(10**18);\n            lp1Amt = outputBal.sub(lp0Amt);\n        } else { \n            lp0Amt = IERC20(output).balanceOf(address(this)).div(2);\n            lp1Amt = lp0Amt;\n        }\n        //trade rewards for lptoken0\n        if (lpToken0 != output) {\n            IUniswapRouterSolidly(unirouter).swapExactTokensForTokens(lp0Amt, 0, outputToLp0Route, address(this), now);\n        }\n        //tradre rewards for lptoken1\n        if (lpToken1 != output) {\n            IUniswapRouterSolidly(unirouter).swapExactTokensForTokens(lp1Amt, 0, outputToLp1Route, address(this), now);\n        }\n\n        uint256 lp0Bal = IERC20(lpToken0).balanceOf(address(this));\n        uint256 lp1Bal = IERC20(lpToken1).balanceOf(address(this));\n        IUniswapRouterSolidly(unirouter).addLiquidity(lpToken0, lpToken1, stable, lp0Bal, lp1Bal, 1, 1, address(this), now);\n    }\n\n//could cause problems?\n//works for sure for 19\n    function getRatio() public view returns (uint256) {\n        (uint256 opLp0, uint256 opLp1, ) = ISolidlyPair(want).getReserves();\n        uint256 lp0Amt = opLp0.mul(10**18).div(10**IERC20Extended(lpToken0).decimals());\n        uint256 lp1Amt = opLp1.mul(10**18).div(10**IERC20Extended(lpToken1).decimals());   \n        uint256 totalSupply = lp0Amt.add(lp1Amt);      \n        return lp0Amt.mul(10**18).div(totalSupply);\n    }\n\n    // calculate the total underlaying 'want' held by the strat.\n    function balanceOf() public view returns (uint256) {\n        // balance of this address + balance of pool\n        return balanceOfWant().add(balanceOfPool());\n    }\n\n    // it calculates how much 'want' this contract holds.\n    function balanceOfWant() public view returns (uint256) {\n        return IERC20(want).balanceOf(address(this));\n    }\n\n    // it calculates how much 'want' the strategy has working in the farm.\n    function balanceOfPool() public view returns (uint256) {\n        return ISolidlyGauge(gauge).balanceOf(address(this));\n    }\n\n    // returns rewards unharvested\n    function rewardsAvailable() public view returns (uint256) {\n        return ISolidlyGauge(gauge).earned(output, address(this));\n    }\n\n\n\n    function setHarvestOnDeposit(bool _harvestOnDeposit) external onlyManager {\n        harvestOnDeposit = _harvestOnDeposit;\n\n    \n    }\n\n\n    // called as part of strat migration. Sends all the available funds back to the vault.\n    function retireStrat() external {\n        require(msg.sender == vault, \"!vault\");\n\n        ISolidlyGauge(gauge).withdraw(balanceOfPool());\n\n        uint256 wantBal = IERC20(want).balanceOf(address(this));\n        IERC20(want).transfer(vault, wantBal);\n    }\n\n    // pauses deposits and withdraws all funds from third party systems.\n    function panic() public onlyManager {\n        pause();\n        ISolidlyGauge(gauge).withdraw(balanceOfPool());\n    }\n\n    function pause() public onlyManager {\n        _pause();\n\n        _removeAllowances();\n    }\n\n    function unpause() external onlyManager {\n        _unpause();\n\n        _giveAllowances();\n\n        deposit();\n    }\n\n    function _giveAllowances() internal {\n        IERC20(want).safeApprove(gauge, uint256(-1));\n        IERC20(output).safeApprove(unirouter, uint256(-1));\n\n        IERC20(lpToken0).safeApprove(unirouter, 0);\n        IERC20(lpToken0).safeApprove(unirouter, uint256(-1));\n\n        IERC20(lpToken1).safeApprove(unirouter, 0);\n        IERC20(lpToken1).safeApprove(unirouter, uint256(-1));\n    }\n\n    function _removeAllowances() internal {\n        IERC20(want).safeApprove(gauge, 0);\n        IERC20(output).safeApprove(unirouter, 0);\n\n        IERC20(lpToken0).safeApprove(unirouter, 0);\n        IERC20(lpToken1).safeApprove(unirouter, 0);\n    }\n}",
  "sourcePath": "contracts/StrategyCommonSolidlyGaugeLP.sol",
  "type": "contract"
}